{
  "contracts/AccountManager.sol": {
    "AccountManager": {
      "abi": [
        {
          "inputs": [
            {
              "internalType": "address",
              "name": "executor",
              "type": "address"
            },
            {
              "internalType": "address",
              "name": "zrSign",
              "type": "address"
            }
          ],
          "stateMutability": "nonpayable",
          "type": "constructor"
        },
        {
          "inputs": [],
          "name": "_executor",
          "outputs": [
            {
              "internalType": "address",
              "name": "",
              "type": "address"
            }
          ],
          "stateMutability": "view",
          "type": "function"
        },
        {
          "inputs": [
            {
              "internalType": "bytes",
              "name": "instructions",
              "type": "bytes"
            }
          ],
          "name": "createStrategy",
          "outputs": [],
          "stateMutability": "nonpayable",
          "type": "function"
        },
        {
          "inputs": [
            {
              "components": [
                {
                  "internalType": "address",
                  "name": "from",
                  "type": "address"
                },
                {
                  "internalType": "address",
                  "name": "to",
                  "type": "address"
                },
                {
                  "internalType": "bytes",
                  "name": "data",
                  "type": "bytes"
                },
                {
                  "internalType": "uint256",
                  "name": "gasPrice",
                  "type": "uint256"
                },
                {
                  "internalType": "uint256",
                  "name": "gasLimit",
                  "type": "uint256"
                },
                {
                  "internalType": "uint256",
                  "name": "value",
                  "type": "uint256"
                }
              ],
              "internalType": "struct TransactionParams[]",
              "name": "payloads",
              "type": "tuple[]"
            },
            {
              "internalType": "uint256",
              "name": "zrWalletIndex",
              "type": "uint256"
            },
            {
              "internalType": "bytes32",
              "name": "chainId",
              "type": "bytes32"
            }
          ],
          "name": "execute",
          "outputs": [],
          "stateMutability": "nonpayable",
          "type": "function"
        },
        {
          "inputs": [
            {
              "internalType": "address",
              "name": "account",
              "type": "address"
            }
          ],
          "name": "getAccountStrategies",
          "outputs": [
            {
              "components": [
                {
                  "internalType": "uint256",
                  "name": "id",
                  "type": "uint256"
                },
                {
                  "internalType": "uint256",
                  "name": "zrWalletIndex",
                  "type": "uint256"
                },
                {
                  "internalType": "bytes",
                  "name": "instructions",
                  "type": "bytes"
                },
                {
                  "internalType": "bool",
                  "name": "active",
                  "type": "bool"
                }
              ],
              "internalType": "struct Strategy[]",
              "name": "",
              "type": "tuple[]"
            }
          ],
          "stateMutability": "view",
          "type": "function"
        },
        {
          "inputs": [
            {
              "internalType": "uint256",
              "name": "zrWalletIndex",
              "type": "uint256"
            }
          ],
          "name": "getStrategyAddress",
          "outputs": [
            {
              "internalType": "string",
              "name": "",
              "type": "string"
            }
          ],
          "stateMutability": "view",
          "type": "function"
        },
        {
          "inputs": [
            {
              "internalType": "uint256",
              "name": "id",
              "type": "uint256"
            },
            {
              "internalType": "bytes",
              "name": "instructions",
              "type": "bytes"
            }
          ],
          "name": "setStrategy",
          "outputs": [],
          "stateMutability": "nonpayable",
          "type": "function"
        },
        {
          "stateMutability": "payable",
          "type": "receive"
        }
      ],
      "evm": {
        "bytecode": {
          "linkReferences": {},
          "object": "60c06040523480156200001157600080fd5b5060405162002b4a38038062002b4a833981810160405281019062000037919062000113565b808073ffffffffffffffffffffffffffffffffffffffff1660808173ffffffffffffffffffffffffffffffffffffffff1681525050508173ffffffffffffffffffffffffffffffffffffffff1660a08173ffffffffffffffffffffffffffffffffffffffff168152505050506200015a565b600080fd5b600073ffffffffffffffffffffffffffffffffffffffff82169050919050565b6000620000db82620000ae565b9050919050565b620000ed81620000ce565b8114620000f957600080fd5b50565b6000815190506200010d81620000e2565b92915050565b600080604083850312156200012d576200012c620000a9565b5b60006200013d85828601620000fc565b92505060206200015085828601620000fc565b9150509250929050565b60805160a0516129a0620001aa6000396000818161047001526105b60152600081816105dd0152818161067f015281816107860152818161081901528181610a3e0152610b0d01526129a06000f3fe6080604052600436106100595760003560e01c806320d2a5851461006557806353cad60f1461008e5780636ccf2fa7146100cb57806371dc811f14610108578063f786fdf614610131578063fb1a746f1461015a57610060565b3661006057005b600080fd5b34801561007157600080fd5b5061008c6004803603810190610087919061147f565b610185565b005b34801561009a57600080fd5b506100b560048036038101906100b0919061152a565b6102fe565b6040516100c29190611740565b60405180910390f35b3480156100d757600080fd5b506100f260048036038101906100ed919061178e565b61045c565b6040516100ff9190611810565b60405180910390f35b34801561011457600080fd5b5061012f600480360381019061012a9190611b3f565b61046e565b005b34801561013d57600080fd5b5061015860048036038101906101539190611bae565b61053e565b005b34801561016657600080fd5b5061016f6105b4565b60405161017c9190611c1d565b60405180910390f35b600061018f6105d8565b905060008060003373ffffffffffffffffffffffffffffffffffffffff1673ffffffffffffffffffffffffffffffffffffffff1681526020019081526020016000208054905090506000604051806080016040528083815260200184815260200186868080601f016020809104026020016040519081016040528093929190818152602001838380828437600081840152601f19601f8201169050808301925050505050505081526020016001151581525090506000803373ffffffffffffffffffffffffffffffffffffffff1673ffffffffffffffffffffffffffffffffffffffff168152602001908152602001600020819080600181540180825580915050600190039060005260206000209060040201600090919091909150600082015181600001556020820151816001015560408201518160020190816102d49190611e44565b5060608201518160030160006101000a81548160ff02191690831515021790555050505050505050565b60606000808373ffffffffffffffffffffffffffffffffffffffff1673ffffffffffffffffffffffffffffffffffffffff168152602001908152602001600020805480602002602001604051908101604052809291908181526020016000905b82821015610451578382906000526020600020906004020160405180608001604052908160008201548152602001600182015481526020016002820180546103a590611c67565b80601f01602080910402602001604051908101604052809291908181526020018280546103d190611c67565b801561041e5780601f106103f35761010080835404028352916020019161041e565b820191906000526020600020905b81548152906001019060200180831161040157829003601f168201915b505050505081526020016003820160009054906101000a900460ff1615151515815250508152602001906001019061035e565b505050509050919050565b606061046782610815565b9050919050565b7f000000000000000000000000000000000000000000000000000000000000000073ffffffffffffffffffffffffffffffffffffffff163373ffffffffffffffffffffffffffffffffffffffff16146104fc576040517f08c379a00000000000000000000000000000000000000000000000000000000081526004016104f390611f62565b60405180910390fd5b60005b83518110156105385761052d84828151811061051e5761051d611f82565b5b602002602001015184846108e4565b8060010190506104ff565b50505050565b81816000803373ffffffffffffffffffffffffffffffffffffffff1673ffffffffffffffffffffffffffffffffffffffff16815260200190815260200160002085815481106105905761058f611f82565b5b906000526020600020906004020160020191826105ae929190611fbc565b50505050565b7f000000000000000000000000000000000000000000000000000000000000000081565b6000807f000000000000000000000000000000000000000000000000000000000000000073ffffffffffffffffffffffffffffffffffffffff1663a213cbaa600160006040518363ffffffff1660e01b81526004016106389291906120e3565b606060405180830381865afa158015610655573d6000803e3d6000fd5b505050506040513d601f19601f820116820180604052508101906106799190612121565b925050507f000000000000000000000000000000000000000000000000000000000000000073ffffffffffffffffffffffffffffffffffffffff1663a11a572d7fe146c2986893c43af5ff396310220be92058fb9f4ce76b929b80ef0d5307100a60001b306040518363ffffffff1660e01b81526004016106fb929190612183565b600060405180830381865afa158015610718573d6000803e3d6000fd5b505050506040513d6000823e3d601f19601f82011682018060405250810190610741919061232e565b519150600060405180604001604052807fe146c2986893c43af5ff396310220be92058fb9f4ce76b929b80ef0d5307100a60001b8152602001600160ff1681525090507f000000000000000000000000000000000000000000000000000000000000000073ffffffffffffffffffffffffffffffffffffffff16635c706c9b83836040518363ffffffff1660e01b81526004016107de91906123c4565b6000604051808303818588803b1580156107f757600080fd5b505af115801561080b573d6000803e3d6000fd5b5050505050505090565b60607f000000000000000000000000000000000000000000000000000000000000000073ffffffffffffffffffffffffffffffffffffffff1663187e58187fe146c2986893c43af5ff396310220be92058fb9f4ce76b929b80ef0d5307100a60001b30856040518463ffffffff1660e01b8152600401610897939291906123ee565b600060405180830381865afa1580156108b4573d6000803e3d6000fd5b505050506040513d6000823e3d601f19601f820116820180604052508101906108dd9190612425565b9050919050565b6000600160008481526020019081526020016000206000838152602001908152602001600020549050600061091c85604001516109b0565b9050600061093e838760600151886080015189602001518a60a00151876109c2565b90506109717fe146c2986893c43af5ff396310220be92058fb9f4ce76b929b80ef0d5307100a60001b8686846001610a3a565b828061097c9061249d565b9350508260016000878152602001908152602001600020600086815260200190815260200160002081905550505050505050565b60606109bb82610ba0565b9050919050565b606060006109cf88610c1e565b905060006109dc88610c1e565b905060006109e988610c1e565b90506000610a0c8873ffffffffffffffffffffffffffffffffffffffff16610c38565b90506000610a1988610c1e565b9050610a2985858585858c610c69565b955050505050509695505050505050565b60007f000000000000000000000000000000000000000000000000000000000000000073ffffffffffffffffffffffffffffffffffffffff1663a213cbaa600160006040518363ffffffff1660e01b8152600401610a999291906120e3565b606060405180830381865afa158015610ab6573d6000803e3d6000fd5b505050506040513d601f19601f82011682018060405250810190610ada9190612121565b9250505060006040518060a0016040528088815260200187815260200186815260200185815260200184151581525090507f000000000000000000000000000000000000000000000000000000000000000073ffffffffffffffffffffffffffffffffffffffff166393f874c483836040518363ffffffff1660e01b8152600401610b65919061255b565b6000604051808303818588803b158015610b7e57600080fd5b505af1158015610b92573d6000803e3d6000fd5b505050505050505050505050565b60608060018351148015610bd85750608083600081518110610bc557610bc4611f82565b5b602001015160f81c60f81b60f81c60ff16105b15610be557829050610c15565b610bf183516080610e03565b83604051602001610c039291906125b9565b60405160208183030381529060405290505b80915050919050565b6060610c31610c2c8361104f565b610ba0565b9050919050565b6060610c6282604051602001610c4e9190612625565b604051602081830303815290604052610ba0565b9050919050565b60606000610c776000610c1e565b90506000600967ffffffffffffffff811115610c9657610c95611832565b5b604051908082528060200260200182016040528015610cc957816020015b6060815260200190600190039081610cb45790505b5090508881600081518110610ce157610ce0611f82565b5b60200260200101819052508781600181518110610d0157610d00611f82565b5b60200260200101819052508681600281518110610d2157610d20611f82565b5b60200260200101819052508581600381518110610d4157610d40611f82565b5b60200260200101819052508481600481518110610d6157610d60611f82565b5b60200260200101819052508381600581518110610d8157610d80611f82565b5b60200260200101819052508181600681518110610da157610da0611f82565b5b60200260200101819052508181600781518110610dc157610dc0611f82565b5b60200260200101819052508181600881518110610de157610de0611f82565b5b6020026020010181905250610df5816111c6565b925050509695505050505050565b6060806038841015610eb657600167ffffffffffffffff811115610e2a57610e29611832565b5b6040519080825280601f01601f191660200182016040528015610e5c5781602001600182028036833780820191505090505b5090508284610e6b9190612640565b60f81b81600081518110610e8257610e81611f82565b5b60200101907effffffffffffffffffffffffffffffffffffffffffffffffffffffffffffff1916908160001a905350611045565b600080600190505b60008187610ecc91906126a4565b14610ef4578180610edc9061249d565b92505061010081610eed91906126d5565b9050610ebe565b600182610f019190612717565b67ffffffffffffffff811115610f1a57610f19611832565b5b6040519080825280601f01601f191660200182016040528015610f4c5781602001600182028036833780820191505090505b50925060378583610f5d9190612640565b610f679190612640565b60f81b83600081518110610f7e57610f7d611f82565b5b60200101907effffffffffffffffffffffffffffffffffffffffffffffffffffffffffffff1916908160001a905350600190505b818111611042576101008183610fc8919061274b565b610100610fd591906128b2565b87610fe091906126a4565b610fea91906128fd565b60f81b83828151811061100057610fff611f82565b5b60200101907effffffffffffffffffffffffffffffffffffffffffffffffffffffffffffff1916908160001a905350808061103a9061249d565b915050610fb2565b50505b8091505092915050565b6060600082604051602001611064919061294f565b604051602081830303815290604052905060005b60208110156110d857600060f81b82828151811061109957611098611f82565b5b602001015160f81c60f81b7effffffffffffffffffffffffffffffffffffffffffffffffffffffffffffff1916036110d8578080600101915050611078565b60008160206110e7919061274b565b67ffffffffffffffff811115611100576110ff611832565b5b6040519080825280601f01601f1916602001820160405280156111325781602001600182028036833780820191505090505b50905060005b81518110156111ba5783838061114d9061249d565b9450815181106111605761115f611f82565b5b602001015160f81c60f81b82828151811061117e5761117d611f82565b5b60200101907effffffffffffffffffffffffffffffffffffffffffffffffffffffffffffff1916908160001a9053508080600101915050611138565b50809350505050919050565b606060006111d38361120a565b90506111e1815160c0610e03565b816040516020016111f39291906125b9565b604051602081830303815290604052915050919050565b6060600082510361126a57600067ffffffffffffffff8111156112305761122f611832565b5b6040519080825280601f01601f1916602001820160405280156112625781602001600182028036833780820191505090505b50905061138b565b600080600090505b83518110156112b15783818151811061128e5761128d611f82565b5b602002602001015151826112a29190612717565b91508080600101915050611272565b60008267ffffffffffffffff8111156112cd576112cc611832565b5b6040519080825280601f01601f1916602001820160405280156112ff5781602001600182028036833780820191505090505b5090506000602082019050600092505b855183101561138357600086848151811061132d5761132c611f82565b5b60200260200101519050600060208201905061134b83828451611390565b87858151811061135e5761135d611f82565b5b602002602001015151836113729190612717565b92505050828060010193505061130f565b819450505050505b919050565b6000839050600083905060008390505b602081106113de57815183526020836113b99190612717565b92506020826113c89190612717565b91506020816113d7919061274b565b90506113a0565b60006001826020036101000a0390508019835116818551168181178652505050505050505050565b6000604051905090565b600080fd5b600080fd5b600080fd5b600080fd5b600080fd5b60008083601f84011261143f5761143e61141a565b5b8235905067ffffffffffffffff81111561145c5761145b61141f565b5b60208301915083600182028301111561147857611477611424565b5b9250929050565b6000806020838503121561149657611495611410565b5b600083013567ffffffffffffffff8111156114b4576114b3611415565b5b6114c085828601611429565b92509250509250929050565b600073ffffffffffffffffffffffffffffffffffffffff82169050919050565b60006114f7826114cc565b9050919050565b611507816114ec565b811461151257600080fd5b50565b600081359050611524816114fe565b92915050565b6000602082840312156115405761153f611410565b5b600061154e84828501611515565b91505092915050565b600081519050919050565b600082825260208201905092915050565b6000819050602082019050919050565b6000819050919050565b61159681611583565b82525050565b600081519050919050565b600082825260208201905092915050565b60005b838110156115d65780820151818401526020810190506115bb565b60008484015250505050565b6000601f19601f8301169050919050565b60006115fe8261159c565b61160881856115a7565b93506116188185602086016115b8565b611621816115e2565b840191505092915050565b60008115159050919050565b6116418161162c565b82525050565b600060808301600083015161165f600086018261158d565b506020830151611672602086018261158d565b506040830151848203604086015261168a82826115f3565b915050606083015161169f6060860182611638565b508091505092915050565b60006116b68383611647565b905092915050565b6000602082019050919050565b60006116d682611557565b6116e08185611562565b9350836020820285016116f285611573565b8060005b8581101561172e578484038952815161170f85826116aa565b945061171a836116be565b925060208a019950506001810190506116f6565b50829750879550505050505092915050565b6000602082019050818103600083015261175a81846116cb565b905092915050565b61176b81611583565b811461177657600080fd5b50565b60008135905061178881611762565b92915050565b6000602082840312156117a4576117a3611410565b5b60006117b284828501611779565b91505092915050565b600081519050919050565b600082825260208201905092915050565b60006117e2826117bb565b6117ec81856117c6565b93506117fc8185602086016115b8565b611805816115e2565b840191505092915050565b6000602082019050818103600083015261182a81846117d7565b905092915050565b7f4e487b7100000000000000000000000000000000000000000000000000000000600052604160045260246000fd5b61186a826115e2565b810181811067ffffffffffffffff8211171561188957611888611832565b5b80604052505050565b600061189c611406565b90506118a88282611861565b919050565b600067ffffffffffffffff8211156118c8576118c7611832565b5b602082029050602081019050919050565b600080fd5b600080fd5b600080fd5b600067ffffffffffffffff82111561190357611902611832565b5b61190c826115e2565b9050602081019050919050565b82818337600083830152505050565b600061193b611936846118e8565b611892565b905082815260208101848484011115611957576119566118e3565b5b611962848285611919565b509392505050565b600082601f83011261197f5761197e61141a565b5b813561198f848260208601611928565b91505092915050565b600060c082840312156119ae576119ad6118d9565b5b6119b860c0611892565b905060006119c884828501611515565b60008301525060206119dc84828501611515565b602083015250604082013567ffffffffffffffff811115611a00576119ff6118de565b5b611a0c8482850161196a565b6040830152506060611a2084828501611779565b6060830152506080611a3484828501611779565b60808301525060a0611a4884828501611779565b60a08301525092915050565b6000611a67611a62846118ad565b611892565b90508083825260208201905060208402830185811115611a8a57611a89611424565b5b835b81811015611ad157803567ffffffffffffffff811115611aaf57611aae61141a565b5b808601611abc8982611998565b85526020850194505050602081019050611a8c565b5050509392505050565b600082601f830112611af057611aef61141a565b5b8135611b00848260208601611a54565b91505092915050565b6000819050919050565b611b1c81611b09565b8114611b2757600080fd5b50565b600081359050611b3981611b13565b92915050565b600080600060608486031215611b5857611b57611410565b5b600084013567ffffffffffffffff811115611b7657611b75611415565b5b611b8286828701611adb565b9350506020611b9386828701611779565b9250506040611ba486828701611b2a565b9150509250925092565b600080600060408486031215611bc757611bc6611410565b5b6000611bd586828701611779565b935050602084013567ffffffffffffffff811115611bf657611bf5611415565b5b611c0286828701611429565b92509250509250925092565b611c17816114ec565b82525050565b6000602082019050611c326000830184611c0e565b92915050565b7f4e487b7100000000000000000000000000000000000000000000000000000000600052602260045260246000fd5b60006002820490506001821680611c7f57607f821691505b602082108103611c9257611c91611c38565b5b50919050565b60008190508160005260206000209050919050565b60006020601f8301049050919050565b600082821b905092915050565b600060088302611cfa7fffffffffffffffffffffffffffffffffffffffffffffffffffffffffffffffff82611cbd565b611d048683611cbd565b95508019841693508086168417925050509392505050565b6000819050919050565b6000611d41611d3c611d3784611583565b611d1c565b611583565b9050919050565b6000819050919050565b611d5b83611d26565b611d6f611d6782611d48565b848454611cca565b825550505050565b600090565b611d84611d77565b611d8f818484611d52565b505050565b5b81811015611db357611da8600082611d7c565b600181019050611d95565b5050565b601f821115611df857611dc981611c98565b611dd284611cad565b81016020851015611de1578190505b611df5611ded85611cad565b830182611d94565b50505b505050565b600082821c905092915050565b6000611e1b60001984600802611dfd565b1980831691505092915050565b6000611e348383611e0a565b9150826002028217905092915050565b611e4d8261159c565b67ffffffffffffffff811115611e6657611e65611832565b5b611e708254611c67565b611e7b828285611db7565b600060209050601f831160018114611eae5760008415611e9c578287015190505b611ea68582611e28565b865550611f0e565b601f198416611ebc86611c98565b60005b82811015611ee457848901518255600182019150602085019450602081019050611ebf565b86831015611f015784890151611efd601f891682611e0a565b8355505b6001600288020188555050505b505050505050565b7f756e617574686f72697a65640000000000000000000000000000000000000000600082015250565b6000611f4c600c836117c6565b9150611f5782611f16565b602082019050919050565b60006020820190508181036000830152611f7b81611f3f565b9050919050565b7f4e487b7100000000000000000000000000000000000000000000000000000000600052603260045260246000fd5b600082905092915050565b611fc68383611fb1565b67ffffffffffffffff811115611fdf57611fde611832565b5b611fe98254611c67565b611ff4828285611db7565b6000601f8311600181146120235760008415612011578287013590505b61201b8582611e28565b865550612083565b601f19841661203186611c98565b60005b8281101561205957848901358255600182019150602085019450602081019050612034565b868310156120765784890135612072601f891682611e0a565b8355505b6001600288020188555050505b50505050505050565b600060ff82169050919050565b6120a28161208c565b82525050565b6000819050919050565b60006120cd6120c86120c3846120a8565b611d1c565b611583565b9050919050565b6120dd816120b2565b82525050565b60006040820190506120f86000830185612099565b61210560208301846120d4565b9392505050565b60008151905061211b81611762565b92915050565b60008060006060848603121561213a57612139611410565b5b60006121488682870161210c565b93505060206121598682870161210c565b925050604061216a8682870161210c565b9150509250925092565b61217d81611b09565b82525050565b60006040820190506121986000830185612174565b6121a56020830184611c0e565b9392505050565b600067ffffffffffffffff8211156121c7576121c6611832565b5b602082029050602081019050919050565b600067ffffffffffffffff8211156121f3576121f2611832565b5b6121fc826115e2565b9050602081019050919050565b600061221c612217846121d8565b611892565b905082815260208101848484011115612238576122376118e3565b5b6122438482856115b8565b509392505050565b600082601f8301126122605761225f61141a565b5b8151612270848260208601612209565b91505092915050565b600061228c612287846121ac565b611892565b905080838252602082019050602084028301858111156122af576122ae611424565b5b835b818110156122f657805167ffffffffffffffff8111156122d4576122d361141a565b5b8086016122e1898261224b565b855260208501945050506020810190506122b1565b5050509392505050565b600082601f8301126123155761231461141a565b5b8151612325848260208601612279565b91505092915050565b60006020828403121561234457612343611410565b5b600082015167ffffffffffffffff81111561236257612361611415565b5b61236e84828501612300565b91505092915050565b61238081611b09565b82525050565b61238f8161208c565b82525050565b6040820160008201516123ab6000850182612377565b5060208201516123be6020850182612386565b50505050565b60006040820190506123d96000830184612395565b92915050565b6123e881611583565b82525050565b60006060820190506124036000830186612174565b6124106020830185611c0e565b61241d60408301846123df565b949350505050565b60006020828403121561243b5761243a611410565b5b600082015167ffffffffffffffff81111561245957612458611415565b5b6124658482850161224b565b91505092915050565b7f4e487b7100000000000000000000000000000000000000000000000000000000600052601160045260246000fd5b60006124a882611583565b91507fffffffffffffffffffffffffffffffffffffffffffffffffffffffffffffffff82036124da576124d961246e565b5b600182019050919050565b600060a0830160008301516124fd6000860182612377565b506020830151612510602086018261158d565b5060408301516125236040860182612377565b506060830151848203606086015261253b82826115f3565b91505060808301516125506080860182611638565b508091505092915050565b6000602082019050818103600083015261257581846124e5565b905092915050565b600081905092915050565b60006125938261159c565b61259d818561257d565b93506125ad8185602086016115b8565b80840191505092915050565b60006125c58285612588565b91506125d18284612588565b91508190509392505050565b60008160601b9050919050565b60006125f5826125dd565b9050919050565b6000612607826125ea565b9050919050565b61261f61261a826114ec565b6125fc565b82525050565b6000612631828461260e565b60148201915081905092915050565b600061264b8261208c565b91506126568361208c565b9250828201905060ff81111561266f5761266e61246e565b5b92915050565b7f4e487b7100000000000000000000000000000000000000000000000000000000600052601260045260246000fd5b60006126af82611583565b91506126ba83611583565b9250826126ca576126c9612675565b5b828204905092915050565b60006126e082611583565b91506126eb83611583565b92508282026126f981611583565b915082820484148315176127105761270f61246e565b5b5092915050565b600061272282611583565b915061272d83611583565b92508282019050808211156127455761274461246e565b5b92915050565b600061275682611583565b915061276183611583565b92508282039050818111156127795761277861246e565b5b92915050565b60008160011c9050919050565b6000808291508390505b60018511156127d6578086048111156127b2576127b161246e565b5b60018516156127c15780820291505b80810290506127cf8561277f565b9450612796565b94509492505050565b6000826127ef57600190506128ab565b816127fd57600090506128ab565b8160018114612813576002811461281d5761284c565b60019150506128ab565b60ff84111561282f5761282e61246e565b5b8360020a9150848211156128465761284561246e565b5b506128ab565b5060208310610133831016604e8410600b84101617156128815782820a90508381111561287c5761287b61246e565b5b6128ab565b61288e848484600161278c565b925090508184048111156128a5576128a461246e565b5b81810290505b9392505050565b60006128bd82611583565b91506128c883611583565b92506128f57fffffffffffffffffffffffffffffffffffffffffffffffffffffffffffffffff84846127df565b905092915050565b600061290882611583565b915061291383611583565b92508261292357612922612675565b5b828206905092915050565b6000819050919050565b61294961294482611583565b61292e565b82525050565b600061295b8284612938565b6020820191508190509291505056fea2646970667358221220c14247ca06b3904045152974610aafb217c99a2839e04a72aad5c9961fcee92b64736f6c63430008180033",
          "opcodes": "PUSH1 0xC0 PUSH1 0x40 MSTORE CALLVALUE DUP1 ISZERO PUSH3 0x11 JUMPI PUSH1 0x0 DUP1 REVERT JUMPDEST POP PUSH1 0x40 MLOAD PUSH3 0x2B4A CODESIZE SUB DUP1 PUSH3 0x2B4A DUP4 CODECOPY DUP2 DUP2 ADD PUSH1 0x40 MSTORE DUP2 ADD SWAP1 PUSH3 0x37 SWAP2 SWAP1 PUSH3 0x113 JUMP JUMPDEST DUP1 DUP1 PUSH20 0xFFFFFFFFFFFFFFFFFFFFFFFFFFFFFFFFFFFFFFFF AND PUSH1 0x80 DUP2 PUSH20 0xFFFFFFFFFFFFFFFFFFFFFFFFFFFFFFFFFFFFFFFF AND DUP2 MSTORE POP POP POP DUP2 PUSH20 0xFFFFFFFFFFFFFFFFFFFFFFFFFFFFFFFFFFFFFFFF AND PUSH1 0xA0 DUP2 PUSH20 0xFFFFFFFFFFFFFFFFFFFFFFFFFFFFFFFFFFFFFFFF AND DUP2 MSTORE POP POP POP POP PUSH3 0x15A JUMP JUMPDEST PUSH1 0x0 DUP1 REVERT JUMPDEST PUSH1 0x0 PUSH20 0xFFFFFFFFFFFFFFFFFFFFFFFFFFFFFFFFFFFFFFFF DUP3 AND SWAP1 POP SWAP2 SWAP1 POP JUMP JUMPDEST PUSH1 0x0 PUSH3 0xDB DUP3 PUSH3 0xAE JUMP JUMPDEST SWAP1 POP SWAP2 SWAP1 POP JUMP JUMPDEST PUSH3 0xED DUP2 PUSH3 0xCE JUMP JUMPDEST DUP2 EQ PUSH3 0xF9 JUMPI PUSH1 0x0 DUP1 REVERT JUMPDEST POP JUMP JUMPDEST PUSH1 0x0 DUP2 MLOAD SWAP1 POP PUSH3 0x10D DUP2 PUSH3 0xE2 JUMP JUMPDEST SWAP3 SWAP2 POP POP JUMP JUMPDEST PUSH1 0x0 DUP1 PUSH1 0x40 DUP4 DUP6 SUB SLT ISZERO PUSH3 0x12D JUMPI PUSH3 0x12C PUSH3 0xA9 JUMP JUMPDEST JUMPDEST PUSH1 0x0 PUSH3 0x13D DUP6 DUP3 DUP7 ADD PUSH3 0xFC JUMP JUMPDEST SWAP3 POP POP PUSH1 0x20 PUSH3 0x150 DUP6 DUP3 DUP7 ADD PUSH3 0xFC JUMP JUMPDEST SWAP2 POP POP SWAP3 POP SWAP3 SWAP1 POP JUMP JUMPDEST PUSH1 0x80 MLOAD PUSH1 0xA0 MLOAD PUSH2 0x29A0 PUSH3 0x1AA PUSH1 0x0 CODECOPY PUSH1 0x0 DUP2 DUP2 PUSH2 0x470 ADD MSTORE PUSH2 0x5B6 ADD MSTORE PUSH1 0x0 DUP2 DUP2 PUSH2 0x5DD ADD MSTORE DUP2 DUP2 PUSH2 0x67F ADD MSTORE DUP2 DUP2 PUSH2 0x786 ADD MSTORE DUP2 DUP2 PUSH2 0x819 ADD MSTORE DUP2 DUP2 PUSH2 0xA3E ADD MSTORE PUSH2 0xB0D ADD MSTORE PUSH2 0x29A0 PUSH1 0x0 RETURN INVALID PUSH1 0x80 PUSH1 0x40 MSTORE PUSH1 0x4 CALLDATASIZE LT PUSH2 0x59 JUMPI PUSH1 0x0 CALLDATALOAD PUSH1 0xE0 SHR DUP1 PUSH4 0x20D2A585 EQ PUSH2 0x65 JUMPI DUP1 PUSH4 0x53CAD60F EQ PUSH2 0x8E JUMPI DUP1 PUSH4 0x6CCF2FA7 EQ PUSH2 0xCB JUMPI DUP1 PUSH4 0x71DC811F EQ PUSH2 0x108 JUMPI DUP1 PUSH4 0xF786FDF6 EQ PUSH2 0x131 JUMPI DUP1 PUSH4 0xFB1A746F EQ PUSH2 0x15A JUMPI PUSH2 0x60 JUMP JUMPDEST CALLDATASIZE PUSH2 0x60 JUMPI STOP JUMPDEST PUSH1 0x0 DUP1 REVERT JUMPDEST CALLVALUE DUP1 ISZERO PUSH2 0x71 JUMPI PUSH1 0x0 DUP1 REVERT JUMPDEST POP PUSH2 0x8C PUSH1 0x4 DUP1 CALLDATASIZE SUB DUP2 ADD SWAP1 PUSH2 0x87 SWAP2 SWAP1 PUSH2 0x147F JUMP JUMPDEST PUSH2 0x185 JUMP JUMPDEST STOP JUMPDEST CALLVALUE DUP1 ISZERO PUSH2 0x9A JUMPI PUSH1 0x0 DUP1 REVERT JUMPDEST POP PUSH2 0xB5 PUSH1 0x4 DUP1 CALLDATASIZE SUB DUP2 ADD SWAP1 PUSH2 0xB0 SWAP2 SWAP1 PUSH2 0x152A JUMP JUMPDEST PUSH2 0x2FE JUMP JUMPDEST PUSH1 0x40 MLOAD PUSH2 0xC2 SWAP2 SWAP1 PUSH2 0x1740 JUMP JUMPDEST PUSH1 0x40 MLOAD DUP1 SWAP2 SUB SWAP1 RETURN JUMPDEST CALLVALUE DUP1 ISZERO PUSH2 0xD7 JUMPI PUSH1 0x0 DUP1 REVERT JUMPDEST POP PUSH2 0xF2 PUSH1 0x4 DUP1 CALLDATASIZE SUB DUP2 ADD SWAP1 PUSH2 0xED SWAP2 SWAP1 PUSH2 0x178E JUMP JUMPDEST PUSH2 0x45C JUMP JUMPDEST PUSH1 0x40 MLOAD PUSH2 0xFF SWAP2 SWAP1 PUSH2 0x1810 JUMP JUMPDEST PUSH1 0x40 MLOAD DUP1 SWAP2 SUB SWAP1 RETURN JUMPDEST CALLVALUE DUP1 ISZERO PUSH2 0x114 JUMPI PUSH1 0x0 DUP1 REVERT JUMPDEST POP PUSH2 0x12F PUSH1 0x4 DUP1 CALLDATASIZE SUB DUP2 ADD SWAP1 PUSH2 0x12A SWAP2 SWAP1 PUSH2 0x1B3F JUMP JUMPDEST PUSH2 0x46E JUMP JUMPDEST STOP JUMPDEST CALLVALUE DUP1 ISZERO PUSH2 0x13D JUMPI PUSH1 0x0 DUP1 REVERT JUMPDEST POP PUSH2 0x158 PUSH1 0x4 DUP1 CALLDATASIZE SUB DUP2 ADD SWAP1 PUSH2 0x153 SWAP2 SWAP1 PUSH2 0x1BAE JUMP JUMPDEST PUSH2 0x53E JUMP JUMPDEST STOP JUMPDEST CALLVALUE DUP1 ISZERO PUSH2 0x166 JUMPI PUSH1 0x0 DUP1 REVERT JUMPDEST POP PUSH2 0x16F PUSH2 0x5B4 JUMP JUMPDEST PUSH1 0x40 MLOAD PUSH2 0x17C SWAP2 SWAP1 PUSH2 0x1C1D JUMP JUMPDEST PUSH1 0x40 MLOAD DUP1 SWAP2 SUB SWAP1 RETURN JUMPDEST PUSH1 0x0 PUSH2 0x18F PUSH2 0x5D8 JUMP JUMPDEST SWAP1 POP PUSH1 0x0 DUP1 PUSH1 0x0 CALLER PUSH20 0xFFFFFFFFFFFFFFFFFFFFFFFFFFFFFFFFFFFFFFFF AND PUSH20 0xFFFFFFFFFFFFFFFFFFFFFFFFFFFFFFFFFFFFFFFF AND DUP2 MSTORE PUSH1 0x20 ADD SWAP1 DUP2 MSTORE PUSH1 0x20 ADD PUSH1 0x0 KECCAK256 DUP1 SLOAD SWAP1 POP SWAP1 POP PUSH1 0x0 PUSH1 0x40 MLOAD DUP1 PUSH1 0x80 ADD PUSH1 0x40 MSTORE DUP1 DUP4 DUP2 MSTORE PUSH1 0x20 ADD DUP5 DUP2 MSTORE PUSH1 0x20 ADD DUP7 DUP7 DUP1 DUP1 PUSH1 0x1F ADD PUSH1 0x20 DUP1 SWAP2 DIV MUL PUSH1 0x20 ADD PUSH1 0x40 MLOAD SWAP1 DUP2 ADD PUSH1 0x40 MSTORE DUP1 SWAP4 SWAP3 SWAP2 SWAP1 DUP2 DUP2 MSTORE PUSH1 0x20 ADD DUP4 DUP4 DUP1 DUP3 DUP5 CALLDATACOPY PUSH1 0x0 DUP2 DUP5 ADD MSTORE PUSH1 0x1F NOT PUSH1 0x1F DUP3 ADD AND SWAP1 POP DUP1 DUP4 ADD SWAP3 POP POP POP POP POP POP POP DUP2 MSTORE PUSH1 0x20 ADD PUSH1 0x1 ISZERO ISZERO DUP2 MSTORE POP SWAP1 POP PUSH1 0x0 DUP1 CALLER PUSH20 0xFFFFFFFFFFFFFFFFFFFFFFFFFFFFFFFFFFFFFFFF AND PUSH20 0xFFFFFFFFFFFFFFFFFFFFFFFFFFFFFFFFFFFFFFFF AND DUP2 MSTORE PUSH1 0x20 ADD SWAP1 DUP2 MSTORE PUSH1 0x20 ADD PUSH1 0x0 KECCAK256 DUP2 SWAP1 DUP1 PUSH1 0x1 DUP2 SLOAD ADD DUP1 DUP3 SSTORE DUP1 SWAP2 POP POP PUSH1 0x1 SWAP1 SUB SWAP1 PUSH1 0x0 MSTORE PUSH1 0x20 PUSH1 0x0 KECCAK256 SWAP1 PUSH1 0x4 MUL ADD PUSH1 0x0 SWAP1 SWAP2 SWAP1 SWAP2 SWAP1 SWAP2 POP PUSH1 0x0 DUP3 ADD MLOAD DUP2 PUSH1 0x0 ADD SSTORE PUSH1 0x20 DUP3 ADD MLOAD DUP2 PUSH1 0x1 ADD SSTORE PUSH1 0x40 DUP3 ADD MLOAD DUP2 PUSH1 0x2 ADD SWAP1 DUP2 PUSH2 0x2D4 SWAP2 SWAP1 PUSH2 0x1E44 JUMP JUMPDEST POP PUSH1 0x60 DUP3 ADD MLOAD DUP2 PUSH1 0x3 ADD PUSH1 0x0 PUSH2 0x100 EXP DUP2 SLOAD DUP2 PUSH1 0xFF MUL NOT AND SWAP1 DUP4 ISZERO ISZERO MUL OR SWAP1 SSTORE POP POP POP POP POP POP POP POP JUMP JUMPDEST PUSH1 0x60 PUSH1 0x0 DUP1 DUP4 PUSH20 0xFFFFFFFFFFFFFFFFFFFFFFFFFFFFFFFFFFFFFFFF AND PUSH20 0xFFFFFFFFFFFFFFFFFFFFFFFFFFFFFFFFFFFFFFFF AND DUP2 MSTORE PUSH1 0x20 ADD SWAP1 DUP2 MSTORE PUSH1 0x20 ADD PUSH1 0x0 KECCAK256 DUP1 SLOAD DUP1 PUSH1 0x20 MUL PUSH1 0x20 ADD PUSH1 0x40 MLOAD SWAP1 DUP2 ADD PUSH1 0x40 MSTORE DUP1 SWAP3 SWAP2 SWAP1 DUP2 DUP2 MSTORE PUSH1 0x20 ADD PUSH1 0x0 SWAP1 JUMPDEST DUP3 DUP3 LT ISZERO PUSH2 0x451 JUMPI DUP4 DUP3 SWAP1 PUSH1 0x0 MSTORE PUSH1 0x20 PUSH1 0x0 KECCAK256 SWAP1 PUSH1 0x4 MUL ADD PUSH1 0x40 MLOAD DUP1 PUSH1 0x80 ADD PUSH1 0x40 MSTORE SWAP1 DUP2 PUSH1 0x0 DUP3 ADD SLOAD DUP2 MSTORE PUSH1 0x20 ADD PUSH1 0x1 DUP3 ADD SLOAD DUP2 MSTORE PUSH1 0x20 ADD PUSH1 0x2 DUP3 ADD DUP1 SLOAD PUSH2 0x3A5 SWAP1 PUSH2 0x1C67 JUMP JUMPDEST DUP1 PUSH1 0x1F ADD PUSH1 0x20 DUP1 SWAP2 DIV MUL PUSH1 0x20 ADD PUSH1 0x40 MLOAD SWAP1 DUP2 ADD PUSH1 0x40 MSTORE DUP1 SWAP3 SWAP2 SWAP1 DUP2 DUP2 MSTORE PUSH1 0x20 ADD DUP3 DUP1 SLOAD PUSH2 0x3D1 SWAP1 PUSH2 0x1C67 JUMP JUMPDEST DUP1 ISZERO PUSH2 0x41E JUMPI DUP1 PUSH1 0x1F LT PUSH2 0x3F3 JUMPI PUSH2 0x100 DUP1 DUP4 SLOAD DIV MUL DUP4 MSTORE SWAP2 PUSH1 0x20 ADD SWAP2 PUSH2 0x41E JUMP JUMPDEST DUP3 ADD SWAP2 SWAP1 PUSH1 0x0 MSTORE PUSH1 0x20 PUSH1 0x0 KECCAK256 SWAP1 JUMPDEST DUP2 SLOAD DUP2 MSTORE SWAP1 PUSH1 0x1 ADD SWAP1 PUSH1 0x20 ADD DUP1 DUP4 GT PUSH2 0x401 JUMPI DUP3 SWAP1 SUB PUSH1 0x1F AND DUP3 ADD SWAP2 JUMPDEST POP POP POP POP POP DUP2 MSTORE PUSH1 0x20 ADD PUSH1 0x3 DUP3 ADD PUSH1 0x0 SWAP1 SLOAD SWAP1 PUSH2 0x100 EXP SWAP1 DIV PUSH1 0xFF AND ISZERO ISZERO ISZERO ISZERO DUP2 MSTORE POP POP DUP2 MSTORE PUSH1 0x20 ADD SWAP1 PUSH1 0x1 ADD SWAP1 PUSH2 0x35E JUMP JUMPDEST POP POP POP POP SWAP1 POP SWAP2 SWAP1 POP JUMP JUMPDEST PUSH1 0x60 PUSH2 0x467 DUP3 PUSH2 0x815 JUMP JUMPDEST SWAP1 POP SWAP2 SWAP1 POP JUMP JUMPDEST PUSH32 0x0 PUSH20 0xFFFFFFFFFFFFFFFFFFFFFFFFFFFFFFFFFFFFFFFF AND CALLER PUSH20 0xFFFFFFFFFFFFFFFFFFFFFFFFFFFFFFFFFFFFFFFF AND EQ PUSH2 0x4FC JUMPI PUSH1 0x40 MLOAD PUSH32 0x8C379A000000000000000000000000000000000000000000000000000000000 DUP2 MSTORE PUSH1 0x4 ADD PUSH2 0x4F3 SWAP1 PUSH2 0x1F62 JUMP JUMPDEST PUSH1 0x40 MLOAD DUP1 SWAP2 SUB SWAP1 REVERT JUMPDEST PUSH1 0x0 JUMPDEST DUP4 MLOAD DUP2 LT ISZERO PUSH2 0x538 JUMPI PUSH2 0x52D DUP5 DUP3 DUP2 MLOAD DUP2 LT PUSH2 0x51E JUMPI PUSH2 0x51D PUSH2 0x1F82 JUMP JUMPDEST JUMPDEST PUSH1 0x20 MUL PUSH1 0x20 ADD ADD MLOAD DUP5 DUP5 PUSH2 0x8E4 JUMP JUMPDEST DUP1 PUSH1 0x1 ADD SWAP1 POP PUSH2 0x4FF JUMP JUMPDEST POP POP POP POP JUMP JUMPDEST DUP2 DUP2 PUSH1 0x0 DUP1 CALLER PUSH20 0xFFFFFFFFFFFFFFFFFFFFFFFFFFFFFFFFFFFFFFFF AND PUSH20 0xFFFFFFFFFFFFFFFFFFFFFFFFFFFFFFFFFFFFFFFF AND DUP2 MSTORE PUSH1 0x20 ADD SWAP1 DUP2 MSTORE PUSH1 0x20 ADD PUSH1 0x0 KECCAK256 DUP6 DUP2 SLOAD DUP2 LT PUSH2 0x590 JUMPI PUSH2 0x58F PUSH2 0x1F82 JUMP JUMPDEST JUMPDEST SWAP1 PUSH1 0x0 MSTORE PUSH1 0x20 PUSH1 0x0 KECCAK256 SWAP1 PUSH1 0x4 MUL ADD PUSH1 0x2 ADD SWAP2 DUP3 PUSH2 0x5AE SWAP3 SWAP2 SWAP1 PUSH2 0x1FBC JUMP JUMPDEST POP POP POP POP JUMP JUMPDEST PUSH32 0x0 DUP2 JUMP JUMPDEST PUSH1 0x0 DUP1 PUSH32 0x0 PUSH20 0xFFFFFFFFFFFFFFFFFFFFFFFFFFFFFFFFFFFFFFFF AND PUSH4 0xA213CBAA PUSH1 0x1 PUSH1 0x0 PUSH1 0x40 MLOAD DUP4 PUSH4 0xFFFFFFFF AND PUSH1 0xE0 SHL DUP2 MSTORE PUSH1 0x4 ADD PUSH2 0x638 SWAP3 SWAP2 SWAP1 PUSH2 0x20E3 JUMP JUMPDEST PUSH1 0x60 PUSH1 0x40 MLOAD DUP1 DUP4 SUB DUP2 DUP7 GAS STATICCALL ISZERO DUP1 ISZERO PUSH2 0x655 JUMPI RETURNDATASIZE PUSH1 0x0 DUP1 RETURNDATACOPY RETURNDATASIZE PUSH1 0x0 REVERT JUMPDEST POP POP POP POP PUSH1 0x40 MLOAD RETURNDATASIZE PUSH1 0x1F NOT PUSH1 0x1F DUP3 ADD AND DUP3 ADD DUP1 PUSH1 0x40 MSTORE POP DUP2 ADD SWAP1 PUSH2 0x679 SWAP2 SWAP1 PUSH2 0x2121 JUMP JUMPDEST SWAP3 POP POP POP PUSH32 0x0 PUSH20 0xFFFFFFFFFFFFFFFFFFFFFFFFFFFFFFFFFFFFFFFF AND PUSH4 0xA11A572D PUSH32 0xE146C2986893C43AF5FF396310220BE92058FB9F4CE76B929B80EF0D5307100A PUSH1 0x0 SHL ADDRESS PUSH1 0x40 MLOAD DUP4 PUSH4 0xFFFFFFFF AND PUSH1 0xE0 SHL DUP2 MSTORE PUSH1 0x4 ADD PUSH2 0x6FB SWAP3 SWAP2 SWAP1 PUSH2 0x2183 JUMP JUMPDEST PUSH1 0x0 PUSH1 0x40 MLOAD DUP1 DUP4 SUB DUP2 DUP7 GAS STATICCALL ISZERO DUP1 ISZERO PUSH2 0x718 JUMPI RETURNDATASIZE PUSH1 0x0 DUP1 RETURNDATACOPY RETURNDATASIZE PUSH1 0x0 REVERT JUMPDEST POP POP POP POP PUSH1 0x40 MLOAD RETURNDATASIZE PUSH1 0x0 DUP3 RETURNDATACOPY RETURNDATASIZE PUSH1 0x1F NOT PUSH1 0x1F DUP3 ADD AND DUP3 ADD DUP1 PUSH1 0x40 MSTORE POP DUP2 ADD SWAP1 PUSH2 0x741 SWAP2 SWAP1 PUSH2 0x232E JUMP JUMPDEST MLOAD SWAP2 POP PUSH1 0x0 PUSH1 0x40 MLOAD DUP1 PUSH1 0x40 ADD PUSH1 0x40 MSTORE DUP1 PUSH32 0xE146C2986893C43AF5FF396310220BE92058FB9F4CE76B929B80EF0D5307100A PUSH1 0x0 SHL DUP2 MSTORE PUSH1 0x20 ADD PUSH1 0x1 PUSH1 0xFF AND DUP2 MSTORE POP SWAP1 POP PUSH32 0x0 PUSH20 0xFFFFFFFFFFFFFFFFFFFFFFFFFFFFFFFFFFFFFFFF AND PUSH4 0x5C706C9B DUP4 DUP4 PUSH1 0x40 MLOAD DUP4 PUSH4 0xFFFFFFFF AND PUSH1 0xE0 SHL DUP2 MSTORE PUSH1 0x4 ADD PUSH2 0x7DE SWAP2 SWAP1 PUSH2 0x23C4 JUMP JUMPDEST PUSH1 0x0 PUSH1 0x40 MLOAD DUP1 DUP4 SUB DUP2 DUP6 DUP9 DUP1 EXTCODESIZE ISZERO DUP1 ISZERO PUSH2 0x7F7 JUMPI PUSH1 0x0 DUP1 REVERT JUMPDEST POP GAS CALL ISZERO DUP1 ISZERO PUSH2 0x80B JUMPI RETURNDATASIZE PUSH1 0x0 DUP1 RETURNDATACOPY RETURNDATASIZE PUSH1 0x0 REVERT JUMPDEST POP POP POP POP POP POP POP SWAP1 JUMP JUMPDEST PUSH1 0x60 PUSH32 0x0 PUSH20 0xFFFFFFFFFFFFFFFFFFFFFFFFFFFFFFFFFFFFFFFF AND PUSH4 0x187E5818 PUSH32 0xE146C2986893C43AF5FF396310220BE92058FB9F4CE76B929B80EF0D5307100A PUSH1 0x0 SHL ADDRESS DUP6 PUSH1 0x40 MLOAD DUP5 PUSH4 0xFFFFFFFF AND PUSH1 0xE0 SHL DUP2 MSTORE PUSH1 0x4 ADD PUSH2 0x897 SWAP4 SWAP3 SWAP2 SWAP1 PUSH2 0x23EE JUMP JUMPDEST PUSH1 0x0 PUSH1 0x40 MLOAD DUP1 DUP4 SUB DUP2 DUP7 GAS STATICCALL ISZERO DUP1 ISZERO PUSH2 0x8B4 JUMPI RETURNDATASIZE PUSH1 0x0 DUP1 RETURNDATACOPY RETURNDATASIZE PUSH1 0x0 REVERT JUMPDEST POP POP POP POP PUSH1 0x40 MLOAD RETURNDATASIZE PUSH1 0x0 DUP3 RETURNDATACOPY RETURNDATASIZE PUSH1 0x1F NOT PUSH1 0x1F DUP3 ADD AND DUP3 ADD DUP1 PUSH1 0x40 MSTORE POP DUP2 ADD SWAP1 PUSH2 0x8DD SWAP2 SWAP1 PUSH2 0x2425 JUMP JUMPDEST SWAP1 POP SWAP2 SWAP1 POP JUMP JUMPDEST PUSH1 0x0 PUSH1 0x1 PUSH1 0x0 DUP5 DUP2 MSTORE PUSH1 0x20 ADD SWAP1 DUP2 MSTORE PUSH1 0x20 ADD PUSH1 0x0 KECCAK256 PUSH1 0x0 DUP4 DUP2 MSTORE PUSH1 0x20 ADD SWAP1 DUP2 MSTORE PUSH1 0x20 ADD PUSH1 0x0 KECCAK256 SLOAD SWAP1 POP PUSH1 0x0 PUSH2 0x91C DUP6 PUSH1 0x40 ADD MLOAD PUSH2 0x9B0 JUMP JUMPDEST SWAP1 POP PUSH1 0x0 PUSH2 0x93E DUP4 DUP8 PUSH1 0x60 ADD MLOAD DUP9 PUSH1 0x80 ADD MLOAD DUP10 PUSH1 0x20 ADD MLOAD DUP11 PUSH1 0xA0 ADD MLOAD DUP8 PUSH2 0x9C2 JUMP JUMPDEST SWAP1 POP PUSH2 0x971 PUSH32 0xE146C2986893C43AF5FF396310220BE92058FB9F4CE76B929B80EF0D5307100A PUSH1 0x0 SHL DUP7 DUP7 DUP5 PUSH1 0x1 PUSH2 0xA3A JUMP JUMPDEST DUP3 DUP1 PUSH2 0x97C SWAP1 PUSH2 0x249D JUMP JUMPDEST SWAP4 POP POP DUP3 PUSH1 0x1 PUSH1 0x0 DUP8 DUP2 MSTORE PUSH1 0x20 ADD SWAP1 DUP2 MSTORE PUSH1 0x20 ADD PUSH1 0x0 KECCAK256 PUSH1 0x0 DUP7 DUP2 MSTORE PUSH1 0x20 ADD SWAP1 DUP2 MSTORE PUSH1 0x20 ADD PUSH1 0x0 KECCAK256 DUP2 SWAP1 SSTORE POP POP POP POP POP POP POP JUMP JUMPDEST PUSH1 0x60 PUSH2 0x9BB DUP3 PUSH2 0xBA0 JUMP JUMPDEST SWAP1 POP SWAP2 SWAP1 POP JUMP JUMPDEST PUSH1 0x60 PUSH1 0x0 PUSH2 0x9CF DUP9 PUSH2 0xC1E JUMP JUMPDEST SWAP1 POP PUSH1 0x0 PUSH2 0x9DC DUP9 PUSH2 0xC1E JUMP JUMPDEST SWAP1 POP PUSH1 0x0 PUSH2 0x9E9 DUP9 PUSH2 0xC1E JUMP JUMPDEST SWAP1 POP PUSH1 0x0 PUSH2 0xA0C DUP9 PUSH20 0xFFFFFFFFFFFFFFFFFFFFFFFFFFFFFFFFFFFFFFFF AND PUSH2 0xC38 JUMP JUMPDEST SWAP1 POP PUSH1 0x0 PUSH2 0xA19 DUP9 PUSH2 0xC1E JUMP JUMPDEST SWAP1 POP PUSH2 0xA29 DUP6 DUP6 DUP6 DUP6 DUP6 DUP13 PUSH2 0xC69 JUMP JUMPDEST SWAP6 POP POP POP POP POP POP SWAP7 SWAP6 POP POP POP POP POP POP JUMP JUMPDEST PUSH1 0x0 PUSH32 0x0 PUSH20 0xFFFFFFFFFFFFFFFFFFFFFFFFFFFFFFFFFFFFFFFF AND PUSH4 0xA213CBAA PUSH1 0x1 PUSH1 0x0 PUSH1 0x40 MLOAD DUP4 PUSH4 0xFFFFFFFF AND PUSH1 0xE0 SHL DUP2 MSTORE PUSH1 0x4 ADD PUSH2 0xA99 SWAP3 SWAP2 SWAP1 PUSH2 0x20E3 JUMP JUMPDEST PUSH1 0x60 PUSH1 0x40 MLOAD DUP1 DUP4 SUB DUP2 DUP7 GAS STATICCALL ISZERO DUP1 ISZERO PUSH2 0xAB6 JUMPI RETURNDATASIZE PUSH1 0x0 DUP1 RETURNDATACOPY RETURNDATASIZE PUSH1 0x0 REVERT JUMPDEST POP POP POP POP PUSH1 0x40 MLOAD RETURNDATASIZE PUSH1 0x1F NOT PUSH1 0x1F DUP3 ADD AND DUP3 ADD DUP1 PUSH1 0x40 MSTORE POP DUP2 ADD SWAP1 PUSH2 0xADA SWAP2 SWAP1 PUSH2 0x2121 JUMP JUMPDEST SWAP3 POP POP POP PUSH1 0x0 PUSH1 0x40 MLOAD DUP1 PUSH1 0xA0 ADD PUSH1 0x40 MSTORE DUP1 DUP9 DUP2 MSTORE PUSH1 0x20 ADD DUP8 DUP2 MSTORE PUSH1 0x20 ADD DUP7 DUP2 MSTORE PUSH1 0x20 ADD DUP6 DUP2 MSTORE PUSH1 0x20 ADD DUP5 ISZERO ISZERO DUP2 MSTORE POP SWAP1 POP PUSH32 0x0 PUSH20 0xFFFFFFFFFFFFFFFFFFFFFFFFFFFFFFFFFFFFFFFF AND PUSH4 0x93F874C4 DUP4 DUP4 PUSH1 0x40 MLOAD DUP4 PUSH4 0xFFFFFFFF AND PUSH1 0xE0 SHL DUP2 MSTORE PUSH1 0x4 ADD PUSH2 0xB65 SWAP2 SWAP1 PUSH2 0x255B JUMP JUMPDEST PUSH1 0x0 PUSH1 0x40 MLOAD DUP1 DUP4 SUB DUP2 DUP6 DUP9 DUP1 EXTCODESIZE ISZERO DUP1 ISZERO PUSH2 0xB7E JUMPI PUSH1 0x0 DUP1 REVERT JUMPDEST POP GAS CALL ISZERO DUP1 ISZERO PUSH2 0xB92 JUMPI RETURNDATASIZE PUSH1 0x0 DUP1 RETURNDATACOPY RETURNDATASIZE PUSH1 0x0 REVERT JUMPDEST POP POP POP POP POP POP POP POP POP POP POP POP JUMP JUMPDEST PUSH1 0x60 DUP1 PUSH1 0x1 DUP4 MLOAD EQ DUP1 ISZERO PUSH2 0xBD8 JUMPI POP PUSH1 0x80 DUP4 PUSH1 0x0 DUP2 MLOAD DUP2 LT PUSH2 0xBC5 JUMPI PUSH2 0xBC4 PUSH2 0x1F82 JUMP JUMPDEST JUMPDEST PUSH1 0x20 ADD ADD MLOAD PUSH1 0xF8 SHR PUSH1 0xF8 SHL PUSH1 0xF8 SHR PUSH1 0xFF AND LT JUMPDEST ISZERO PUSH2 0xBE5 JUMPI DUP3 SWAP1 POP PUSH2 0xC15 JUMP JUMPDEST PUSH2 0xBF1 DUP4 MLOAD PUSH1 0x80 PUSH2 0xE03 JUMP JUMPDEST DUP4 PUSH1 0x40 MLOAD PUSH1 0x20 ADD PUSH2 0xC03 SWAP3 SWAP2 SWAP1 PUSH2 0x25B9 JUMP JUMPDEST PUSH1 0x40 MLOAD PUSH1 0x20 DUP2 DUP4 SUB SUB DUP2 MSTORE SWAP1 PUSH1 0x40 MSTORE SWAP1 POP JUMPDEST DUP1 SWAP2 POP POP SWAP2 SWAP1 POP JUMP JUMPDEST PUSH1 0x60 PUSH2 0xC31 PUSH2 0xC2C DUP4 PUSH2 0x104F JUMP JUMPDEST PUSH2 0xBA0 JUMP JUMPDEST SWAP1 POP SWAP2 SWAP1 POP JUMP JUMPDEST PUSH1 0x60 PUSH2 0xC62 DUP3 PUSH1 0x40 MLOAD PUSH1 0x20 ADD PUSH2 0xC4E SWAP2 SWAP1 PUSH2 0x2625 JUMP JUMPDEST PUSH1 0x40 MLOAD PUSH1 0x20 DUP2 DUP4 SUB SUB DUP2 MSTORE SWAP1 PUSH1 0x40 MSTORE PUSH2 0xBA0 JUMP JUMPDEST SWAP1 POP SWAP2 SWAP1 POP JUMP JUMPDEST PUSH1 0x60 PUSH1 0x0 PUSH2 0xC77 PUSH1 0x0 PUSH2 0xC1E JUMP JUMPDEST SWAP1 POP PUSH1 0x0 PUSH1 0x9 PUSH8 0xFFFFFFFFFFFFFFFF DUP2 GT ISZERO PUSH2 0xC96 JUMPI PUSH2 0xC95 PUSH2 0x1832 JUMP JUMPDEST JUMPDEST PUSH1 0x40 MLOAD SWAP1 DUP1 DUP3 MSTORE DUP1 PUSH1 0x20 MUL PUSH1 0x20 ADD DUP3 ADD PUSH1 0x40 MSTORE DUP1 ISZERO PUSH2 0xCC9 JUMPI DUP2 PUSH1 0x20 ADD JUMPDEST PUSH1 0x60 DUP2 MSTORE PUSH1 0x20 ADD SWAP1 PUSH1 0x1 SWAP1 SUB SWAP1 DUP2 PUSH2 0xCB4 JUMPI SWAP1 POP JUMPDEST POP SWAP1 POP DUP9 DUP2 PUSH1 0x0 DUP2 MLOAD DUP2 LT PUSH2 0xCE1 JUMPI PUSH2 0xCE0 PUSH2 0x1F82 JUMP JUMPDEST JUMPDEST PUSH1 0x20 MUL PUSH1 0x20 ADD ADD DUP2 SWAP1 MSTORE POP DUP8 DUP2 PUSH1 0x1 DUP2 MLOAD DUP2 LT PUSH2 0xD01 JUMPI PUSH2 0xD00 PUSH2 0x1F82 JUMP JUMPDEST JUMPDEST PUSH1 0x20 MUL PUSH1 0x20 ADD ADD DUP2 SWAP1 MSTORE POP DUP7 DUP2 PUSH1 0x2 DUP2 MLOAD DUP2 LT PUSH2 0xD21 JUMPI PUSH2 0xD20 PUSH2 0x1F82 JUMP JUMPDEST JUMPDEST PUSH1 0x20 MUL PUSH1 0x20 ADD ADD DUP2 SWAP1 MSTORE POP DUP6 DUP2 PUSH1 0x3 DUP2 MLOAD DUP2 LT PUSH2 0xD41 JUMPI PUSH2 0xD40 PUSH2 0x1F82 JUMP JUMPDEST JUMPDEST PUSH1 0x20 MUL PUSH1 0x20 ADD ADD DUP2 SWAP1 MSTORE POP DUP5 DUP2 PUSH1 0x4 DUP2 MLOAD DUP2 LT PUSH2 0xD61 JUMPI PUSH2 0xD60 PUSH2 0x1F82 JUMP JUMPDEST JUMPDEST PUSH1 0x20 MUL PUSH1 0x20 ADD ADD DUP2 SWAP1 MSTORE POP DUP4 DUP2 PUSH1 0x5 DUP2 MLOAD DUP2 LT PUSH2 0xD81 JUMPI PUSH2 0xD80 PUSH2 0x1F82 JUMP JUMPDEST JUMPDEST PUSH1 0x20 MUL PUSH1 0x20 ADD ADD DUP2 SWAP1 MSTORE POP DUP2 DUP2 PUSH1 0x6 DUP2 MLOAD DUP2 LT PUSH2 0xDA1 JUMPI PUSH2 0xDA0 PUSH2 0x1F82 JUMP JUMPDEST JUMPDEST PUSH1 0x20 MUL PUSH1 0x20 ADD ADD DUP2 SWAP1 MSTORE POP DUP2 DUP2 PUSH1 0x7 DUP2 MLOAD DUP2 LT PUSH2 0xDC1 JUMPI PUSH2 0xDC0 PUSH2 0x1F82 JUMP JUMPDEST JUMPDEST PUSH1 0x20 MUL PUSH1 0x20 ADD ADD DUP2 SWAP1 MSTORE POP DUP2 DUP2 PUSH1 0x8 DUP2 MLOAD DUP2 LT PUSH2 0xDE1 JUMPI PUSH2 0xDE0 PUSH2 0x1F82 JUMP JUMPDEST JUMPDEST PUSH1 0x20 MUL PUSH1 0x20 ADD ADD DUP2 SWAP1 MSTORE POP PUSH2 0xDF5 DUP2 PUSH2 0x11C6 JUMP JUMPDEST SWAP3 POP POP POP SWAP7 SWAP6 POP POP POP POP POP POP JUMP JUMPDEST PUSH1 0x60 DUP1 PUSH1 0x38 DUP5 LT ISZERO PUSH2 0xEB6 JUMPI PUSH1 0x1 PUSH8 0xFFFFFFFFFFFFFFFF DUP2 GT ISZERO PUSH2 0xE2A JUMPI PUSH2 0xE29 PUSH2 0x1832 JUMP JUMPDEST JUMPDEST PUSH1 0x40 MLOAD SWAP1 DUP1 DUP3 MSTORE DUP1 PUSH1 0x1F ADD PUSH1 0x1F NOT AND PUSH1 0x20 ADD DUP3 ADD PUSH1 0x40 MSTORE DUP1 ISZERO PUSH2 0xE5C JUMPI DUP2 PUSH1 0x20 ADD PUSH1 0x1 DUP3 MUL DUP1 CALLDATASIZE DUP4 CALLDATACOPY DUP1 DUP3 ADD SWAP2 POP POP SWAP1 POP JUMPDEST POP SWAP1 POP DUP3 DUP5 PUSH2 0xE6B SWAP2 SWAP1 PUSH2 0x2640 JUMP JUMPDEST PUSH1 0xF8 SHL DUP2 PUSH1 0x0 DUP2 MLOAD DUP2 LT PUSH2 0xE82 JUMPI PUSH2 0xE81 PUSH2 0x1F82 JUMP JUMPDEST JUMPDEST PUSH1 0x20 ADD ADD SWAP1 PUSH31 0xFFFFFFFFFFFFFFFFFFFFFFFFFFFFFFFFFFFFFFFFFFFFFFFFFFFFFFFFFFFFFF NOT AND SWAP1 DUP2 PUSH1 0x0 BYTE SWAP1 MSTORE8 POP PUSH2 0x1045 JUMP JUMPDEST PUSH1 0x0 DUP1 PUSH1 0x1 SWAP1 POP JUMPDEST PUSH1 0x0 DUP2 DUP8 PUSH2 0xECC SWAP2 SWAP1 PUSH2 0x26A4 JUMP JUMPDEST EQ PUSH2 0xEF4 JUMPI DUP2 DUP1 PUSH2 0xEDC SWAP1 PUSH2 0x249D JUMP JUMPDEST SWAP3 POP POP PUSH2 0x100 DUP2 PUSH2 0xEED SWAP2 SWAP1 PUSH2 0x26D5 JUMP JUMPDEST SWAP1 POP PUSH2 0xEBE JUMP JUMPDEST PUSH1 0x1 DUP3 PUSH2 0xF01 SWAP2 SWAP1 PUSH2 0x2717 JUMP JUMPDEST PUSH8 0xFFFFFFFFFFFFFFFF DUP2 GT ISZERO PUSH2 0xF1A JUMPI PUSH2 0xF19 PUSH2 0x1832 JUMP JUMPDEST JUMPDEST PUSH1 0x40 MLOAD SWAP1 DUP1 DUP3 MSTORE DUP1 PUSH1 0x1F ADD PUSH1 0x1F NOT AND PUSH1 0x20 ADD DUP3 ADD PUSH1 0x40 MSTORE DUP1 ISZERO PUSH2 0xF4C JUMPI DUP2 PUSH1 0x20 ADD PUSH1 0x1 DUP3 MUL DUP1 CALLDATASIZE DUP4 CALLDATACOPY DUP1 DUP3 ADD SWAP2 POP POP SWAP1 POP JUMPDEST POP SWAP3 POP PUSH1 0x37 DUP6 DUP4 PUSH2 0xF5D SWAP2 SWAP1 PUSH2 0x2640 JUMP JUMPDEST PUSH2 0xF67 SWAP2 SWAP1 PUSH2 0x2640 JUMP JUMPDEST PUSH1 0xF8 SHL DUP4 PUSH1 0x0 DUP2 MLOAD DUP2 LT PUSH2 0xF7E JUMPI PUSH2 0xF7D PUSH2 0x1F82 JUMP JUMPDEST JUMPDEST PUSH1 0x20 ADD ADD SWAP1 PUSH31 0xFFFFFFFFFFFFFFFFFFFFFFFFFFFFFFFFFFFFFFFFFFFFFFFFFFFFFFFFFFFFFF NOT AND SWAP1 DUP2 PUSH1 0x0 BYTE SWAP1 MSTORE8 POP PUSH1 0x1 SWAP1 POP JUMPDEST DUP2 DUP2 GT PUSH2 0x1042 JUMPI PUSH2 0x100 DUP2 DUP4 PUSH2 0xFC8 SWAP2 SWAP1 PUSH2 0x274B JUMP JUMPDEST PUSH2 0x100 PUSH2 0xFD5 SWAP2 SWAP1 PUSH2 0x28B2 JUMP JUMPDEST DUP8 PUSH2 0xFE0 SWAP2 SWAP1 PUSH2 0x26A4 JUMP JUMPDEST PUSH2 0xFEA SWAP2 SWAP1 PUSH2 0x28FD JUMP JUMPDEST PUSH1 0xF8 SHL DUP4 DUP3 DUP2 MLOAD DUP2 LT PUSH2 0x1000 JUMPI PUSH2 0xFFF PUSH2 0x1F82 JUMP JUMPDEST JUMPDEST PUSH1 0x20 ADD ADD SWAP1 PUSH31 0xFFFFFFFFFFFFFFFFFFFFFFFFFFFFFFFFFFFFFFFFFFFFFFFFFFFFFFFFFFFFFF NOT AND SWAP1 DUP2 PUSH1 0x0 BYTE SWAP1 MSTORE8 POP DUP1 DUP1 PUSH2 0x103A SWAP1 PUSH2 0x249D JUMP JUMPDEST SWAP2 POP POP PUSH2 0xFB2 JUMP JUMPDEST POP POP JUMPDEST DUP1 SWAP2 POP POP SWAP3 SWAP2 POP POP JUMP JUMPDEST PUSH1 0x60 PUSH1 0x0 DUP3 PUSH1 0x40 MLOAD PUSH1 0x20 ADD PUSH2 0x1064 SWAP2 SWAP1 PUSH2 0x294F JUMP JUMPDEST PUSH1 0x40 MLOAD PUSH1 0x20 DUP2 DUP4 SUB SUB DUP2 MSTORE SWAP1 PUSH1 0x40 MSTORE SWAP1 POP PUSH1 0x0 JUMPDEST PUSH1 0x20 DUP2 LT ISZERO PUSH2 0x10D8 JUMPI PUSH1 0x0 PUSH1 0xF8 SHL DUP3 DUP3 DUP2 MLOAD DUP2 LT PUSH2 0x1099 JUMPI PUSH2 0x1098 PUSH2 0x1F82 JUMP JUMPDEST JUMPDEST PUSH1 0x20 ADD ADD MLOAD PUSH1 0xF8 SHR PUSH1 0xF8 SHL PUSH31 0xFFFFFFFFFFFFFFFFFFFFFFFFFFFFFFFFFFFFFFFFFFFFFFFFFFFFFFFFFFFFFF NOT AND SUB PUSH2 0x10D8 JUMPI DUP1 DUP1 PUSH1 0x1 ADD SWAP2 POP POP PUSH2 0x1078 JUMP JUMPDEST PUSH1 0x0 DUP2 PUSH1 0x20 PUSH2 0x10E7 SWAP2 SWAP1 PUSH2 0x274B JUMP JUMPDEST PUSH8 0xFFFFFFFFFFFFFFFF DUP2 GT ISZERO PUSH2 0x1100 JUMPI PUSH2 0x10FF PUSH2 0x1832 JUMP JUMPDEST JUMPDEST PUSH1 0x40 MLOAD SWAP1 DUP1 DUP3 MSTORE DUP1 PUSH1 0x1F ADD PUSH1 0x1F NOT AND PUSH1 0x20 ADD DUP3 ADD PUSH1 0x40 MSTORE DUP1 ISZERO PUSH2 0x1132 JUMPI DUP2 PUSH1 0x20 ADD PUSH1 0x1 DUP3 MUL DUP1 CALLDATASIZE DUP4 CALLDATACOPY DUP1 DUP3 ADD SWAP2 POP POP SWAP1 POP JUMPDEST POP SWAP1 POP PUSH1 0x0 JUMPDEST DUP2 MLOAD DUP2 LT ISZERO PUSH2 0x11BA JUMPI DUP4 DUP4 DUP1 PUSH2 0x114D SWAP1 PUSH2 0x249D JUMP JUMPDEST SWAP5 POP DUP2 MLOAD DUP2 LT PUSH2 0x1160 JUMPI PUSH2 0x115F PUSH2 0x1F82 JUMP JUMPDEST JUMPDEST PUSH1 0x20 ADD ADD MLOAD PUSH1 0xF8 SHR PUSH1 0xF8 SHL DUP3 DUP3 DUP2 MLOAD DUP2 LT PUSH2 0x117E JUMPI PUSH2 0x117D PUSH2 0x1F82 JUMP JUMPDEST JUMPDEST PUSH1 0x20 ADD ADD SWAP1 PUSH31 0xFFFFFFFFFFFFFFFFFFFFFFFFFFFFFFFFFFFFFFFFFFFFFFFFFFFFFFFFFFFFFF NOT AND SWAP1 DUP2 PUSH1 0x0 BYTE SWAP1 MSTORE8 POP DUP1 DUP1 PUSH1 0x1 ADD SWAP2 POP POP PUSH2 0x1138 JUMP JUMPDEST POP DUP1 SWAP4 POP POP POP POP SWAP2 SWAP1 POP JUMP JUMPDEST PUSH1 0x60 PUSH1 0x0 PUSH2 0x11D3 DUP4 PUSH2 0x120A JUMP JUMPDEST SWAP1 POP PUSH2 0x11E1 DUP2 MLOAD PUSH1 0xC0 PUSH2 0xE03 JUMP JUMPDEST DUP2 PUSH1 0x40 MLOAD PUSH1 0x20 ADD PUSH2 0x11F3 SWAP3 SWAP2 SWAP1 PUSH2 0x25B9 JUMP JUMPDEST PUSH1 0x40 MLOAD PUSH1 0x20 DUP2 DUP4 SUB SUB DUP2 MSTORE SWAP1 PUSH1 0x40 MSTORE SWAP2 POP POP SWAP2 SWAP1 POP JUMP JUMPDEST PUSH1 0x60 PUSH1 0x0 DUP3 MLOAD SUB PUSH2 0x126A JUMPI PUSH1 0x0 PUSH8 0xFFFFFFFFFFFFFFFF DUP2 GT ISZERO PUSH2 0x1230 JUMPI PUSH2 0x122F PUSH2 0x1832 JUMP JUMPDEST JUMPDEST PUSH1 0x40 MLOAD SWAP1 DUP1 DUP3 MSTORE DUP1 PUSH1 0x1F ADD PUSH1 0x1F NOT AND PUSH1 0x20 ADD DUP3 ADD PUSH1 0x40 MSTORE DUP1 ISZERO PUSH2 0x1262 JUMPI DUP2 PUSH1 0x20 ADD PUSH1 0x1 DUP3 MUL DUP1 CALLDATASIZE DUP4 CALLDATACOPY DUP1 DUP3 ADD SWAP2 POP POP SWAP1 POP JUMPDEST POP SWAP1 POP PUSH2 0x138B JUMP JUMPDEST PUSH1 0x0 DUP1 PUSH1 0x0 SWAP1 POP JUMPDEST DUP4 MLOAD DUP2 LT ISZERO PUSH2 0x12B1 JUMPI DUP4 DUP2 DUP2 MLOAD DUP2 LT PUSH2 0x128E JUMPI PUSH2 0x128D PUSH2 0x1F82 JUMP JUMPDEST JUMPDEST PUSH1 0x20 MUL PUSH1 0x20 ADD ADD MLOAD MLOAD DUP3 PUSH2 0x12A2 SWAP2 SWAP1 PUSH2 0x2717 JUMP JUMPDEST SWAP2 POP DUP1 DUP1 PUSH1 0x1 ADD SWAP2 POP POP PUSH2 0x1272 JUMP JUMPDEST PUSH1 0x0 DUP3 PUSH8 0xFFFFFFFFFFFFFFFF DUP2 GT ISZERO PUSH2 0x12CD JUMPI PUSH2 0x12CC PUSH2 0x1832 JUMP JUMPDEST JUMPDEST PUSH1 0x40 MLOAD SWAP1 DUP1 DUP3 MSTORE DUP1 PUSH1 0x1F ADD PUSH1 0x1F NOT AND PUSH1 0x20 ADD DUP3 ADD PUSH1 0x40 MSTORE DUP1 ISZERO PUSH2 0x12FF JUMPI DUP2 PUSH1 0x20 ADD PUSH1 0x1 DUP3 MUL DUP1 CALLDATASIZE DUP4 CALLDATACOPY DUP1 DUP3 ADD SWAP2 POP POP SWAP1 POP JUMPDEST POP SWAP1 POP PUSH1 0x0 PUSH1 0x20 DUP3 ADD SWAP1 POP PUSH1 0x0 SWAP3 POP JUMPDEST DUP6 MLOAD DUP4 LT ISZERO PUSH2 0x1383 JUMPI PUSH1 0x0 DUP7 DUP5 DUP2 MLOAD DUP2 LT PUSH2 0x132D JUMPI PUSH2 0x132C PUSH2 0x1F82 JUMP JUMPDEST JUMPDEST PUSH1 0x20 MUL PUSH1 0x20 ADD ADD MLOAD SWAP1 POP PUSH1 0x0 PUSH1 0x20 DUP3 ADD SWAP1 POP PUSH2 0x134B DUP4 DUP3 DUP5 MLOAD PUSH2 0x1390 JUMP JUMPDEST DUP8 DUP6 DUP2 MLOAD DUP2 LT PUSH2 0x135E JUMPI PUSH2 0x135D PUSH2 0x1F82 JUMP JUMPDEST JUMPDEST PUSH1 0x20 MUL PUSH1 0x20 ADD ADD MLOAD MLOAD DUP4 PUSH2 0x1372 SWAP2 SWAP1 PUSH2 0x2717 JUMP JUMPDEST SWAP3 POP POP POP DUP3 DUP1 PUSH1 0x1 ADD SWAP4 POP POP PUSH2 0x130F JUMP JUMPDEST DUP2 SWAP5 POP POP POP POP POP JUMPDEST SWAP2 SWAP1 POP JUMP JUMPDEST PUSH1 0x0 DUP4 SWAP1 POP PUSH1 0x0 DUP4 SWAP1 POP PUSH1 0x0 DUP4 SWAP1 POP JUMPDEST PUSH1 0x20 DUP2 LT PUSH2 0x13DE JUMPI DUP2 MLOAD DUP4 MSTORE PUSH1 0x20 DUP4 PUSH2 0x13B9 SWAP2 SWAP1 PUSH2 0x2717 JUMP JUMPDEST SWAP3 POP PUSH1 0x20 DUP3 PUSH2 0x13C8 SWAP2 SWAP1 PUSH2 0x2717 JUMP JUMPDEST SWAP2 POP PUSH1 0x20 DUP2 PUSH2 0x13D7 SWAP2 SWAP1 PUSH2 0x274B JUMP JUMPDEST SWAP1 POP PUSH2 0x13A0 JUMP JUMPDEST PUSH1 0x0 PUSH1 0x1 DUP3 PUSH1 0x20 SUB PUSH2 0x100 EXP SUB SWAP1 POP DUP1 NOT DUP4 MLOAD AND DUP2 DUP6 MLOAD AND DUP2 DUP2 OR DUP7 MSTORE POP POP POP POP POP POP POP POP POP JUMP JUMPDEST PUSH1 0x0 PUSH1 0x40 MLOAD SWAP1 POP SWAP1 JUMP JUMPDEST PUSH1 0x0 DUP1 REVERT JUMPDEST PUSH1 0x0 DUP1 REVERT JUMPDEST PUSH1 0x0 DUP1 REVERT JUMPDEST PUSH1 0x0 DUP1 REVERT JUMPDEST PUSH1 0x0 DUP1 REVERT JUMPDEST PUSH1 0x0 DUP1 DUP4 PUSH1 0x1F DUP5 ADD SLT PUSH2 0x143F JUMPI PUSH2 0x143E PUSH2 0x141A JUMP JUMPDEST JUMPDEST DUP3 CALLDATALOAD SWAP1 POP PUSH8 0xFFFFFFFFFFFFFFFF DUP2 GT ISZERO PUSH2 0x145C JUMPI PUSH2 0x145B PUSH2 0x141F JUMP JUMPDEST JUMPDEST PUSH1 0x20 DUP4 ADD SWAP2 POP DUP4 PUSH1 0x1 DUP3 MUL DUP4 ADD GT ISZERO PUSH2 0x1478 JUMPI PUSH2 0x1477 PUSH2 0x1424 JUMP JUMPDEST JUMPDEST SWAP3 POP SWAP3 SWAP1 POP JUMP JUMPDEST PUSH1 0x0 DUP1 PUSH1 0x20 DUP4 DUP6 SUB SLT ISZERO PUSH2 0x1496 JUMPI PUSH2 0x1495 PUSH2 0x1410 JUMP JUMPDEST JUMPDEST PUSH1 0x0 DUP4 ADD CALLDATALOAD PUSH8 0xFFFFFFFFFFFFFFFF DUP2 GT ISZERO PUSH2 0x14B4 JUMPI PUSH2 0x14B3 PUSH2 0x1415 JUMP JUMPDEST JUMPDEST PUSH2 0x14C0 DUP6 DUP3 DUP7 ADD PUSH2 0x1429 JUMP JUMPDEST SWAP3 POP SWAP3 POP POP SWAP3 POP SWAP3 SWAP1 POP JUMP JUMPDEST PUSH1 0x0 PUSH20 0xFFFFFFFFFFFFFFFFFFFFFFFFFFFFFFFFFFFFFFFF DUP3 AND SWAP1 POP SWAP2 SWAP1 POP JUMP JUMPDEST PUSH1 0x0 PUSH2 0x14F7 DUP3 PUSH2 0x14CC JUMP JUMPDEST SWAP1 POP SWAP2 SWAP1 POP JUMP JUMPDEST PUSH2 0x1507 DUP2 PUSH2 0x14EC JUMP JUMPDEST DUP2 EQ PUSH2 0x1512 JUMPI PUSH1 0x0 DUP1 REVERT JUMPDEST POP JUMP JUMPDEST PUSH1 0x0 DUP2 CALLDATALOAD SWAP1 POP PUSH2 0x1524 DUP2 PUSH2 0x14FE JUMP JUMPDEST SWAP3 SWAP2 POP POP JUMP JUMPDEST PUSH1 0x0 PUSH1 0x20 DUP3 DUP5 SUB SLT ISZERO PUSH2 0x1540 JUMPI PUSH2 0x153F PUSH2 0x1410 JUMP JUMPDEST JUMPDEST PUSH1 0x0 PUSH2 0x154E DUP5 DUP3 DUP6 ADD PUSH2 0x1515 JUMP JUMPDEST SWAP2 POP POP SWAP3 SWAP2 POP POP JUMP JUMPDEST PUSH1 0x0 DUP2 MLOAD SWAP1 POP SWAP2 SWAP1 POP JUMP JUMPDEST PUSH1 0x0 DUP3 DUP3 MSTORE PUSH1 0x20 DUP3 ADD SWAP1 POP SWAP3 SWAP2 POP POP JUMP JUMPDEST PUSH1 0x0 DUP2 SWAP1 POP PUSH1 0x20 DUP3 ADD SWAP1 POP SWAP2 SWAP1 POP JUMP JUMPDEST PUSH1 0x0 DUP2 SWAP1 POP SWAP2 SWAP1 POP JUMP JUMPDEST PUSH2 0x1596 DUP2 PUSH2 0x1583 JUMP JUMPDEST DUP3 MSTORE POP POP JUMP JUMPDEST PUSH1 0x0 DUP2 MLOAD SWAP1 POP SWAP2 SWAP1 POP JUMP JUMPDEST PUSH1 0x0 DUP3 DUP3 MSTORE PUSH1 0x20 DUP3 ADD SWAP1 POP SWAP3 SWAP2 POP POP JUMP JUMPDEST PUSH1 0x0 JUMPDEST DUP4 DUP2 LT ISZERO PUSH2 0x15D6 JUMPI DUP1 DUP3 ADD MLOAD DUP2 DUP5 ADD MSTORE PUSH1 0x20 DUP2 ADD SWAP1 POP PUSH2 0x15BB JUMP JUMPDEST PUSH1 0x0 DUP5 DUP5 ADD MSTORE POP POP POP POP JUMP JUMPDEST PUSH1 0x0 PUSH1 0x1F NOT PUSH1 0x1F DUP4 ADD AND SWAP1 POP SWAP2 SWAP1 POP JUMP JUMPDEST PUSH1 0x0 PUSH2 0x15FE DUP3 PUSH2 0x159C JUMP JUMPDEST PUSH2 0x1608 DUP2 DUP6 PUSH2 0x15A7 JUMP JUMPDEST SWAP4 POP PUSH2 0x1618 DUP2 DUP6 PUSH1 0x20 DUP7 ADD PUSH2 0x15B8 JUMP JUMPDEST PUSH2 0x1621 DUP2 PUSH2 0x15E2 JUMP JUMPDEST DUP5 ADD SWAP2 POP POP SWAP3 SWAP2 POP POP JUMP JUMPDEST PUSH1 0x0 DUP2 ISZERO ISZERO SWAP1 POP SWAP2 SWAP1 POP JUMP JUMPDEST PUSH2 0x1641 DUP2 PUSH2 0x162C JUMP JUMPDEST DUP3 MSTORE POP POP JUMP JUMPDEST PUSH1 0x0 PUSH1 0x80 DUP4 ADD PUSH1 0x0 DUP4 ADD MLOAD PUSH2 0x165F PUSH1 0x0 DUP7 ADD DUP3 PUSH2 0x158D JUMP JUMPDEST POP PUSH1 0x20 DUP4 ADD MLOAD PUSH2 0x1672 PUSH1 0x20 DUP7 ADD DUP3 PUSH2 0x158D JUMP JUMPDEST POP PUSH1 0x40 DUP4 ADD MLOAD DUP5 DUP3 SUB PUSH1 0x40 DUP7 ADD MSTORE PUSH2 0x168A DUP3 DUP3 PUSH2 0x15F3 JUMP JUMPDEST SWAP2 POP POP PUSH1 0x60 DUP4 ADD MLOAD PUSH2 0x169F PUSH1 0x60 DUP7 ADD DUP3 PUSH2 0x1638 JUMP JUMPDEST POP DUP1 SWAP2 POP POP SWAP3 SWAP2 POP POP JUMP JUMPDEST PUSH1 0x0 PUSH2 0x16B6 DUP4 DUP4 PUSH2 0x1647 JUMP JUMPDEST SWAP1 POP SWAP3 SWAP2 POP POP JUMP JUMPDEST PUSH1 0x0 PUSH1 0x20 DUP3 ADD SWAP1 POP SWAP2 SWAP1 POP JUMP JUMPDEST PUSH1 0x0 PUSH2 0x16D6 DUP3 PUSH2 0x1557 JUMP JUMPDEST PUSH2 0x16E0 DUP2 DUP6 PUSH2 0x1562 JUMP JUMPDEST SWAP4 POP DUP4 PUSH1 0x20 DUP3 MUL DUP6 ADD PUSH2 0x16F2 DUP6 PUSH2 0x1573 JUMP JUMPDEST DUP1 PUSH1 0x0 JUMPDEST DUP6 DUP2 LT ISZERO PUSH2 0x172E JUMPI DUP5 DUP5 SUB DUP10 MSTORE DUP2 MLOAD PUSH2 0x170F DUP6 DUP3 PUSH2 0x16AA JUMP JUMPDEST SWAP5 POP PUSH2 0x171A DUP4 PUSH2 0x16BE JUMP JUMPDEST SWAP3 POP PUSH1 0x20 DUP11 ADD SWAP10 POP POP PUSH1 0x1 DUP2 ADD SWAP1 POP PUSH2 0x16F6 JUMP JUMPDEST POP DUP3 SWAP8 POP DUP8 SWAP6 POP POP POP POP POP POP SWAP3 SWAP2 POP POP JUMP JUMPDEST PUSH1 0x0 PUSH1 0x20 DUP3 ADD SWAP1 POP DUP2 DUP2 SUB PUSH1 0x0 DUP4 ADD MSTORE PUSH2 0x175A DUP2 DUP5 PUSH2 0x16CB JUMP JUMPDEST SWAP1 POP SWAP3 SWAP2 POP POP JUMP JUMPDEST PUSH2 0x176B DUP2 PUSH2 0x1583 JUMP JUMPDEST DUP2 EQ PUSH2 0x1776 JUMPI PUSH1 0x0 DUP1 REVERT JUMPDEST POP JUMP JUMPDEST PUSH1 0x0 DUP2 CALLDATALOAD SWAP1 POP PUSH2 0x1788 DUP2 PUSH2 0x1762 JUMP JUMPDEST SWAP3 SWAP2 POP POP JUMP JUMPDEST PUSH1 0x0 PUSH1 0x20 DUP3 DUP5 SUB SLT ISZERO PUSH2 0x17A4 JUMPI PUSH2 0x17A3 PUSH2 0x1410 JUMP JUMPDEST JUMPDEST PUSH1 0x0 PUSH2 0x17B2 DUP5 DUP3 DUP6 ADD PUSH2 0x1779 JUMP JUMPDEST SWAP2 POP POP SWAP3 SWAP2 POP POP JUMP JUMPDEST PUSH1 0x0 DUP2 MLOAD SWAP1 POP SWAP2 SWAP1 POP JUMP JUMPDEST PUSH1 0x0 DUP3 DUP3 MSTORE PUSH1 0x20 DUP3 ADD SWAP1 POP SWAP3 SWAP2 POP POP JUMP JUMPDEST PUSH1 0x0 PUSH2 0x17E2 DUP3 PUSH2 0x17BB JUMP JUMPDEST PUSH2 0x17EC DUP2 DUP6 PUSH2 0x17C6 JUMP JUMPDEST SWAP4 POP PUSH2 0x17FC DUP2 DUP6 PUSH1 0x20 DUP7 ADD PUSH2 0x15B8 JUMP JUMPDEST PUSH2 0x1805 DUP2 PUSH2 0x15E2 JUMP JUMPDEST DUP5 ADD SWAP2 POP POP SWAP3 SWAP2 POP POP JUMP JUMPDEST PUSH1 0x0 PUSH1 0x20 DUP3 ADD SWAP1 POP DUP2 DUP2 SUB PUSH1 0x0 DUP4 ADD MSTORE PUSH2 0x182A DUP2 DUP5 PUSH2 0x17D7 JUMP JUMPDEST SWAP1 POP SWAP3 SWAP2 POP POP JUMP JUMPDEST PUSH32 0x4E487B7100000000000000000000000000000000000000000000000000000000 PUSH1 0x0 MSTORE PUSH1 0x41 PUSH1 0x4 MSTORE PUSH1 0x24 PUSH1 0x0 REVERT JUMPDEST PUSH2 0x186A DUP3 PUSH2 0x15E2 JUMP JUMPDEST DUP2 ADD DUP2 DUP2 LT PUSH8 0xFFFFFFFFFFFFFFFF DUP3 GT OR ISZERO PUSH2 0x1889 JUMPI PUSH2 0x1888 PUSH2 0x1832 JUMP JUMPDEST JUMPDEST DUP1 PUSH1 0x40 MSTORE POP POP POP JUMP JUMPDEST PUSH1 0x0 PUSH2 0x189C PUSH2 0x1406 JUMP JUMPDEST SWAP1 POP PUSH2 0x18A8 DUP3 DUP3 PUSH2 0x1861 JUMP JUMPDEST SWAP2 SWAP1 POP JUMP JUMPDEST PUSH1 0x0 PUSH8 0xFFFFFFFFFFFFFFFF DUP3 GT ISZERO PUSH2 0x18C8 JUMPI PUSH2 0x18C7 PUSH2 0x1832 JUMP JUMPDEST JUMPDEST PUSH1 0x20 DUP3 MUL SWAP1 POP PUSH1 0x20 DUP2 ADD SWAP1 POP SWAP2 SWAP1 POP JUMP JUMPDEST PUSH1 0x0 DUP1 REVERT JUMPDEST PUSH1 0x0 DUP1 REVERT JUMPDEST PUSH1 0x0 DUP1 REVERT JUMPDEST PUSH1 0x0 PUSH8 0xFFFFFFFFFFFFFFFF DUP3 GT ISZERO PUSH2 0x1903 JUMPI PUSH2 0x1902 PUSH2 0x1832 JUMP JUMPDEST JUMPDEST PUSH2 0x190C DUP3 PUSH2 0x15E2 JUMP JUMPDEST SWAP1 POP PUSH1 0x20 DUP2 ADD SWAP1 POP SWAP2 SWAP1 POP JUMP JUMPDEST DUP3 DUP2 DUP4 CALLDATACOPY PUSH1 0x0 DUP4 DUP4 ADD MSTORE POP POP POP JUMP JUMPDEST PUSH1 0x0 PUSH2 0x193B PUSH2 0x1936 DUP5 PUSH2 0x18E8 JUMP JUMPDEST PUSH2 0x1892 JUMP JUMPDEST SWAP1 POP DUP3 DUP2 MSTORE PUSH1 0x20 DUP2 ADD DUP5 DUP5 DUP5 ADD GT ISZERO PUSH2 0x1957 JUMPI PUSH2 0x1956 PUSH2 0x18E3 JUMP JUMPDEST JUMPDEST PUSH2 0x1962 DUP5 DUP3 DUP6 PUSH2 0x1919 JUMP JUMPDEST POP SWAP4 SWAP3 POP POP POP JUMP JUMPDEST PUSH1 0x0 DUP3 PUSH1 0x1F DUP4 ADD SLT PUSH2 0x197F JUMPI PUSH2 0x197E PUSH2 0x141A JUMP JUMPDEST JUMPDEST DUP2 CALLDATALOAD PUSH2 0x198F DUP5 DUP3 PUSH1 0x20 DUP7 ADD PUSH2 0x1928 JUMP JUMPDEST SWAP2 POP POP SWAP3 SWAP2 POP POP JUMP JUMPDEST PUSH1 0x0 PUSH1 0xC0 DUP3 DUP5 SUB SLT ISZERO PUSH2 0x19AE JUMPI PUSH2 0x19AD PUSH2 0x18D9 JUMP JUMPDEST JUMPDEST PUSH2 0x19B8 PUSH1 0xC0 PUSH2 0x1892 JUMP JUMPDEST SWAP1 POP PUSH1 0x0 PUSH2 0x19C8 DUP5 DUP3 DUP6 ADD PUSH2 0x1515 JUMP JUMPDEST PUSH1 0x0 DUP4 ADD MSTORE POP PUSH1 0x20 PUSH2 0x19DC DUP5 DUP3 DUP6 ADD PUSH2 0x1515 JUMP JUMPDEST PUSH1 0x20 DUP4 ADD MSTORE POP PUSH1 0x40 DUP3 ADD CALLDATALOAD PUSH8 0xFFFFFFFFFFFFFFFF DUP2 GT ISZERO PUSH2 0x1A00 JUMPI PUSH2 0x19FF PUSH2 0x18DE JUMP JUMPDEST JUMPDEST PUSH2 0x1A0C DUP5 DUP3 DUP6 ADD PUSH2 0x196A JUMP JUMPDEST PUSH1 0x40 DUP4 ADD MSTORE POP PUSH1 0x60 PUSH2 0x1A20 DUP5 DUP3 DUP6 ADD PUSH2 0x1779 JUMP JUMPDEST PUSH1 0x60 DUP4 ADD MSTORE POP PUSH1 0x80 PUSH2 0x1A34 DUP5 DUP3 DUP6 ADD PUSH2 0x1779 JUMP JUMPDEST PUSH1 0x80 DUP4 ADD MSTORE POP PUSH1 0xA0 PUSH2 0x1A48 DUP5 DUP3 DUP6 ADD PUSH2 0x1779 JUMP JUMPDEST PUSH1 0xA0 DUP4 ADD MSTORE POP SWAP3 SWAP2 POP POP JUMP JUMPDEST PUSH1 0x0 PUSH2 0x1A67 PUSH2 0x1A62 DUP5 PUSH2 0x18AD JUMP JUMPDEST PUSH2 0x1892 JUMP JUMPDEST SWAP1 POP DUP1 DUP4 DUP3 MSTORE PUSH1 0x20 DUP3 ADD SWAP1 POP PUSH1 0x20 DUP5 MUL DUP4 ADD DUP6 DUP2 GT ISZERO PUSH2 0x1A8A JUMPI PUSH2 0x1A89 PUSH2 0x1424 JUMP JUMPDEST JUMPDEST DUP4 JUMPDEST DUP2 DUP2 LT ISZERO PUSH2 0x1AD1 JUMPI DUP1 CALLDATALOAD PUSH8 0xFFFFFFFFFFFFFFFF DUP2 GT ISZERO PUSH2 0x1AAF JUMPI PUSH2 0x1AAE PUSH2 0x141A JUMP JUMPDEST JUMPDEST DUP1 DUP7 ADD PUSH2 0x1ABC DUP10 DUP3 PUSH2 0x1998 JUMP JUMPDEST DUP6 MSTORE PUSH1 0x20 DUP6 ADD SWAP5 POP POP POP PUSH1 0x20 DUP2 ADD SWAP1 POP PUSH2 0x1A8C JUMP JUMPDEST POP POP POP SWAP4 SWAP3 POP POP POP JUMP JUMPDEST PUSH1 0x0 DUP3 PUSH1 0x1F DUP4 ADD SLT PUSH2 0x1AF0 JUMPI PUSH2 0x1AEF PUSH2 0x141A JUMP JUMPDEST JUMPDEST DUP2 CALLDATALOAD PUSH2 0x1B00 DUP5 DUP3 PUSH1 0x20 DUP7 ADD PUSH2 0x1A54 JUMP JUMPDEST SWAP2 POP POP SWAP3 SWAP2 POP POP JUMP JUMPDEST PUSH1 0x0 DUP2 SWAP1 POP SWAP2 SWAP1 POP JUMP JUMPDEST PUSH2 0x1B1C DUP2 PUSH2 0x1B09 JUMP JUMPDEST DUP2 EQ PUSH2 0x1B27 JUMPI PUSH1 0x0 DUP1 REVERT JUMPDEST POP JUMP JUMPDEST PUSH1 0x0 DUP2 CALLDATALOAD SWAP1 POP PUSH2 0x1B39 DUP2 PUSH2 0x1B13 JUMP JUMPDEST SWAP3 SWAP2 POP POP JUMP JUMPDEST PUSH1 0x0 DUP1 PUSH1 0x0 PUSH1 0x60 DUP5 DUP7 SUB SLT ISZERO PUSH2 0x1B58 JUMPI PUSH2 0x1B57 PUSH2 0x1410 JUMP JUMPDEST JUMPDEST PUSH1 0x0 DUP5 ADD CALLDATALOAD PUSH8 0xFFFFFFFFFFFFFFFF DUP2 GT ISZERO PUSH2 0x1B76 JUMPI PUSH2 0x1B75 PUSH2 0x1415 JUMP JUMPDEST JUMPDEST PUSH2 0x1B82 DUP7 DUP3 DUP8 ADD PUSH2 0x1ADB JUMP JUMPDEST SWAP4 POP POP PUSH1 0x20 PUSH2 0x1B93 DUP7 DUP3 DUP8 ADD PUSH2 0x1779 JUMP JUMPDEST SWAP3 POP POP PUSH1 0x40 PUSH2 0x1BA4 DUP7 DUP3 DUP8 ADD PUSH2 0x1B2A JUMP JUMPDEST SWAP2 POP POP SWAP3 POP SWAP3 POP SWAP3 JUMP JUMPDEST PUSH1 0x0 DUP1 PUSH1 0x0 PUSH1 0x40 DUP5 DUP7 SUB SLT ISZERO PUSH2 0x1BC7 JUMPI PUSH2 0x1BC6 PUSH2 0x1410 JUMP JUMPDEST JUMPDEST PUSH1 0x0 PUSH2 0x1BD5 DUP7 DUP3 DUP8 ADD PUSH2 0x1779 JUMP JUMPDEST SWAP4 POP POP PUSH1 0x20 DUP5 ADD CALLDATALOAD PUSH8 0xFFFFFFFFFFFFFFFF DUP2 GT ISZERO PUSH2 0x1BF6 JUMPI PUSH2 0x1BF5 PUSH2 0x1415 JUMP JUMPDEST JUMPDEST PUSH2 0x1C02 DUP7 DUP3 DUP8 ADD PUSH2 0x1429 JUMP JUMPDEST SWAP3 POP SWAP3 POP POP SWAP3 POP SWAP3 POP SWAP3 JUMP JUMPDEST PUSH2 0x1C17 DUP2 PUSH2 0x14EC JUMP JUMPDEST DUP3 MSTORE POP POP JUMP JUMPDEST PUSH1 0x0 PUSH1 0x20 DUP3 ADD SWAP1 POP PUSH2 0x1C32 PUSH1 0x0 DUP4 ADD DUP5 PUSH2 0x1C0E JUMP JUMPDEST SWAP3 SWAP2 POP POP JUMP JUMPDEST PUSH32 0x4E487B7100000000000000000000000000000000000000000000000000000000 PUSH1 0x0 MSTORE PUSH1 0x22 PUSH1 0x4 MSTORE PUSH1 0x24 PUSH1 0x0 REVERT JUMPDEST PUSH1 0x0 PUSH1 0x2 DUP3 DIV SWAP1 POP PUSH1 0x1 DUP3 AND DUP1 PUSH2 0x1C7F JUMPI PUSH1 0x7F DUP3 AND SWAP2 POP JUMPDEST PUSH1 0x20 DUP3 LT DUP2 SUB PUSH2 0x1C92 JUMPI PUSH2 0x1C91 PUSH2 0x1C38 JUMP JUMPDEST JUMPDEST POP SWAP2 SWAP1 POP JUMP JUMPDEST PUSH1 0x0 DUP2 SWAP1 POP DUP2 PUSH1 0x0 MSTORE PUSH1 0x20 PUSH1 0x0 KECCAK256 SWAP1 POP SWAP2 SWAP1 POP JUMP JUMPDEST PUSH1 0x0 PUSH1 0x20 PUSH1 0x1F DUP4 ADD DIV SWAP1 POP SWAP2 SWAP1 POP JUMP JUMPDEST PUSH1 0x0 DUP3 DUP3 SHL SWAP1 POP SWAP3 SWAP2 POP POP JUMP JUMPDEST PUSH1 0x0 PUSH1 0x8 DUP4 MUL PUSH2 0x1CFA PUSH32 0xFFFFFFFFFFFFFFFFFFFFFFFFFFFFFFFFFFFFFFFFFFFFFFFFFFFFFFFFFFFFFFFF DUP3 PUSH2 0x1CBD JUMP JUMPDEST PUSH2 0x1D04 DUP7 DUP4 PUSH2 0x1CBD JUMP JUMPDEST SWAP6 POP DUP1 NOT DUP5 AND SWAP4 POP DUP1 DUP7 AND DUP5 OR SWAP3 POP POP POP SWAP4 SWAP3 POP POP POP JUMP JUMPDEST PUSH1 0x0 DUP2 SWAP1 POP SWAP2 SWAP1 POP JUMP JUMPDEST PUSH1 0x0 PUSH2 0x1D41 PUSH2 0x1D3C PUSH2 0x1D37 DUP5 PUSH2 0x1583 JUMP JUMPDEST PUSH2 0x1D1C JUMP JUMPDEST PUSH2 0x1583 JUMP JUMPDEST SWAP1 POP SWAP2 SWAP1 POP JUMP JUMPDEST PUSH1 0x0 DUP2 SWAP1 POP SWAP2 SWAP1 POP JUMP JUMPDEST PUSH2 0x1D5B DUP4 PUSH2 0x1D26 JUMP JUMPDEST PUSH2 0x1D6F PUSH2 0x1D67 DUP3 PUSH2 0x1D48 JUMP JUMPDEST DUP5 DUP5 SLOAD PUSH2 0x1CCA JUMP JUMPDEST DUP3 SSTORE POP POP POP POP JUMP JUMPDEST PUSH1 0x0 SWAP1 JUMP JUMPDEST PUSH2 0x1D84 PUSH2 0x1D77 JUMP JUMPDEST PUSH2 0x1D8F DUP2 DUP5 DUP5 PUSH2 0x1D52 JUMP JUMPDEST POP POP POP JUMP JUMPDEST JUMPDEST DUP2 DUP2 LT ISZERO PUSH2 0x1DB3 JUMPI PUSH2 0x1DA8 PUSH1 0x0 DUP3 PUSH2 0x1D7C JUMP JUMPDEST PUSH1 0x1 DUP2 ADD SWAP1 POP PUSH2 0x1D95 JUMP JUMPDEST POP POP JUMP JUMPDEST PUSH1 0x1F DUP3 GT ISZERO PUSH2 0x1DF8 JUMPI PUSH2 0x1DC9 DUP2 PUSH2 0x1C98 JUMP JUMPDEST PUSH2 0x1DD2 DUP5 PUSH2 0x1CAD JUMP JUMPDEST DUP2 ADD PUSH1 0x20 DUP6 LT ISZERO PUSH2 0x1DE1 JUMPI DUP2 SWAP1 POP JUMPDEST PUSH2 0x1DF5 PUSH2 0x1DED DUP6 PUSH2 0x1CAD JUMP JUMPDEST DUP4 ADD DUP3 PUSH2 0x1D94 JUMP JUMPDEST POP POP JUMPDEST POP POP POP JUMP JUMPDEST PUSH1 0x0 DUP3 DUP3 SHR SWAP1 POP SWAP3 SWAP2 POP POP JUMP JUMPDEST PUSH1 0x0 PUSH2 0x1E1B PUSH1 0x0 NOT DUP5 PUSH1 0x8 MUL PUSH2 0x1DFD JUMP JUMPDEST NOT DUP1 DUP4 AND SWAP2 POP POP SWAP3 SWAP2 POP POP JUMP JUMPDEST PUSH1 0x0 PUSH2 0x1E34 DUP4 DUP4 PUSH2 0x1E0A JUMP JUMPDEST SWAP2 POP DUP3 PUSH1 0x2 MUL DUP3 OR SWAP1 POP SWAP3 SWAP2 POP POP JUMP JUMPDEST PUSH2 0x1E4D DUP3 PUSH2 0x159C JUMP JUMPDEST PUSH8 0xFFFFFFFFFFFFFFFF DUP2 GT ISZERO PUSH2 0x1E66 JUMPI PUSH2 0x1E65 PUSH2 0x1832 JUMP JUMPDEST JUMPDEST PUSH2 0x1E70 DUP3 SLOAD PUSH2 0x1C67 JUMP JUMPDEST PUSH2 0x1E7B DUP3 DUP3 DUP6 PUSH2 0x1DB7 JUMP JUMPDEST PUSH1 0x0 PUSH1 0x20 SWAP1 POP PUSH1 0x1F DUP4 GT PUSH1 0x1 DUP2 EQ PUSH2 0x1EAE JUMPI PUSH1 0x0 DUP5 ISZERO PUSH2 0x1E9C JUMPI DUP3 DUP8 ADD MLOAD SWAP1 POP JUMPDEST PUSH2 0x1EA6 DUP6 DUP3 PUSH2 0x1E28 JUMP JUMPDEST DUP7 SSTORE POP PUSH2 0x1F0E JUMP JUMPDEST PUSH1 0x1F NOT DUP5 AND PUSH2 0x1EBC DUP7 PUSH2 0x1C98 JUMP JUMPDEST PUSH1 0x0 JUMPDEST DUP3 DUP2 LT ISZERO PUSH2 0x1EE4 JUMPI DUP5 DUP10 ADD MLOAD DUP3 SSTORE PUSH1 0x1 DUP3 ADD SWAP2 POP PUSH1 0x20 DUP6 ADD SWAP5 POP PUSH1 0x20 DUP2 ADD SWAP1 POP PUSH2 0x1EBF JUMP JUMPDEST DUP7 DUP4 LT ISZERO PUSH2 0x1F01 JUMPI DUP5 DUP10 ADD MLOAD PUSH2 0x1EFD PUSH1 0x1F DUP10 AND DUP3 PUSH2 0x1E0A JUMP JUMPDEST DUP4 SSTORE POP JUMPDEST PUSH1 0x1 PUSH1 0x2 DUP9 MUL ADD DUP9 SSTORE POP POP POP JUMPDEST POP POP POP POP POP POP JUMP JUMPDEST PUSH32 0x756E617574686F72697A65640000000000000000000000000000000000000000 PUSH1 0x0 DUP3 ADD MSTORE POP JUMP JUMPDEST PUSH1 0x0 PUSH2 0x1F4C PUSH1 0xC DUP4 PUSH2 0x17C6 JUMP JUMPDEST SWAP2 POP PUSH2 0x1F57 DUP3 PUSH2 0x1F16 JUMP JUMPDEST PUSH1 0x20 DUP3 ADD SWAP1 POP SWAP2 SWAP1 POP JUMP JUMPDEST PUSH1 0x0 PUSH1 0x20 DUP3 ADD SWAP1 POP DUP2 DUP2 SUB PUSH1 0x0 DUP4 ADD MSTORE PUSH2 0x1F7B DUP2 PUSH2 0x1F3F JUMP JUMPDEST SWAP1 POP SWAP2 SWAP1 POP JUMP JUMPDEST PUSH32 0x4E487B7100000000000000000000000000000000000000000000000000000000 PUSH1 0x0 MSTORE PUSH1 0x32 PUSH1 0x4 MSTORE PUSH1 0x24 PUSH1 0x0 REVERT JUMPDEST PUSH1 0x0 DUP3 SWAP1 POP SWAP3 SWAP2 POP POP JUMP JUMPDEST PUSH2 0x1FC6 DUP4 DUP4 PUSH2 0x1FB1 JUMP JUMPDEST PUSH8 0xFFFFFFFFFFFFFFFF DUP2 GT ISZERO PUSH2 0x1FDF JUMPI PUSH2 0x1FDE PUSH2 0x1832 JUMP JUMPDEST JUMPDEST PUSH2 0x1FE9 DUP3 SLOAD PUSH2 0x1C67 JUMP JUMPDEST PUSH2 0x1FF4 DUP3 DUP3 DUP6 PUSH2 0x1DB7 JUMP JUMPDEST PUSH1 0x0 PUSH1 0x1F DUP4 GT PUSH1 0x1 DUP2 EQ PUSH2 0x2023 JUMPI PUSH1 0x0 DUP5 ISZERO PUSH2 0x2011 JUMPI DUP3 DUP8 ADD CALLDATALOAD SWAP1 POP JUMPDEST PUSH2 0x201B DUP6 DUP3 PUSH2 0x1E28 JUMP JUMPDEST DUP7 SSTORE POP PUSH2 0x2083 JUMP JUMPDEST PUSH1 0x1F NOT DUP5 AND PUSH2 0x2031 DUP7 PUSH2 0x1C98 JUMP JUMPDEST PUSH1 0x0 JUMPDEST DUP3 DUP2 LT ISZERO PUSH2 0x2059 JUMPI DUP5 DUP10 ADD CALLDATALOAD DUP3 SSTORE PUSH1 0x1 DUP3 ADD SWAP2 POP PUSH1 0x20 DUP6 ADD SWAP5 POP PUSH1 0x20 DUP2 ADD SWAP1 POP PUSH2 0x2034 JUMP JUMPDEST DUP7 DUP4 LT ISZERO PUSH2 0x2076 JUMPI DUP5 DUP10 ADD CALLDATALOAD PUSH2 0x2072 PUSH1 0x1F DUP10 AND DUP3 PUSH2 0x1E0A JUMP JUMPDEST DUP4 SSTORE POP JUMPDEST PUSH1 0x1 PUSH1 0x2 DUP9 MUL ADD DUP9 SSTORE POP POP POP JUMPDEST POP POP POP POP POP POP POP JUMP JUMPDEST PUSH1 0x0 PUSH1 0xFF DUP3 AND SWAP1 POP SWAP2 SWAP1 POP JUMP JUMPDEST PUSH2 0x20A2 DUP2 PUSH2 0x208C JUMP JUMPDEST DUP3 MSTORE POP POP JUMP JUMPDEST PUSH1 0x0 DUP2 SWAP1 POP SWAP2 SWAP1 POP JUMP JUMPDEST PUSH1 0x0 PUSH2 0x20CD PUSH2 0x20C8 PUSH2 0x20C3 DUP5 PUSH2 0x20A8 JUMP JUMPDEST PUSH2 0x1D1C JUMP JUMPDEST PUSH2 0x1583 JUMP JUMPDEST SWAP1 POP SWAP2 SWAP1 POP JUMP JUMPDEST PUSH2 0x20DD DUP2 PUSH2 0x20B2 JUMP JUMPDEST DUP3 MSTORE POP POP JUMP JUMPDEST PUSH1 0x0 PUSH1 0x40 DUP3 ADD SWAP1 POP PUSH2 0x20F8 PUSH1 0x0 DUP4 ADD DUP6 PUSH2 0x2099 JUMP JUMPDEST PUSH2 0x2105 PUSH1 0x20 DUP4 ADD DUP5 PUSH2 0x20D4 JUMP JUMPDEST SWAP4 SWAP3 POP POP POP JUMP JUMPDEST PUSH1 0x0 DUP2 MLOAD SWAP1 POP PUSH2 0x211B DUP2 PUSH2 0x1762 JUMP JUMPDEST SWAP3 SWAP2 POP POP JUMP JUMPDEST PUSH1 0x0 DUP1 PUSH1 0x0 PUSH1 0x60 DUP5 DUP7 SUB SLT ISZERO PUSH2 0x213A JUMPI PUSH2 0x2139 PUSH2 0x1410 JUMP JUMPDEST JUMPDEST PUSH1 0x0 PUSH2 0x2148 DUP7 DUP3 DUP8 ADD PUSH2 0x210C JUMP JUMPDEST SWAP4 POP POP PUSH1 0x20 PUSH2 0x2159 DUP7 DUP3 DUP8 ADD PUSH2 0x210C JUMP JUMPDEST SWAP3 POP POP PUSH1 0x40 PUSH2 0x216A DUP7 DUP3 DUP8 ADD PUSH2 0x210C JUMP JUMPDEST SWAP2 POP POP SWAP3 POP SWAP3 POP SWAP3 JUMP JUMPDEST PUSH2 0x217D DUP2 PUSH2 0x1B09 JUMP JUMPDEST DUP3 MSTORE POP POP JUMP JUMPDEST PUSH1 0x0 PUSH1 0x40 DUP3 ADD SWAP1 POP PUSH2 0x2198 PUSH1 0x0 DUP4 ADD DUP6 PUSH2 0x2174 JUMP JUMPDEST PUSH2 0x21A5 PUSH1 0x20 DUP4 ADD DUP5 PUSH2 0x1C0E JUMP JUMPDEST SWAP4 SWAP3 POP POP POP JUMP JUMPDEST PUSH1 0x0 PUSH8 0xFFFFFFFFFFFFFFFF DUP3 GT ISZERO PUSH2 0x21C7 JUMPI PUSH2 0x21C6 PUSH2 0x1832 JUMP JUMPDEST JUMPDEST PUSH1 0x20 DUP3 MUL SWAP1 POP PUSH1 0x20 DUP2 ADD SWAP1 POP SWAP2 SWAP1 POP JUMP JUMPDEST PUSH1 0x0 PUSH8 0xFFFFFFFFFFFFFFFF DUP3 GT ISZERO PUSH2 0x21F3 JUMPI PUSH2 0x21F2 PUSH2 0x1832 JUMP JUMPDEST JUMPDEST PUSH2 0x21FC DUP3 PUSH2 0x15E2 JUMP JUMPDEST SWAP1 POP PUSH1 0x20 DUP2 ADD SWAP1 POP SWAP2 SWAP1 POP JUMP JUMPDEST PUSH1 0x0 PUSH2 0x221C PUSH2 0x2217 DUP5 PUSH2 0x21D8 JUMP JUMPDEST PUSH2 0x1892 JUMP JUMPDEST SWAP1 POP DUP3 DUP2 MSTORE PUSH1 0x20 DUP2 ADD DUP5 DUP5 DUP5 ADD GT ISZERO PUSH2 0x2238 JUMPI PUSH2 0x2237 PUSH2 0x18E3 JUMP JUMPDEST JUMPDEST PUSH2 0x2243 DUP5 DUP3 DUP6 PUSH2 0x15B8 JUMP JUMPDEST POP SWAP4 SWAP3 POP POP POP JUMP JUMPDEST PUSH1 0x0 DUP3 PUSH1 0x1F DUP4 ADD SLT PUSH2 0x2260 JUMPI PUSH2 0x225F PUSH2 0x141A JUMP JUMPDEST JUMPDEST DUP2 MLOAD PUSH2 0x2270 DUP5 DUP3 PUSH1 0x20 DUP7 ADD PUSH2 0x2209 JUMP JUMPDEST SWAP2 POP POP SWAP3 SWAP2 POP POP JUMP JUMPDEST PUSH1 0x0 PUSH2 0x228C PUSH2 0x2287 DUP5 PUSH2 0x21AC JUMP JUMPDEST PUSH2 0x1892 JUMP JUMPDEST SWAP1 POP DUP1 DUP4 DUP3 MSTORE PUSH1 0x20 DUP3 ADD SWAP1 POP PUSH1 0x20 DUP5 MUL DUP4 ADD DUP6 DUP2 GT ISZERO PUSH2 0x22AF JUMPI PUSH2 0x22AE PUSH2 0x1424 JUMP JUMPDEST JUMPDEST DUP4 JUMPDEST DUP2 DUP2 LT ISZERO PUSH2 0x22F6 JUMPI DUP1 MLOAD PUSH8 0xFFFFFFFFFFFFFFFF DUP2 GT ISZERO PUSH2 0x22D4 JUMPI PUSH2 0x22D3 PUSH2 0x141A JUMP JUMPDEST JUMPDEST DUP1 DUP7 ADD PUSH2 0x22E1 DUP10 DUP3 PUSH2 0x224B JUMP JUMPDEST DUP6 MSTORE PUSH1 0x20 DUP6 ADD SWAP5 POP POP POP PUSH1 0x20 DUP2 ADD SWAP1 POP PUSH2 0x22B1 JUMP JUMPDEST POP POP POP SWAP4 SWAP3 POP POP POP JUMP JUMPDEST PUSH1 0x0 DUP3 PUSH1 0x1F DUP4 ADD SLT PUSH2 0x2315 JUMPI PUSH2 0x2314 PUSH2 0x141A JUMP JUMPDEST JUMPDEST DUP2 MLOAD PUSH2 0x2325 DUP5 DUP3 PUSH1 0x20 DUP7 ADD PUSH2 0x2279 JUMP JUMPDEST SWAP2 POP POP SWAP3 SWAP2 POP POP JUMP JUMPDEST PUSH1 0x0 PUSH1 0x20 DUP3 DUP5 SUB SLT ISZERO PUSH2 0x2344 JUMPI PUSH2 0x2343 PUSH2 0x1410 JUMP JUMPDEST JUMPDEST PUSH1 0x0 DUP3 ADD MLOAD PUSH8 0xFFFFFFFFFFFFFFFF DUP2 GT ISZERO PUSH2 0x2362 JUMPI PUSH2 0x2361 PUSH2 0x1415 JUMP JUMPDEST JUMPDEST PUSH2 0x236E DUP5 DUP3 DUP6 ADD PUSH2 0x2300 JUMP JUMPDEST SWAP2 POP POP SWAP3 SWAP2 POP POP JUMP JUMPDEST PUSH2 0x2380 DUP2 PUSH2 0x1B09 JUMP JUMPDEST DUP3 MSTORE POP POP JUMP JUMPDEST PUSH2 0x238F DUP2 PUSH2 0x208C JUMP JUMPDEST DUP3 MSTORE POP POP JUMP JUMPDEST PUSH1 0x40 DUP3 ADD PUSH1 0x0 DUP3 ADD MLOAD PUSH2 0x23AB PUSH1 0x0 DUP6 ADD DUP3 PUSH2 0x2377 JUMP JUMPDEST POP PUSH1 0x20 DUP3 ADD MLOAD PUSH2 0x23BE PUSH1 0x20 DUP6 ADD DUP3 PUSH2 0x2386 JUMP JUMPDEST POP POP POP POP JUMP JUMPDEST PUSH1 0x0 PUSH1 0x40 DUP3 ADD SWAP1 POP PUSH2 0x23D9 PUSH1 0x0 DUP4 ADD DUP5 PUSH2 0x2395 JUMP JUMPDEST SWAP3 SWAP2 POP POP JUMP JUMPDEST PUSH2 0x23E8 DUP2 PUSH2 0x1583 JUMP JUMPDEST DUP3 MSTORE POP POP JUMP JUMPDEST PUSH1 0x0 PUSH1 0x60 DUP3 ADD SWAP1 POP PUSH2 0x2403 PUSH1 0x0 DUP4 ADD DUP7 PUSH2 0x2174 JUMP JUMPDEST PUSH2 0x2410 PUSH1 0x20 DUP4 ADD DUP6 PUSH2 0x1C0E JUMP JUMPDEST PUSH2 0x241D PUSH1 0x40 DUP4 ADD DUP5 PUSH2 0x23DF JUMP JUMPDEST SWAP5 SWAP4 POP POP POP POP JUMP JUMPDEST PUSH1 0x0 PUSH1 0x20 DUP3 DUP5 SUB SLT ISZERO PUSH2 0x243B JUMPI PUSH2 0x243A PUSH2 0x1410 JUMP JUMPDEST JUMPDEST PUSH1 0x0 DUP3 ADD MLOAD PUSH8 0xFFFFFFFFFFFFFFFF DUP2 GT ISZERO PUSH2 0x2459 JUMPI PUSH2 0x2458 PUSH2 0x1415 JUMP JUMPDEST JUMPDEST PUSH2 0x2465 DUP5 DUP3 DUP6 ADD PUSH2 0x224B JUMP JUMPDEST SWAP2 POP POP SWAP3 SWAP2 POP POP JUMP JUMPDEST PUSH32 0x4E487B7100000000000000000000000000000000000000000000000000000000 PUSH1 0x0 MSTORE PUSH1 0x11 PUSH1 0x4 MSTORE PUSH1 0x24 PUSH1 0x0 REVERT JUMPDEST PUSH1 0x0 PUSH2 0x24A8 DUP3 PUSH2 0x1583 JUMP JUMPDEST SWAP2 POP PUSH32 0xFFFFFFFFFFFFFFFFFFFFFFFFFFFFFFFFFFFFFFFFFFFFFFFFFFFFFFFFFFFFFFFF DUP3 SUB PUSH2 0x24DA JUMPI PUSH2 0x24D9 PUSH2 0x246E JUMP JUMPDEST JUMPDEST PUSH1 0x1 DUP3 ADD SWAP1 POP SWAP2 SWAP1 POP JUMP JUMPDEST PUSH1 0x0 PUSH1 0xA0 DUP4 ADD PUSH1 0x0 DUP4 ADD MLOAD PUSH2 0x24FD PUSH1 0x0 DUP7 ADD DUP3 PUSH2 0x2377 JUMP JUMPDEST POP PUSH1 0x20 DUP4 ADD MLOAD PUSH2 0x2510 PUSH1 0x20 DUP7 ADD DUP3 PUSH2 0x158D JUMP JUMPDEST POP PUSH1 0x40 DUP4 ADD MLOAD PUSH2 0x2523 PUSH1 0x40 DUP7 ADD DUP3 PUSH2 0x2377 JUMP JUMPDEST POP PUSH1 0x60 DUP4 ADD MLOAD DUP5 DUP3 SUB PUSH1 0x60 DUP7 ADD MSTORE PUSH2 0x253B DUP3 DUP3 PUSH2 0x15F3 JUMP JUMPDEST SWAP2 POP POP PUSH1 0x80 DUP4 ADD MLOAD PUSH2 0x2550 PUSH1 0x80 DUP7 ADD DUP3 PUSH2 0x1638 JUMP JUMPDEST POP DUP1 SWAP2 POP POP SWAP3 SWAP2 POP POP JUMP JUMPDEST PUSH1 0x0 PUSH1 0x20 DUP3 ADD SWAP1 POP DUP2 DUP2 SUB PUSH1 0x0 DUP4 ADD MSTORE PUSH2 0x2575 DUP2 DUP5 PUSH2 0x24E5 JUMP JUMPDEST SWAP1 POP SWAP3 SWAP2 POP POP JUMP JUMPDEST PUSH1 0x0 DUP2 SWAP1 POP SWAP3 SWAP2 POP POP JUMP JUMPDEST PUSH1 0x0 PUSH2 0x2593 DUP3 PUSH2 0x159C JUMP JUMPDEST PUSH2 0x259D DUP2 DUP6 PUSH2 0x257D JUMP JUMPDEST SWAP4 POP PUSH2 0x25AD DUP2 DUP6 PUSH1 0x20 DUP7 ADD PUSH2 0x15B8 JUMP JUMPDEST DUP1 DUP5 ADD SWAP2 POP POP SWAP3 SWAP2 POP POP JUMP JUMPDEST PUSH1 0x0 PUSH2 0x25C5 DUP3 DUP6 PUSH2 0x2588 JUMP JUMPDEST SWAP2 POP PUSH2 0x25D1 DUP3 DUP5 PUSH2 0x2588 JUMP JUMPDEST SWAP2 POP DUP2 SWAP1 POP SWAP4 SWAP3 POP POP POP JUMP JUMPDEST PUSH1 0x0 DUP2 PUSH1 0x60 SHL SWAP1 POP SWAP2 SWAP1 POP JUMP JUMPDEST PUSH1 0x0 PUSH2 0x25F5 DUP3 PUSH2 0x25DD JUMP JUMPDEST SWAP1 POP SWAP2 SWAP1 POP JUMP JUMPDEST PUSH1 0x0 PUSH2 0x2607 DUP3 PUSH2 0x25EA JUMP JUMPDEST SWAP1 POP SWAP2 SWAP1 POP JUMP JUMPDEST PUSH2 0x261F PUSH2 0x261A DUP3 PUSH2 0x14EC JUMP JUMPDEST PUSH2 0x25FC JUMP JUMPDEST DUP3 MSTORE POP POP JUMP JUMPDEST PUSH1 0x0 PUSH2 0x2631 DUP3 DUP5 PUSH2 0x260E JUMP JUMPDEST PUSH1 0x14 DUP3 ADD SWAP2 POP DUP2 SWAP1 POP SWAP3 SWAP2 POP POP JUMP JUMPDEST PUSH1 0x0 PUSH2 0x264B DUP3 PUSH2 0x208C JUMP JUMPDEST SWAP2 POP PUSH2 0x2656 DUP4 PUSH2 0x208C JUMP JUMPDEST SWAP3 POP DUP3 DUP3 ADD SWAP1 POP PUSH1 0xFF DUP2 GT ISZERO PUSH2 0x266F JUMPI PUSH2 0x266E PUSH2 0x246E JUMP JUMPDEST JUMPDEST SWAP3 SWAP2 POP POP JUMP JUMPDEST PUSH32 0x4E487B7100000000000000000000000000000000000000000000000000000000 PUSH1 0x0 MSTORE PUSH1 0x12 PUSH1 0x4 MSTORE PUSH1 0x24 PUSH1 0x0 REVERT JUMPDEST PUSH1 0x0 PUSH2 0x26AF DUP3 PUSH2 0x1583 JUMP JUMPDEST SWAP2 POP PUSH2 0x26BA DUP4 PUSH2 0x1583 JUMP JUMPDEST SWAP3 POP DUP3 PUSH2 0x26CA JUMPI PUSH2 0x26C9 PUSH2 0x2675 JUMP JUMPDEST JUMPDEST DUP3 DUP3 DIV SWAP1 POP SWAP3 SWAP2 POP POP JUMP JUMPDEST PUSH1 0x0 PUSH2 0x26E0 DUP3 PUSH2 0x1583 JUMP JUMPDEST SWAP2 POP PUSH2 0x26EB DUP4 PUSH2 0x1583 JUMP JUMPDEST SWAP3 POP DUP3 DUP3 MUL PUSH2 0x26F9 DUP2 PUSH2 0x1583 JUMP JUMPDEST SWAP2 POP DUP3 DUP3 DIV DUP5 EQ DUP4 ISZERO OR PUSH2 0x2710 JUMPI PUSH2 0x270F PUSH2 0x246E JUMP JUMPDEST JUMPDEST POP SWAP3 SWAP2 POP POP JUMP JUMPDEST PUSH1 0x0 PUSH2 0x2722 DUP3 PUSH2 0x1583 JUMP JUMPDEST SWAP2 POP PUSH2 0x272D DUP4 PUSH2 0x1583 JUMP JUMPDEST SWAP3 POP DUP3 DUP3 ADD SWAP1 POP DUP1 DUP3 GT ISZERO PUSH2 0x2745 JUMPI PUSH2 0x2744 PUSH2 0x246E JUMP JUMPDEST JUMPDEST SWAP3 SWAP2 POP POP JUMP JUMPDEST PUSH1 0x0 PUSH2 0x2756 DUP3 PUSH2 0x1583 JUMP JUMPDEST SWAP2 POP PUSH2 0x2761 DUP4 PUSH2 0x1583 JUMP JUMPDEST SWAP3 POP DUP3 DUP3 SUB SWAP1 POP DUP2 DUP2 GT ISZERO PUSH2 0x2779 JUMPI PUSH2 0x2778 PUSH2 0x246E JUMP JUMPDEST JUMPDEST SWAP3 SWAP2 POP POP JUMP JUMPDEST PUSH1 0x0 DUP2 PUSH1 0x1 SHR SWAP1 POP SWAP2 SWAP1 POP JUMP JUMPDEST PUSH1 0x0 DUP1 DUP3 SWAP2 POP DUP4 SWAP1 POP JUMPDEST PUSH1 0x1 DUP6 GT ISZERO PUSH2 0x27D6 JUMPI DUP1 DUP7 DIV DUP2 GT ISZERO PUSH2 0x27B2 JUMPI PUSH2 0x27B1 PUSH2 0x246E JUMP JUMPDEST JUMPDEST PUSH1 0x1 DUP6 AND ISZERO PUSH2 0x27C1 JUMPI DUP1 DUP3 MUL SWAP2 POP JUMPDEST DUP1 DUP2 MUL SWAP1 POP PUSH2 0x27CF DUP6 PUSH2 0x277F JUMP JUMPDEST SWAP5 POP PUSH2 0x2796 JUMP JUMPDEST SWAP5 POP SWAP5 SWAP3 POP POP POP JUMP JUMPDEST PUSH1 0x0 DUP3 PUSH2 0x27EF JUMPI PUSH1 0x1 SWAP1 POP PUSH2 0x28AB JUMP JUMPDEST DUP2 PUSH2 0x27FD JUMPI PUSH1 0x0 SWAP1 POP PUSH2 0x28AB JUMP JUMPDEST DUP2 PUSH1 0x1 DUP2 EQ PUSH2 0x2813 JUMPI PUSH1 0x2 DUP2 EQ PUSH2 0x281D JUMPI PUSH2 0x284C JUMP JUMPDEST PUSH1 0x1 SWAP2 POP POP PUSH2 0x28AB JUMP JUMPDEST PUSH1 0xFF DUP5 GT ISZERO PUSH2 0x282F JUMPI PUSH2 0x282E PUSH2 0x246E JUMP JUMPDEST JUMPDEST DUP4 PUSH1 0x2 EXP SWAP2 POP DUP5 DUP3 GT ISZERO PUSH2 0x2846 JUMPI PUSH2 0x2845 PUSH2 0x246E JUMP JUMPDEST JUMPDEST POP PUSH2 0x28AB JUMP JUMPDEST POP PUSH1 0x20 DUP4 LT PUSH2 0x133 DUP4 LT AND PUSH1 0x4E DUP5 LT PUSH1 0xB DUP5 LT AND OR ISZERO PUSH2 0x2881 JUMPI DUP3 DUP3 EXP SWAP1 POP DUP4 DUP2 GT ISZERO PUSH2 0x287C JUMPI PUSH2 0x287B PUSH2 0x246E JUMP JUMPDEST JUMPDEST PUSH2 0x28AB JUMP JUMPDEST PUSH2 0x288E DUP5 DUP5 DUP5 PUSH1 0x1 PUSH2 0x278C JUMP JUMPDEST SWAP3 POP SWAP1 POP DUP2 DUP5 DIV DUP2 GT ISZERO PUSH2 0x28A5 JUMPI PUSH2 0x28A4 PUSH2 0x246E JUMP JUMPDEST JUMPDEST DUP2 DUP2 MUL SWAP1 POP JUMPDEST SWAP4 SWAP3 POP POP POP JUMP JUMPDEST PUSH1 0x0 PUSH2 0x28BD DUP3 PUSH2 0x1583 JUMP JUMPDEST SWAP2 POP PUSH2 0x28C8 DUP4 PUSH2 0x1583 JUMP JUMPDEST SWAP3 POP PUSH2 0x28F5 PUSH32 0xFFFFFFFFFFFFFFFFFFFFFFFFFFFFFFFFFFFFFFFFFFFFFFFFFFFFFFFFFFFFFFFF DUP5 DUP5 PUSH2 0x27DF JUMP JUMPDEST SWAP1 POP SWAP3 SWAP2 POP POP JUMP JUMPDEST PUSH1 0x0 PUSH2 0x2908 DUP3 PUSH2 0x1583 JUMP JUMPDEST SWAP2 POP PUSH2 0x2913 DUP4 PUSH2 0x1583 JUMP JUMPDEST SWAP3 POP DUP3 PUSH2 0x2923 JUMPI PUSH2 0x2922 PUSH2 0x2675 JUMP JUMPDEST JUMPDEST DUP3 DUP3 MOD SWAP1 POP SWAP3 SWAP2 POP POP JUMP JUMPDEST PUSH1 0x0 DUP2 SWAP1 POP SWAP2 SWAP1 POP JUMP JUMPDEST PUSH2 0x2949 PUSH2 0x2944 DUP3 PUSH2 0x1583 JUMP JUMPDEST PUSH2 0x292E JUMP JUMPDEST DUP3 MSTORE POP POP JUMP JUMPDEST PUSH1 0x0 PUSH2 0x295B DUP3 DUP5 PUSH2 0x2938 JUMP JUMPDEST PUSH1 0x20 DUP3 ADD SWAP2 POP DUP2 SWAP1 POP SWAP3 SWAP2 POP POP JUMP INVALID LOG2 PUSH5 0x6970667358 0x22 SLT KECCAK256 0xC1 TIMESTAMP SELFBALANCE 0xCA MOD 0xB3 SWAP1 BLOCKHASH GASLIMIT ISZERO 0x29 PUSH21 0x610AAFB217C99A2839E04A72AAD5C9961FCEE92B64 PUSH20 0x6F6C634300081800330000000000000000000000 "
        },
        "methodIdentifiers": {
          "_executor()": "fb1a746f",
          "createStrategy(bytes)": "20d2a585",
          "execute((address,address,bytes,uint256,uint256,uint256)[],uint256,bytes32)": "71dc811f",
          "getAccountStrategies(address)": "53cad60f",
          "getStrategyAddress(uint256)": "6ccf2fa7",
          "setStrategy(uint256,bytes)": "f786fdf6"
        }
      }
    }
  }
}