{
  "contracts/AccountManager.sol": {
    "AccountManager": {
      "abi": [
        {
          "inputs": [
            {
              "internalType": "address",
              "name": "zrSign",
              "type": "address"
            }
          ],
          "stateMutability": "nonpayable",
          "type": "constructor"
        },
        {
          "anonymous": false,
          "inputs": [
            {
              "indexed": true,
              "internalType": "address",
              "name": "from",
              "type": "address"
            },
            {
              "indexed": true,
              "internalType": "uint256",
              "name": "nonce",
              "type": "uint256"
            },
            {
              "indexed": false,
              "internalType": "uint256",
              "name": "id",
              "type": "uint256"
            },
            {
              "indexed": false,
              "internalType": "string",
              "name": "chainId",
              "type": "string"
            },
            {
              "indexed": false,
              "internalType": "bytes32",
              "name": "txHash",
              "type": "bytes32"
            }
          ],
          "name": "NewTransaction",
          "type": "event"
        },
        {
          "inputs": [
            {
              "internalType": "bytes",
              "name": "data",
              "type": "bytes"
            }
          ],
          "name": "createAccount",
          "outputs": [],
          "stateMutability": "nonpayable",
          "type": "function"
        },
        {
          "inputs": [],
          "name": "createGasProvider",
          "outputs": [],
          "stateMutability": "nonpayable",
          "type": "function"
        },
        {
          "inputs": [
            {
              "components": [
                {
                  "internalType": "uint256",
                  "name": "id",
                  "type": "uint256"
                },
                {
                  "internalType": "address",
                  "name": "to",
                  "type": "address"
                },
                {
                  "internalType": "bytes",
                  "name": "data",
                  "type": "bytes"
                },
                {
                  "internalType": "uint256",
                  "name": "gasPrice",
                  "type": "uint256"
                },
                {
                  "internalType": "uint256",
                  "name": "gasLimit",
                  "type": "uint256"
                },
                {
                  "internalType": "uint256",
                  "name": "value",
                  "type": "uint256"
                },
                {
                  "internalType": "string",
                  "name": "chainId",
                  "type": "string"
                }
              ],
              "internalType": "struct TransactionParams[]",
              "name": "payloads",
              "type": "tuple[]"
            },
            {
              "internalType": "uint256",
              "name": "zrWalletIndex",
              "type": "uint256"
            },
            {
              "internalType": "bytes",
              "name": "updatedAccountData",
              "type": "bytes"
            }
          ],
          "name": "execute",
          "outputs": [],
          "stateMutability": "payable",
          "type": "function"
        },
        {
          "inputs": [
            {
              "internalType": "address",
              "name": "owner",
              "type": "address"
            }
          ],
          "name": "getAccount",
          "outputs": [
            {
              "components": [
                {
                  "internalType": "uint256",
                  "name": "zrWalletIndex",
                  "type": "uint256"
                },
                {
                  "internalType": "bytes",
                  "name": "data",
                  "type": "bytes"
                },
                {
                  "internalType": "address",
                  "name": "eoa",
                  "type": "address"
                },
                {
                  "internalType": "bool",
                  "name": "active",
                  "type": "bool"
                },
                {
                  "internalType": "bool",
                  "name": "created",
                  "type": "bool"
                }
              ],
              "internalType": "struct Account",
              "name": "",
              "type": "tuple"
            }
          ],
          "stateMutability": "view",
          "type": "function"
        },
        {
          "inputs": [
            {
              "internalType": "bytes",
              "name": "data",
              "type": "bytes"
            }
          ],
          "name": "setAccountData",
          "outputs": [],
          "stateMutability": "nonpayable",
          "type": "function"
        },
        {
          "stateMutability": "payable",
          "type": "receive"
        }
      ],
      "evm": {
        "bytecode": {
          "linkReferences": {},
          "object": "60c06040523480156200001157600080fd5b506040516200329438038062003294833981810160405281019062000037919062000112565b808073ffffffffffffffffffffffffffffffffffffffff1660808173ffffffffffffffffffffffffffffffffffffffff1681525050503373ffffffffffffffffffffffffffffffffffffffff1660a08173ffffffffffffffffffffffffffffffffffffffff16815250505062000144565b600080fd5b600073ffffffffffffffffffffffffffffffffffffffff82169050919050565b6000620000da82620000ad565b9050919050565b620000ec81620000cd565b8114620000f857600080fd5b50565b6000815190506200010c81620000e1565b92915050565b6000602082840312156200012b576200012a620000a8565b5b60006200013b84828501620000fb565b91505092915050565b60805160a0516131076200018d60003960006102c8015260008181610c7f01528181610eaf01528181610f7e01528181611016015281816110b801526111bf01526131076000f3fe60806040526004361061004e5760003560e01c80633c58e0541461005a57806350b28ab21461008357806366a096b21461009f578063a9ea858f146100b6578063fbcbc0f1146100df57610055565b3661005557005b600080fd5b34801561006657600080fd5b50610081600480360381019061007c9190611c57565b61011c565b005b61009d60048036038101906100989190611fb1565b61016e565b005b3480156100ab57600080fd5b506100b46102c6565b005b3480156100c257600080fd5b506100dd60048036038101906100d89190611c57565b6103ad565b005b3480156100eb57600080fd5b506101066004803603810190610101919061203c565b6103ba565b6040516101139190612197565b60405180910390f35b806000803373ffffffffffffffffffffffffffffffffffffffff1673ffffffffffffffffffffffffffffffffffffffff168152602001908152602001600020600101908161016a91906123c5565b5050565b6000610179336103ba565b9050806000015183146101c1576040517f08c379a00000000000000000000000000000000000000000000000000000000081526004016101b8906124f4565b60405180910390fd5b6000805b85518110156102675760008682815181106101e3576101e2612514565b5b602002602001015190506000816060015182608001516102039190612572565b9050610222826000015186604001518385606001518660c001516105a5565b61024c88848151811061023857610237612514565b5b6020026020010151883388604001516107d4565b808461025891906125b4565b935050508060010190506101c5565b50803410156102ab576040517f08c379a00000000000000000000000000000000000000000000000000000000081526004016102a290612634565b60405180910390fd5b6000835111156102bf576102be8361011c565b5b5050505050565b7f000000000000000000000000000000000000000000000000000000000000000073ffffffffffffffffffffffffffffffffffffffff163373ffffffffffffffffffffffffffffffffffffffff1614610354576040517f08c379a000000000000000000000000000000000000000000000000000000000815260040161034b906124f4565b60405180910390fd5b6103ab30600067ffffffffffffffff81111561037357610372611b2c565b5b6040519080825280601f01601f1916602001820160405280156103a55781602001600182028036833780820191505090505b5061097e565b565b6103b7338261097e565b50565b6103c2611ab4565b60008060008473ffffffffffffffffffffffffffffffffffffffff1673ffffffffffffffffffffffffffffffffffffffff1681526020019081526020016000206040518060a001604052908160008201548152602001600182018054610427906121e8565b80601f0160208091040260200160405190810160405280929190818152602001828054610453906121e8565b80156104a05780601f10610475576101008083540402835291602001916104a0565b820191906000526020600020905b81548152906001019060200180831161048357829003601f168201915b505050505081526020016002820160009054906101000a900473ffffffffffffffffffffffffffffffffffffffff1673ffffffffffffffffffffffffffffffffffffffff1673ffffffffffffffffffffffffffffffffffffffff1681526020016002820160149054906101000a900460ff161515151581526020016002820160159054906101000a900460ff161515151581525050905060606105468260000151610c76565b836080018115151515815250819250505080610561906126a5565b60601c826040019073ffffffffffffffffffffffffffffffffffffffff16908173ffffffffffffffffffffffffffffffffffffffff16815250508192505050919050565b60006040518060e001604052808781526020018673ffffffffffffffffffffffffffffffffffffffff168152602001600067ffffffffffffffff8111156105ef576105ee611b2c565b5b6040519080825280601f01601f1916602001820160405280156106215781602001600182028036833780820191505090505b508152602001848152602001620186a0815260200185815260200183815250905060008060003073ffffffffffffffffffffffffffffffffffffffff1673ffffffffffffffffffffffffffffffffffffffff1681526020019081526020016000206040518060a0016040529081600082015481526020016001820180546106a7906121e8565b80601f01602080910402602001604051908101604052809291908181526020018280546106d3906121e8565b80156107205780601f106106f557610100808354040283529160200191610720565b820191906000526020600020905b81548152906001019060200180831161070357829003601f168201915b505050505081526020016002820160009054906101000a900473ffffffffffffffffffffffffffffffffffffffff1673ffffffffffffffffffffffffffffffffffffffff1673ffffffffffffffffffffffffffffffffffffffff1681526020016002820160149054906101000a900460ff161515151581526020016002820160159054906101000a900460ff16151515158152505090506107cb8282600001513084604001516107d4565b50505050505050565b60006107e38560c00151610dcd565b90506000600160008681526020019081526020016000206000838152602001908152602001600020549050600061081d8760400151610e21565b9050600061083f8389606001518a608001518b602001518c60a0015187610e33565b90506108727fe146c2986893c43af5ff396310220be92058fb9f4ce76b929b80ef0d5307100a60001b8886846001610eab565b600083036108d55760016000808873ffffffffffffffffffffffffffffffffffffffff1673ffffffffffffffffffffffffffffffffffffffff16815260200190815260200160002060020160146101000a81548160ff0219169083151502179055505b600081805190602001209050838673ffffffffffffffffffffffffffffffffffffffff167f2325a549167b1e94e6b80c2b41c84ff60c939e85061c375df8cb7227de0d859b8b600001518c60c001518560405161093493929190612778565b60405180910390a38380610947906127b6565b94505083600160008a8152602001908152602001600020600087815260200190815260200160002081905550505050505050505050565b60008060008473ffffffffffffffffffffffffffffffffffffffff1673ffffffffffffffffffffffffffffffffffffffff1681526020019081526020016000206040518060a0016040529081600082015481526020016001820180546109e3906121e8565b80601f0160208091040260200160405190810160405280929190818152602001828054610a0f906121e8565b8015610a5c5780601f10610a3157610100808354040283529160200191610a5c565b820191906000526020600020905b815481529060010190602001808311610a3f57829003601f168201915b505050505081526020016002820160009054906101000a900473ffffffffffffffffffffffffffffffffffffffff1673ffffffffffffffffffffffffffffffffffffffff1673ffffffffffffffffffffffffffffffffffffffff1681526020016002820160149054906101000a900460ff161515151581526020016002820160159054906101000a900460ff1615151515815250509050806060015115610b38576040517f08c379a0000000000000000000000000000000000000000000000000000000008152600401610b2f9061284a565b60405180910390fd5b6000610b42611011565b90506040518060a00160405280828152602001848152602001600073ffffffffffffffffffffffffffffffffffffffff168152602001600015158152602001600015158152506000808673ffffffffffffffffffffffffffffffffffffffff1673ffffffffffffffffffffffffffffffffffffffff168152602001908152602001600020600082015181600001556020820151816001019081610be591906123c5565b5060408201518160020160006101000a81548173ffffffffffffffffffffffffffffffffffffffff021916908373ffffffffffffffffffffffffffffffffffffffff16021790555060608201518160020160146101000a81548160ff02191690831515021790555060808201518160020160156101000a81548160ff02191690831515021790555090505050505050565b606060008060007f000000000000000000000000000000000000000000000000000000000000000073ffffffffffffffffffffffffffffffffffffffff1663187e581860e01b7fe146c2986893c43af5ff396310220be92058fb9f4ce76b929b80ef0d5307100a60001b3088604051602401610cf493929190612879565b604051602081830303815290604052907bffffffffffffffffffffffffffffffffffffffffffffffffffffffff19166020820180517bffffffffffffffffffffffffffffffffffffffffffffffffffffffff8381831617835250505050604051610d5e91906128ec565b600060405180830381855afa9150503d8060008114610d99576040519150601f19603f3d011682016040523d82523d6000602084013e610d9e565b606091505b50915091508115610dc05780806020019051810190610dbd9190612973565b93505b8382935093505050915091565b60008082604051602001610de19190612a1e565b604051602081830303815290604052905080604051602001610e039190612a44565b60405160208183030381529060405280519060200120915050919050565b6060610e2c8261124e565b9050919050565b60606000610e40886112cc565b90506000610e4d886112cc565b90506000610e5a886112cc565b90506000610e7d8873ffffffffffffffffffffffffffffffffffffffff166112e6565b90506000610e8a886112cc565b9050610e9a85858585858c611317565b955050505050509695505050505050565b60007f000000000000000000000000000000000000000000000000000000000000000073ffffffffffffffffffffffffffffffffffffffff1663a213cbaa600160006040518363ffffffff1660e01b8152600401610f0a929190612ab2565b606060405180830381865afa158015610f27573d6000803e3d6000fd5b505050506040513d601f19601f82011682018060405250810190610f4b9190612af0565b9250505060006040518060a0016040528088815260200187815260200186815260200185815260200184151581525090507f000000000000000000000000000000000000000000000000000000000000000073ffffffffffffffffffffffffffffffffffffffff166393f874c483836040518363ffffffff1660e01b8152600401610fd69190612bc8565b6000604051808303818588803b158015610fef57600080fd5b505af1158015611003573d6000803e3d6000fd5b505050505050505050505050565b6000807f000000000000000000000000000000000000000000000000000000000000000073ffffffffffffffffffffffffffffffffffffffff1663a213cbaa600160006040518363ffffffff1660e01b8152600401611071929190612ab2565b606060405180830381865afa15801561108e573d6000803e3d6000fd5b505050506040513d601f19601f820116820180604052508101906110b29190612af0565b925050507f000000000000000000000000000000000000000000000000000000000000000073ffffffffffffffffffffffffffffffffffffffff1663a11a572d7fe146c2986893c43af5ff396310220be92058fb9f4ce76b929b80ef0d5307100a60001b306040518363ffffffff1660e01b8152600401611134929190612bea565b600060405180830381865afa158015611151573d6000803e3d6000fd5b505050506040513d6000823e3d601f19601f8201168201806040525081019061117a9190612cf4565b519150600060405180604001604052807fe146c2986893c43af5ff396310220be92058fb9f4ce76b929b80ef0d5307100a60001b8152602001600160ff1681525090507f000000000000000000000000000000000000000000000000000000000000000073ffffffffffffffffffffffffffffffffffffffff16635c706c9b83836040518363ffffffff1660e01b81526004016112179190612d7b565b6000604051808303818588803b15801561123057600080fd5b505af1158015611244573d6000803e3d6000fd5b5050505050505090565b60608060018351148015611286575060808360008151811061127357611272612514565b5b602001015160f81c60f81b60f81c60ff16105b15611293578290506112c3565b61129f835160806114b1565b836040516020016112b1929190612d96565b60405160208183030381529060405290505b80915050919050565b60606112df6112da836116fd565b61124e565b9050919050565b6060611310826040516020016112fc9190612e02565b60405160208183030381529060405261124e565b9050919050565b6060600061132560006112cc565b90506000600967ffffffffffffffff81111561134457611343611b2c565b5b60405190808252806020026020018201604052801561137757816020015b60608152602001906001900390816113625790505b509050888160008151811061138f5761138e612514565b5b602002602001018190525087816001815181106113af576113ae612514565b5b602002602001018190525086816002815181106113cf576113ce612514565b5b602002602001018190525085816003815181106113ef576113ee612514565b5b6020026020010181905250848160048151811061140f5761140e612514565b5b6020026020010181905250838160058151811061142f5761142e612514565b5b6020026020010181905250818160068151811061144f5761144e612514565b5b6020026020010181905250818160078151811061146f5761146e612514565b5b6020026020010181905250818160088151811061148f5761148e612514565b5b60200260200101819052506114a381611874565b925050509695505050505050565b606080603884101561156457600167ffffffffffffffff8111156114d8576114d7611b2c565b5b6040519080825280601f01601f19166020018201604052801561150a5781602001600182028036833780820191505090505b50905082846115199190612e1d565b60f81b816000815181106115305761152f612514565b5b60200101907effffffffffffffffffffffffffffffffffffffffffffffffffffffffffffff1916908160001a9053506116f3565b600080600190505b6000818761157a9190612e81565b146115a257818061158a906127b6565b9250506101008161159b9190612572565b905061156c565b6001826115af91906125b4565b67ffffffffffffffff8111156115c8576115c7611b2c565b5b6040519080825280601f01601f1916602001820160405280156115fa5781602001600182028036833780820191505090505b5092506037858361160b9190612e1d565b6116159190612e1d565b60f81b8360008151811061162c5761162b612514565b5b60200101907effffffffffffffffffffffffffffffffffffffffffffffffffffffffffffff1916908160001a905350600190505b8181116116f05761010081836116769190612eb2565b6101006116839190613019565b8761168e9190612e81565b6116989190613064565b60f81b8382815181106116ae576116ad612514565b5b60200101907effffffffffffffffffffffffffffffffffffffffffffffffffffffffffffff1916908160001a90535080806116e8906127b6565b915050611660565b50505b8091505092915050565b606060008260405160200161171291906130b6565b604051602081830303815290604052905060005b602081101561178657600060f81b82828151811061174757611746612514565b5b602001015160f81c60f81b7effffffffffffffffffffffffffffffffffffffffffffffffffffffffffffff191603611786578080600101915050611726565b60008160206117959190612eb2565b67ffffffffffffffff8111156117ae576117ad611b2c565b5b6040519080825280601f01601f1916602001820160405280156117e05781602001600182028036833780820191505090505b50905060005b8151811015611868578383806117fb906127b6565b94508151811061180e5761180d612514565b5b602001015160f81c60f81b82828151811061182c5761182b612514565b5b60200101907effffffffffffffffffffffffffffffffffffffffffffffffffffffffffffff1916908160001a90535080806001019150506117e6565b50809350505050919050565b60606000611881836118b8565b905061188f815160c06114b1565b816040516020016118a1929190612d96565b604051602081830303815290604052915050919050565b6060600082510361191857600067ffffffffffffffff8111156118de576118dd611b2c565b5b6040519080825280601f01601f1916602001820160405280156119105781602001600182028036833780820191505090505b509050611a39565b600080600090505b835181101561195f5783818151811061193c5761193b612514565b5b6020026020010151518261195091906125b4565b91508080600101915050611920565b60008267ffffffffffffffff81111561197b5761197a611b2c565b5b6040519080825280601f01601f1916602001820160405280156119ad5781602001600182028036833780820191505090505b5090506000602082019050600092505b8551831015611a315760008684815181106119db576119da612514565b5b6020026020010151905060006020820190506119f983828451611a3e565b878581518110611a0c57611a0b612514565b5b60200260200101515183611a2091906125b4565b9250505082806001019350506119bd565b819450505050505b919050565b6000839050600083905060008390505b60208110611a8c5781518352602083611a6791906125b4565b9250602082611a7691906125b4565b9150602081611a859190612eb2565b9050611a4e565b60006001826020036101000a0390508019835116818551168181178652505050505050505050565b6040518060a001604052806000815260200160608152602001600073ffffffffffffffffffffffffffffffffffffffff1681526020016000151581526020016000151581525090565b6000604051905090565b600080fd5b600080fd5b600080fd5b600080fd5b6000601f19601f8301169050919050565b7f4e487b7100000000000000000000000000000000000000000000000000000000600052604160045260246000fd5b611b6482611b1b565b810181811067ffffffffffffffff82111715611b8357611b82611b2c565b5b80604052505050565b6000611b96611afd565b9050611ba28282611b5b565b919050565b600067ffffffffffffffff821115611bc257611bc1611b2c565b5b611bcb82611b1b565b9050602081019050919050565b82818337600083830152505050565b6000611bfa611bf584611ba7565b611b8c565b905082815260208101848484011115611c1657611c15611b16565b5b611c21848285611bd8565b509392505050565b600082601f830112611c3e57611c3d611b11565b5b8135611c4e848260208601611be7565b91505092915050565b600060208284031215611c6d57611c6c611b07565b5b600082013567ffffffffffffffff811115611c8b57611c8a611b0c565b5b611c9784828501611c29565b91505092915050565b600067ffffffffffffffff821115611cbb57611cba611b2c565b5b602082029050602081019050919050565b600080fd5b600080fd5b600080fd5b6000819050919050565b611cee81611cdb565b8114611cf957600080fd5b50565b600081359050611d0b81611ce5565b92915050565b600073ffffffffffffffffffffffffffffffffffffffff82169050919050565b6000611d3c82611d11565b9050919050565b611d4c81611d31565b8114611d5757600080fd5b50565b600081359050611d6981611d43565b92915050565b600067ffffffffffffffff821115611d8a57611d89611b2c565b5b611d9382611b1b565b9050602081019050919050565b6000611db3611dae84611d6f565b611b8c565b905082815260208101848484011115611dcf57611dce611b16565b5b611dda848285611bd8565b509392505050565b600082601f830112611df757611df6611b11565b5b8135611e07848260208601611da0565b91505092915050565b600060e08284031215611e2657611e25611cd1565b5b611e3060e0611b8c565b90506000611e4084828501611cfc565b6000830152506020611e5484828501611d5a565b602083015250604082013567ffffffffffffffff811115611e7857611e77611cd6565b5b611e8484828501611c29565b6040830152506060611e9884828501611cfc565b6060830152506080611eac84828501611cfc565b60808301525060a0611ec084828501611cfc565b60a08301525060c082013567ffffffffffffffff811115611ee457611ee3611cd6565b5b611ef084828501611de2565b60c08301525092915050565b6000611f0f611f0a84611ca0565b611b8c565b90508083825260208201905060208402830185811115611f3257611f31611ccc565b5b835b81811015611f7957803567ffffffffffffffff811115611f5757611f56611b11565b5b808601611f648982611e10565b85526020850194505050602081019050611f34565b5050509392505050565b600082601f830112611f9857611f97611b11565b5b8135611fa8848260208601611efc565b91505092915050565b600080600060608486031215611fca57611fc9611b07565b5b600084013567ffffffffffffffff811115611fe857611fe7611b0c565b5b611ff486828701611f83565b935050602061200586828701611cfc565b925050604084013567ffffffffffffffff81111561202657612025611b0c565b5b61203286828701611c29565b9150509250925092565b60006020828403121561205257612051611b07565b5b600061206084828501611d5a565b91505092915050565b61207281611cdb565b82525050565b600081519050919050565b600082825260208201905092915050565b60005b838110156120b2578082015181840152602081019050612097565b60008484015250505050565b60006120c982612078565b6120d38185612083565b93506120e3818560208601612094565b6120ec81611b1b565b840191505092915050565b61210081611d31565b82525050565b60008115159050919050565b61211b81612106565b82525050565b600060a0830160008301516121396000860182612069565b506020830151848203602086015261215182826120be565b915050604083015161216660408601826120f7565b5060608301516121796060860182612112565b50608083015161218c6080860182612112565b508091505092915050565b600060208201905081810360008301526121b18184612121565b905092915050565b7f4e487b7100000000000000000000000000000000000000000000000000000000600052602260045260246000fd5b6000600282049050600182168061220057607f821691505b602082108103612213576122126121b9565b5b50919050565b60008190508160005260206000209050919050565b60006020601f8301049050919050565b600082821b905092915050565b60006008830261227b7fffffffffffffffffffffffffffffffffffffffffffffffffffffffffffffffff8261223e565b612285868361223e565b95508019841693508086168417925050509392505050565b6000819050919050565b60006122c26122bd6122b884611cdb565b61229d565b611cdb565b9050919050565b6000819050919050565b6122dc836122a7565b6122f06122e8826122c9565b84845461224b565b825550505050565b600090565b6123056122f8565b6123108184846122d3565b505050565b5b81811015612334576123296000826122fd565b600181019050612316565b5050565b601f8211156123795761234a81612219565b6123538461222e565b81016020851015612362578190505b61237661236e8561222e565b830182612315565b50505b505050565b600082821c905092915050565b600061239c6000198460080261237e565b1980831691505092915050565b60006123b5838361238b565b9150826002028217905092915050565b6123ce82612078565b67ffffffffffffffff8111156123e7576123e6611b2c565b5b6123f182546121e8565b6123fc828285612338565b600060209050601f83116001811461242f576000841561241d578287015190505b61242785826123a9565b86555061248f565b601f19841661243d86612219565b60005b8281101561246557848901518255600182019150602085019450602081019050612440565b86831015612482578489015161247e601f89168261238b565b8355505b6001600288020188555050505b505050505050565b600082825260208201905092915050565b7f756e617574686f72697a65640000000000000000000000000000000000000000600082015250565b60006124de600c83612497565b91506124e9826124a8565b602082019050919050565b6000602082019050818103600083015261250d816124d1565b9050919050565b7f4e487b7100000000000000000000000000000000000000000000000000000000600052603260045260246000fd5b7f4e487b7100000000000000000000000000000000000000000000000000000000600052601160045260246000fd5b600061257d82611cdb565b915061258883611cdb565b925082820261259681611cdb565b915082820484148315176125ad576125ac612543565b5b5092915050565b60006125bf82611cdb565b91506125ca83611cdb565b92508282019050808211156125e2576125e1612543565b5b92915050565b7f696e73756666696369656e742067617300000000000000000000000000000000600082015250565b600061261e601083612497565b9150612629826125e8565b602082019050919050565b6000602082019050818103600083015261264d81612611565b9050919050565b6000819050602082019050919050565b60007fffffffffffffffffffffffffffffffffffffffff00000000000000000000000082169050919050565b600061269c8251612664565b80915050919050565b60006126b082612078565b826126ba84612654565b90506126c581612690565b92506014821015612705576127007fffffffffffffffffffffffffffffffffffffffff0000000000000000000000008360140360080261223e565b831692505b5050919050565b61271581611cdb565b82525050565b600081519050919050565b60006127318261271b565b61273b8185612497565b935061274b818560208601612094565b61275481611b1b565b840191505092915050565b6000819050919050565b6127728161275f565b82525050565b600060608201905061278d600083018661270c565b818103602083015261279f8185612726565b90506127ae6040830184612769565b949350505050565b60006127c182611cdb565b91507fffffffffffffffffffffffffffffffffffffffffffffffffffffffffffffffff82036127f3576127f2612543565b5b600182019050919050565b7f63616e6e6f74206f76657272696465206163636f756e7420696e207573650000600082015250565b6000612834601e83612497565b915061283f826127fe565b602082019050919050565b6000602082019050818103600083015261286381612827565b9050919050565b61287381611d31565b82525050565b600060608201905061288e6000830186612769565b61289b602083018561286a565b6128a8604083018461270c565b949350505050565b600081905092915050565b60006128c682612078565b6128d081856128b0565b93506128e0818560208601612094565b80840191505092915050565b60006128f882846128bb565b915081905092915050565b600061291661291184611d6f565b611b8c565b90508281526020810184848401111561293257612931611b16565b5b61293d848285612094565b509392505050565b600082601f83011261295a57612959611b11565b5b815161296a848260208601612903565b91505092915050565b60006020828403121561298957612988611b07565b5b600082015167ffffffffffffffff8111156129a7576129a6611b0c565b5b6129b384828501612945565b91505092915050565b7f6569703135353a00000000000000000000000000000000000000000000000000815250565b600081905092915050565b60006129f88261271b565b612a0281856129e2565b9350612a12818560208601612094565b80840191505092915050565b6000612a29826129bc565b600782019150612a3982846129ed565b915081905092915050565b6000612a5082846129ed565b915081905092915050565b600060ff82169050919050565b612a7181612a5b565b82525050565b6000819050919050565b6000612a9c612a97612a9284612a77565b61229d565b611cdb565b9050919050565b612aac81612a81565b82525050565b6000604082019050612ac76000830185612a68565b612ad46020830184612aa3565b9392505050565b600081519050612aea81611ce5565b92915050565b600080600060608486031215612b0957612b08611b07565b5b6000612b1786828701612adb565b9350506020612b2886828701612adb565b9250506040612b3986828701612adb565b9150509250925092565b612b4c8161275f565b82525050565b600060a083016000830151612b6a6000860182612b43565b506020830151612b7d6020860182612069565b506040830151612b906040860182612b43565b5060608301518482036060860152612ba882826120be565b9150506080830151612bbd6080860182612112565b508091505092915050565b60006020820190508181036000830152612be28184612b52565b905092915050565b6000604082019050612bff6000830185612769565b612c0c602083018461286a565b9392505050565b600067ffffffffffffffff821115612c2e57612c2d611b2c565b5b602082029050602081019050919050565b6000612c52612c4d84612c13565b611b8c565b90508083825260208201905060208402830185811115612c7557612c74611ccc565b5b835b81811015612cbc57805167ffffffffffffffff811115612c9a57612c99611b11565b5b808601612ca78982612945565b85526020850194505050602081019050612c77565b5050509392505050565b600082601f830112612cdb57612cda611b11565b5b8151612ceb848260208601612c3f565b91505092915050565b600060208284031215612d0a57612d09611b07565b5b600082015167ffffffffffffffff811115612d2857612d27611b0c565b5b612d3484828501612cc6565b91505092915050565b612d4681612a5b565b82525050565b604082016000820151612d626000850182612b43565b506020820151612d756020850182612d3d565b50505050565b6000604082019050612d906000830184612d4c565b92915050565b6000612da282856128bb565b9150612dae82846128bb565b91508190509392505050565b60008160601b9050919050565b6000612dd282612dba565b9050919050565b6000612de482612dc7565b9050919050565b612dfc612df782611d31565b612dd9565b82525050565b6000612e0e8284612deb565b60148201915081905092915050565b6000612e2882612a5b565b9150612e3383612a5b565b9250828201905060ff811115612e4c57612e4b612543565b5b92915050565b7f4e487b7100000000000000000000000000000000000000000000000000000000600052601260045260246000fd5b6000612e8c82611cdb565b9150612e9783611cdb565b925082612ea757612ea6612e52565b5b828204905092915050565b6000612ebd82611cdb565b9150612ec883611cdb565b9250828203905081811115612ee057612edf612543565b5b92915050565b60008160011c9050919050565b6000808291508390505b6001851115612f3d57808604811115612f1957612f18612543565b5b6001851615612f285780820291505b8081029050612f3685612ee6565b9450612efd565b94509492505050565b600082612f565760019050613012565b81612f645760009050613012565b8160018114612f7a5760028114612f8457612fb3565b6001915050613012565b60ff841115612f9657612f95612543565b5b8360020a915084821115612fad57612fac612543565b5b50613012565b5060208310610133831016604e8410600b8410161715612fe85782820a905083811115612fe357612fe2612543565b5b613012565b612ff58484846001612ef3565b9250905081840481111561300c5761300b612543565b5b81810290505b9392505050565b600061302482611cdb565b915061302f83611cdb565b925061305c7fffffffffffffffffffffffffffffffffffffffffffffffffffffffffffffffff8484612f46565b905092915050565b600061306f82611cdb565b915061307a83611cdb565b92508261308a57613089612e52565b5b828206905092915050565b6000819050919050565b6130b06130ab82611cdb565b613095565b82525050565b60006130c2828461309f565b6020820191508190509291505056fea2646970667358221220ebed079e4fe33c29f6a13840ef7c7cb03468c829404a51eadff71bfe484a32cd64736f6c63430008180033",
          "opcodes": "PUSH1 0xC0 PUSH1 0x40 MSTORE CALLVALUE DUP1 ISZERO PUSH3 0x11 JUMPI PUSH1 0x0 DUP1 REVERT JUMPDEST POP PUSH1 0x40 MLOAD PUSH3 0x3294 CODESIZE SUB DUP1 PUSH3 0x3294 DUP4 CODECOPY DUP2 DUP2 ADD PUSH1 0x40 MSTORE DUP2 ADD SWAP1 PUSH3 0x37 SWAP2 SWAP1 PUSH3 0x112 JUMP JUMPDEST DUP1 DUP1 PUSH20 0xFFFFFFFFFFFFFFFFFFFFFFFFFFFFFFFFFFFFFFFF AND PUSH1 0x80 DUP2 PUSH20 0xFFFFFFFFFFFFFFFFFFFFFFFFFFFFFFFFFFFFFFFF AND DUP2 MSTORE POP POP POP CALLER PUSH20 0xFFFFFFFFFFFFFFFFFFFFFFFFFFFFFFFFFFFFFFFF AND PUSH1 0xA0 DUP2 PUSH20 0xFFFFFFFFFFFFFFFFFFFFFFFFFFFFFFFFFFFFFFFF AND DUP2 MSTORE POP POP POP PUSH3 0x144 JUMP JUMPDEST PUSH1 0x0 DUP1 REVERT JUMPDEST PUSH1 0x0 PUSH20 0xFFFFFFFFFFFFFFFFFFFFFFFFFFFFFFFFFFFFFFFF DUP3 AND SWAP1 POP SWAP2 SWAP1 POP JUMP JUMPDEST PUSH1 0x0 PUSH3 0xDA DUP3 PUSH3 0xAD JUMP JUMPDEST SWAP1 POP SWAP2 SWAP1 POP JUMP JUMPDEST PUSH3 0xEC DUP2 PUSH3 0xCD JUMP JUMPDEST DUP2 EQ PUSH3 0xF8 JUMPI PUSH1 0x0 DUP1 REVERT JUMPDEST POP JUMP JUMPDEST PUSH1 0x0 DUP2 MLOAD SWAP1 POP PUSH3 0x10C DUP2 PUSH3 0xE1 JUMP JUMPDEST SWAP3 SWAP2 POP POP JUMP JUMPDEST PUSH1 0x0 PUSH1 0x20 DUP3 DUP5 SUB SLT ISZERO PUSH3 0x12B JUMPI PUSH3 0x12A PUSH3 0xA8 JUMP JUMPDEST JUMPDEST PUSH1 0x0 PUSH3 0x13B DUP5 DUP3 DUP6 ADD PUSH3 0xFB JUMP JUMPDEST SWAP2 POP POP SWAP3 SWAP2 POP POP JUMP JUMPDEST PUSH1 0x80 MLOAD PUSH1 0xA0 MLOAD PUSH2 0x3107 PUSH3 0x18D PUSH1 0x0 CODECOPY PUSH1 0x0 PUSH2 0x2C8 ADD MSTORE PUSH1 0x0 DUP2 DUP2 PUSH2 0xC7F ADD MSTORE DUP2 DUP2 PUSH2 0xEAF ADD MSTORE DUP2 DUP2 PUSH2 0xF7E ADD MSTORE DUP2 DUP2 PUSH2 0x1016 ADD MSTORE DUP2 DUP2 PUSH2 0x10B8 ADD MSTORE PUSH2 0x11BF ADD MSTORE PUSH2 0x3107 PUSH1 0x0 RETURN INVALID PUSH1 0x80 PUSH1 0x40 MSTORE PUSH1 0x4 CALLDATASIZE LT PUSH2 0x4E JUMPI PUSH1 0x0 CALLDATALOAD PUSH1 0xE0 SHR DUP1 PUSH4 0x3C58E054 EQ PUSH2 0x5A JUMPI DUP1 PUSH4 0x50B28AB2 EQ PUSH2 0x83 JUMPI DUP1 PUSH4 0x66A096B2 EQ PUSH2 0x9F JUMPI DUP1 PUSH4 0xA9EA858F EQ PUSH2 0xB6 JUMPI DUP1 PUSH4 0xFBCBC0F1 EQ PUSH2 0xDF JUMPI PUSH2 0x55 JUMP JUMPDEST CALLDATASIZE PUSH2 0x55 JUMPI STOP JUMPDEST PUSH1 0x0 DUP1 REVERT JUMPDEST CALLVALUE DUP1 ISZERO PUSH2 0x66 JUMPI PUSH1 0x0 DUP1 REVERT JUMPDEST POP PUSH2 0x81 PUSH1 0x4 DUP1 CALLDATASIZE SUB DUP2 ADD SWAP1 PUSH2 0x7C SWAP2 SWAP1 PUSH2 0x1C57 JUMP JUMPDEST PUSH2 0x11C JUMP JUMPDEST STOP JUMPDEST PUSH2 0x9D PUSH1 0x4 DUP1 CALLDATASIZE SUB DUP2 ADD SWAP1 PUSH2 0x98 SWAP2 SWAP1 PUSH2 0x1FB1 JUMP JUMPDEST PUSH2 0x16E JUMP JUMPDEST STOP JUMPDEST CALLVALUE DUP1 ISZERO PUSH2 0xAB JUMPI PUSH1 0x0 DUP1 REVERT JUMPDEST POP PUSH2 0xB4 PUSH2 0x2C6 JUMP JUMPDEST STOP JUMPDEST CALLVALUE DUP1 ISZERO PUSH2 0xC2 JUMPI PUSH1 0x0 DUP1 REVERT JUMPDEST POP PUSH2 0xDD PUSH1 0x4 DUP1 CALLDATASIZE SUB DUP2 ADD SWAP1 PUSH2 0xD8 SWAP2 SWAP1 PUSH2 0x1C57 JUMP JUMPDEST PUSH2 0x3AD JUMP JUMPDEST STOP JUMPDEST CALLVALUE DUP1 ISZERO PUSH2 0xEB JUMPI PUSH1 0x0 DUP1 REVERT JUMPDEST POP PUSH2 0x106 PUSH1 0x4 DUP1 CALLDATASIZE SUB DUP2 ADD SWAP1 PUSH2 0x101 SWAP2 SWAP1 PUSH2 0x203C JUMP JUMPDEST PUSH2 0x3BA JUMP JUMPDEST PUSH1 0x40 MLOAD PUSH2 0x113 SWAP2 SWAP1 PUSH2 0x2197 JUMP JUMPDEST PUSH1 0x40 MLOAD DUP1 SWAP2 SUB SWAP1 RETURN JUMPDEST DUP1 PUSH1 0x0 DUP1 CALLER PUSH20 0xFFFFFFFFFFFFFFFFFFFFFFFFFFFFFFFFFFFFFFFF AND PUSH20 0xFFFFFFFFFFFFFFFFFFFFFFFFFFFFFFFFFFFFFFFF AND DUP2 MSTORE PUSH1 0x20 ADD SWAP1 DUP2 MSTORE PUSH1 0x20 ADD PUSH1 0x0 KECCAK256 PUSH1 0x1 ADD SWAP1 DUP2 PUSH2 0x16A SWAP2 SWAP1 PUSH2 0x23C5 JUMP JUMPDEST POP POP JUMP JUMPDEST PUSH1 0x0 PUSH2 0x179 CALLER PUSH2 0x3BA JUMP JUMPDEST SWAP1 POP DUP1 PUSH1 0x0 ADD MLOAD DUP4 EQ PUSH2 0x1C1 JUMPI PUSH1 0x40 MLOAD PUSH32 0x8C379A000000000000000000000000000000000000000000000000000000000 DUP2 MSTORE PUSH1 0x4 ADD PUSH2 0x1B8 SWAP1 PUSH2 0x24F4 JUMP JUMPDEST PUSH1 0x40 MLOAD DUP1 SWAP2 SUB SWAP1 REVERT JUMPDEST PUSH1 0x0 DUP1 JUMPDEST DUP6 MLOAD DUP2 LT ISZERO PUSH2 0x267 JUMPI PUSH1 0x0 DUP7 DUP3 DUP2 MLOAD DUP2 LT PUSH2 0x1E3 JUMPI PUSH2 0x1E2 PUSH2 0x2514 JUMP JUMPDEST JUMPDEST PUSH1 0x20 MUL PUSH1 0x20 ADD ADD MLOAD SWAP1 POP PUSH1 0x0 DUP2 PUSH1 0x60 ADD MLOAD DUP3 PUSH1 0x80 ADD MLOAD PUSH2 0x203 SWAP2 SWAP1 PUSH2 0x2572 JUMP JUMPDEST SWAP1 POP PUSH2 0x222 DUP3 PUSH1 0x0 ADD MLOAD DUP7 PUSH1 0x40 ADD MLOAD DUP4 DUP6 PUSH1 0x60 ADD MLOAD DUP7 PUSH1 0xC0 ADD MLOAD PUSH2 0x5A5 JUMP JUMPDEST PUSH2 0x24C DUP9 DUP5 DUP2 MLOAD DUP2 LT PUSH2 0x238 JUMPI PUSH2 0x237 PUSH2 0x2514 JUMP JUMPDEST JUMPDEST PUSH1 0x20 MUL PUSH1 0x20 ADD ADD MLOAD DUP9 CALLER DUP9 PUSH1 0x40 ADD MLOAD PUSH2 0x7D4 JUMP JUMPDEST DUP1 DUP5 PUSH2 0x258 SWAP2 SWAP1 PUSH2 0x25B4 JUMP JUMPDEST SWAP4 POP POP POP DUP1 PUSH1 0x1 ADD SWAP1 POP PUSH2 0x1C5 JUMP JUMPDEST POP DUP1 CALLVALUE LT ISZERO PUSH2 0x2AB JUMPI PUSH1 0x40 MLOAD PUSH32 0x8C379A000000000000000000000000000000000000000000000000000000000 DUP2 MSTORE PUSH1 0x4 ADD PUSH2 0x2A2 SWAP1 PUSH2 0x2634 JUMP JUMPDEST PUSH1 0x40 MLOAD DUP1 SWAP2 SUB SWAP1 REVERT JUMPDEST PUSH1 0x0 DUP4 MLOAD GT ISZERO PUSH2 0x2BF JUMPI PUSH2 0x2BE DUP4 PUSH2 0x11C JUMP JUMPDEST JUMPDEST POP POP POP POP POP JUMP JUMPDEST PUSH32 0x0 PUSH20 0xFFFFFFFFFFFFFFFFFFFFFFFFFFFFFFFFFFFFFFFF AND CALLER PUSH20 0xFFFFFFFFFFFFFFFFFFFFFFFFFFFFFFFFFFFFFFFF AND EQ PUSH2 0x354 JUMPI PUSH1 0x40 MLOAD PUSH32 0x8C379A000000000000000000000000000000000000000000000000000000000 DUP2 MSTORE PUSH1 0x4 ADD PUSH2 0x34B SWAP1 PUSH2 0x24F4 JUMP JUMPDEST PUSH1 0x40 MLOAD DUP1 SWAP2 SUB SWAP1 REVERT JUMPDEST PUSH2 0x3AB ADDRESS PUSH1 0x0 PUSH8 0xFFFFFFFFFFFFFFFF DUP2 GT ISZERO PUSH2 0x373 JUMPI PUSH2 0x372 PUSH2 0x1B2C JUMP JUMPDEST JUMPDEST PUSH1 0x40 MLOAD SWAP1 DUP1 DUP3 MSTORE DUP1 PUSH1 0x1F ADD PUSH1 0x1F NOT AND PUSH1 0x20 ADD DUP3 ADD PUSH1 0x40 MSTORE DUP1 ISZERO PUSH2 0x3A5 JUMPI DUP2 PUSH1 0x20 ADD PUSH1 0x1 DUP3 MUL DUP1 CALLDATASIZE DUP4 CALLDATACOPY DUP1 DUP3 ADD SWAP2 POP POP SWAP1 POP JUMPDEST POP PUSH2 0x97E JUMP JUMPDEST JUMP JUMPDEST PUSH2 0x3B7 CALLER DUP3 PUSH2 0x97E JUMP JUMPDEST POP JUMP JUMPDEST PUSH2 0x3C2 PUSH2 0x1AB4 JUMP JUMPDEST PUSH1 0x0 DUP1 PUSH1 0x0 DUP5 PUSH20 0xFFFFFFFFFFFFFFFFFFFFFFFFFFFFFFFFFFFFFFFF AND PUSH20 0xFFFFFFFFFFFFFFFFFFFFFFFFFFFFFFFFFFFFFFFF AND DUP2 MSTORE PUSH1 0x20 ADD SWAP1 DUP2 MSTORE PUSH1 0x20 ADD PUSH1 0x0 KECCAK256 PUSH1 0x40 MLOAD DUP1 PUSH1 0xA0 ADD PUSH1 0x40 MSTORE SWAP1 DUP2 PUSH1 0x0 DUP3 ADD SLOAD DUP2 MSTORE PUSH1 0x20 ADD PUSH1 0x1 DUP3 ADD DUP1 SLOAD PUSH2 0x427 SWAP1 PUSH2 0x21E8 JUMP JUMPDEST DUP1 PUSH1 0x1F ADD PUSH1 0x20 DUP1 SWAP2 DIV MUL PUSH1 0x20 ADD PUSH1 0x40 MLOAD SWAP1 DUP2 ADD PUSH1 0x40 MSTORE DUP1 SWAP3 SWAP2 SWAP1 DUP2 DUP2 MSTORE PUSH1 0x20 ADD DUP3 DUP1 SLOAD PUSH2 0x453 SWAP1 PUSH2 0x21E8 JUMP JUMPDEST DUP1 ISZERO PUSH2 0x4A0 JUMPI DUP1 PUSH1 0x1F LT PUSH2 0x475 JUMPI PUSH2 0x100 DUP1 DUP4 SLOAD DIV MUL DUP4 MSTORE SWAP2 PUSH1 0x20 ADD SWAP2 PUSH2 0x4A0 JUMP JUMPDEST DUP3 ADD SWAP2 SWAP1 PUSH1 0x0 MSTORE PUSH1 0x20 PUSH1 0x0 KECCAK256 SWAP1 JUMPDEST DUP2 SLOAD DUP2 MSTORE SWAP1 PUSH1 0x1 ADD SWAP1 PUSH1 0x20 ADD DUP1 DUP4 GT PUSH2 0x483 JUMPI DUP3 SWAP1 SUB PUSH1 0x1F AND DUP3 ADD SWAP2 JUMPDEST POP POP POP POP POP DUP2 MSTORE PUSH1 0x20 ADD PUSH1 0x2 DUP3 ADD PUSH1 0x0 SWAP1 SLOAD SWAP1 PUSH2 0x100 EXP SWAP1 DIV PUSH20 0xFFFFFFFFFFFFFFFFFFFFFFFFFFFFFFFFFFFFFFFF AND PUSH20 0xFFFFFFFFFFFFFFFFFFFFFFFFFFFFFFFFFFFFFFFF AND PUSH20 0xFFFFFFFFFFFFFFFFFFFFFFFFFFFFFFFFFFFFFFFF AND DUP2 MSTORE PUSH1 0x20 ADD PUSH1 0x2 DUP3 ADD PUSH1 0x14 SWAP1 SLOAD SWAP1 PUSH2 0x100 EXP SWAP1 DIV PUSH1 0xFF AND ISZERO ISZERO ISZERO ISZERO DUP2 MSTORE PUSH1 0x20 ADD PUSH1 0x2 DUP3 ADD PUSH1 0x15 SWAP1 SLOAD SWAP1 PUSH2 0x100 EXP SWAP1 DIV PUSH1 0xFF AND ISZERO ISZERO ISZERO ISZERO DUP2 MSTORE POP POP SWAP1 POP PUSH1 0x60 PUSH2 0x546 DUP3 PUSH1 0x0 ADD MLOAD PUSH2 0xC76 JUMP JUMPDEST DUP4 PUSH1 0x80 ADD DUP2 ISZERO ISZERO ISZERO ISZERO DUP2 MSTORE POP DUP2 SWAP3 POP POP POP DUP1 PUSH2 0x561 SWAP1 PUSH2 0x26A5 JUMP JUMPDEST PUSH1 0x60 SHR DUP3 PUSH1 0x40 ADD SWAP1 PUSH20 0xFFFFFFFFFFFFFFFFFFFFFFFFFFFFFFFFFFFFFFFF AND SWAP1 DUP2 PUSH20 0xFFFFFFFFFFFFFFFFFFFFFFFFFFFFFFFFFFFFFFFF AND DUP2 MSTORE POP POP DUP2 SWAP3 POP POP POP SWAP2 SWAP1 POP JUMP JUMPDEST PUSH1 0x0 PUSH1 0x40 MLOAD DUP1 PUSH1 0xE0 ADD PUSH1 0x40 MSTORE DUP1 DUP8 DUP2 MSTORE PUSH1 0x20 ADD DUP7 PUSH20 0xFFFFFFFFFFFFFFFFFFFFFFFFFFFFFFFFFFFFFFFF AND DUP2 MSTORE PUSH1 0x20 ADD PUSH1 0x0 PUSH8 0xFFFFFFFFFFFFFFFF DUP2 GT ISZERO PUSH2 0x5EF JUMPI PUSH2 0x5EE PUSH2 0x1B2C JUMP JUMPDEST JUMPDEST PUSH1 0x40 MLOAD SWAP1 DUP1 DUP3 MSTORE DUP1 PUSH1 0x1F ADD PUSH1 0x1F NOT AND PUSH1 0x20 ADD DUP3 ADD PUSH1 0x40 MSTORE DUP1 ISZERO PUSH2 0x621 JUMPI DUP2 PUSH1 0x20 ADD PUSH1 0x1 DUP3 MUL DUP1 CALLDATASIZE DUP4 CALLDATACOPY DUP1 DUP3 ADD SWAP2 POP POP SWAP1 POP JUMPDEST POP DUP2 MSTORE PUSH1 0x20 ADD DUP5 DUP2 MSTORE PUSH1 0x20 ADD PUSH3 0x186A0 DUP2 MSTORE PUSH1 0x20 ADD DUP6 DUP2 MSTORE PUSH1 0x20 ADD DUP4 DUP2 MSTORE POP SWAP1 POP PUSH1 0x0 DUP1 PUSH1 0x0 ADDRESS PUSH20 0xFFFFFFFFFFFFFFFFFFFFFFFFFFFFFFFFFFFFFFFF AND PUSH20 0xFFFFFFFFFFFFFFFFFFFFFFFFFFFFFFFFFFFFFFFF AND DUP2 MSTORE PUSH1 0x20 ADD SWAP1 DUP2 MSTORE PUSH1 0x20 ADD PUSH1 0x0 KECCAK256 PUSH1 0x40 MLOAD DUP1 PUSH1 0xA0 ADD PUSH1 0x40 MSTORE SWAP1 DUP2 PUSH1 0x0 DUP3 ADD SLOAD DUP2 MSTORE PUSH1 0x20 ADD PUSH1 0x1 DUP3 ADD DUP1 SLOAD PUSH2 0x6A7 SWAP1 PUSH2 0x21E8 JUMP JUMPDEST DUP1 PUSH1 0x1F ADD PUSH1 0x20 DUP1 SWAP2 DIV MUL PUSH1 0x20 ADD PUSH1 0x40 MLOAD SWAP1 DUP2 ADD PUSH1 0x40 MSTORE DUP1 SWAP3 SWAP2 SWAP1 DUP2 DUP2 MSTORE PUSH1 0x20 ADD DUP3 DUP1 SLOAD PUSH2 0x6D3 SWAP1 PUSH2 0x21E8 JUMP JUMPDEST DUP1 ISZERO PUSH2 0x720 JUMPI DUP1 PUSH1 0x1F LT PUSH2 0x6F5 JUMPI PUSH2 0x100 DUP1 DUP4 SLOAD DIV MUL DUP4 MSTORE SWAP2 PUSH1 0x20 ADD SWAP2 PUSH2 0x720 JUMP JUMPDEST DUP3 ADD SWAP2 SWAP1 PUSH1 0x0 MSTORE PUSH1 0x20 PUSH1 0x0 KECCAK256 SWAP1 JUMPDEST DUP2 SLOAD DUP2 MSTORE SWAP1 PUSH1 0x1 ADD SWAP1 PUSH1 0x20 ADD DUP1 DUP4 GT PUSH2 0x703 JUMPI DUP3 SWAP1 SUB PUSH1 0x1F AND DUP3 ADD SWAP2 JUMPDEST POP POP POP POP POP DUP2 MSTORE PUSH1 0x20 ADD PUSH1 0x2 DUP3 ADD PUSH1 0x0 SWAP1 SLOAD SWAP1 PUSH2 0x100 EXP SWAP1 DIV PUSH20 0xFFFFFFFFFFFFFFFFFFFFFFFFFFFFFFFFFFFFFFFF AND PUSH20 0xFFFFFFFFFFFFFFFFFFFFFFFFFFFFFFFFFFFFFFFF AND PUSH20 0xFFFFFFFFFFFFFFFFFFFFFFFFFFFFFFFFFFFFFFFF AND DUP2 MSTORE PUSH1 0x20 ADD PUSH1 0x2 DUP3 ADD PUSH1 0x14 SWAP1 SLOAD SWAP1 PUSH2 0x100 EXP SWAP1 DIV PUSH1 0xFF AND ISZERO ISZERO ISZERO ISZERO DUP2 MSTORE PUSH1 0x20 ADD PUSH1 0x2 DUP3 ADD PUSH1 0x15 SWAP1 SLOAD SWAP1 PUSH2 0x100 EXP SWAP1 DIV PUSH1 0xFF AND ISZERO ISZERO ISZERO ISZERO DUP2 MSTORE POP POP SWAP1 POP PUSH2 0x7CB DUP3 DUP3 PUSH1 0x0 ADD MLOAD ADDRESS DUP5 PUSH1 0x40 ADD MLOAD PUSH2 0x7D4 JUMP JUMPDEST POP POP POP POP POP POP POP JUMP JUMPDEST PUSH1 0x0 PUSH2 0x7E3 DUP6 PUSH1 0xC0 ADD MLOAD PUSH2 0xDCD JUMP JUMPDEST SWAP1 POP PUSH1 0x0 PUSH1 0x1 PUSH1 0x0 DUP7 DUP2 MSTORE PUSH1 0x20 ADD SWAP1 DUP2 MSTORE PUSH1 0x20 ADD PUSH1 0x0 KECCAK256 PUSH1 0x0 DUP4 DUP2 MSTORE PUSH1 0x20 ADD SWAP1 DUP2 MSTORE PUSH1 0x20 ADD PUSH1 0x0 KECCAK256 SLOAD SWAP1 POP PUSH1 0x0 PUSH2 0x81D DUP8 PUSH1 0x40 ADD MLOAD PUSH2 0xE21 JUMP JUMPDEST SWAP1 POP PUSH1 0x0 PUSH2 0x83F DUP4 DUP10 PUSH1 0x60 ADD MLOAD DUP11 PUSH1 0x80 ADD MLOAD DUP12 PUSH1 0x20 ADD MLOAD DUP13 PUSH1 0xA0 ADD MLOAD DUP8 PUSH2 0xE33 JUMP JUMPDEST SWAP1 POP PUSH2 0x872 PUSH32 0xE146C2986893C43AF5FF396310220BE92058FB9F4CE76B929B80EF0D5307100A PUSH1 0x0 SHL DUP9 DUP7 DUP5 PUSH1 0x1 PUSH2 0xEAB JUMP JUMPDEST PUSH1 0x0 DUP4 SUB PUSH2 0x8D5 JUMPI PUSH1 0x1 PUSH1 0x0 DUP1 DUP9 PUSH20 0xFFFFFFFFFFFFFFFFFFFFFFFFFFFFFFFFFFFFFFFF AND PUSH20 0xFFFFFFFFFFFFFFFFFFFFFFFFFFFFFFFFFFFFFFFF AND DUP2 MSTORE PUSH1 0x20 ADD SWAP1 DUP2 MSTORE PUSH1 0x20 ADD PUSH1 0x0 KECCAK256 PUSH1 0x2 ADD PUSH1 0x14 PUSH2 0x100 EXP DUP2 SLOAD DUP2 PUSH1 0xFF MUL NOT AND SWAP1 DUP4 ISZERO ISZERO MUL OR SWAP1 SSTORE POP JUMPDEST PUSH1 0x0 DUP2 DUP1 MLOAD SWAP1 PUSH1 0x20 ADD KECCAK256 SWAP1 POP DUP4 DUP7 PUSH20 0xFFFFFFFFFFFFFFFFFFFFFFFFFFFFFFFFFFFFFFFF AND PUSH32 0x2325A549167B1E94E6B80C2B41C84FF60C939E85061C375DF8CB7227DE0D859B DUP12 PUSH1 0x0 ADD MLOAD DUP13 PUSH1 0xC0 ADD MLOAD DUP6 PUSH1 0x40 MLOAD PUSH2 0x934 SWAP4 SWAP3 SWAP2 SWAP1 PUSH2 0x2778 JUMP JUMPDEST PUSH1 0x40 MLOAD DUP1 SWAP2 SUB SWAP1 LOG3 DUP4 DUP1 PUSH2 0x947 SWAP1 PUSH2 0x27B6 JUMP JUMPDEST SWAP5 POP POP DUP4 PUSH1 0x1 PUSH1 0x0 DUP11 DUP2 MSTORE PUSH1 0x20 ADD SWAP1 DUP2 MSTORE PUSH1 0x20 ADD PUSH1 0x0 KECCAK256 PUSH1 0x0 DUP8 DUP2 MSTORE PUSH1 0x20 ADD SWAP1 DUP2 MSTORE PUSH1 0x20 ADD PUSH1 0x0 KECCAK256 DUP2 SWAP1 SSTORE POP POP POP POP POP POP POP POP POP POP JUMP JUMPDEST PUSH1 0x0 DUP1 PUSH1 0x0 DUP5 PUSH20 0xFFFFFFFFFFFFFFFFFFFFFFFFFFFFFFFFFFFFFFFF AND PUSH20 0xFFFFFFFFFFFFFFFFFFFFFFFFFFFFFFFFFFFFFFFF AND DUP2 MSTORE PUSH1 0x20 ADD SWAP1 DUP2 MSTORE PUSH1 0x20 ADD PUSH1 0x0 KECCAK256 PUSH1 0x40 MLOAD DUP1 PUSH1 0xA0 ADD PUSH1 0x40 MSTORE SWAP1 DUP2 PUSH1 0x0 DUP3 ADD SLOAD DUP2 MSTORE PUSH1 0x20 ADD PUSH1 0x1 DUP3 ADD DUP1 SLOAD PUSH2 0x9E3 SWAP1 PUSH2 0x21E8 JUMP JUMPDEST DUP1 PUSH1 0x1F ADD PUSH1 0x20 DUP1 SWAP2 DIV MUL PUSH1 0x20 ADD PUSH1 0x40 MLOAD SWAP1 DUP2 ADD PUSH1 0x40 MSTORE DUP1 SWAP3 SWAP2 SWAP1 DUP2 DUP2 MSTORE PUSH1 0x20 ADD DUP3 DUP1 SLOAD PUSH2 0xA0F SWAP1 PUSH2 0x21E8 JUMP JUMPDEST DUP1 ISZERO PUSH2 0xA5C JUMPI DUP1 PUSH1 0x1F LT PUSH2 0xA31 JUMPI PUSH2 0x100 DUP1 DUP4 SLOAD DIV MUL DUP4 MSTORE SWAP2 PUSH1 0x20 ADD SWAP2 PUSH2 0xA5C JUMP JUMPDEST DUP3 ADD SWAP2 SWAP1 PUSH1 0x0 MSTORE PUSH1 0x20 PUSH1 0x0 KECCAK256 SWAP1 JUMPDEST DUP2 SLOAD DUP2 MSTORE SWAP1 PUSH1 0x1 ADD SWAP1 PUSH1 0x20 ADD DUP1 DUP4 GT PUSH2 0xA3F JUMPI DUP3 SWAP1 SUB PUSH1 0x1F AND DUP3 ADD SWAP2 JUMPDEST POP POP POP POP POP DUP2 MSTORE PUSH1 0x20 ADD PUSH1 0x2 DUP3 ADD PUSH1 0x0 SWAP1 SLOAD SWAP1 PUSH2 0x100 EXP SWAP1 DIV PUSH20 0xFFFFFFFFFFFFFFFFFFFFFFFFFFFFFFFFFFFFFFFF AND PUSH20 0xFFFFFFFFFFFFFFFFFFFFFFFFFFFFFFFFFFFFFFFF AND PUSH20 0xFFFFFFFFFFFFFFFFFFFFFFFFFFFFFFFFFFFFFFFF AND DUP2 MSTORE PUSH1 0x20 ADD PUSH1 0x2 DUP3 ADD PUSH1 0x14 SWAP1 SLOAD SWAP1 PUSH2 0x100 EXP SWAP1 DIV PUSH1 0xFF AND ISZERO ISZERO ISZERO ISZERO DUP2 MSTORE PUSH1 0x20 ADD PUSH1 0x2 DUP3 ADD PUSH1 0x15 SWAP1 SLOAD SWAP1 PUSH2 0x100 EXP SWAP1 DIV PUSH1 0xFF AND ISZERO ISZERO ISZERO ISZERO DUP2 MSTORE POP POP SWAP1 POP DUP1 PUSH1 0x60 ADD MLOAD ISZERO PUSH2 0xB38 JUMPI PUSH1 0x40 MLOAD PUSH32 0x8C379A000000000000000000000000000000000000000000000000000000000 DUP2 MSTORE PUSH1 0x4 ADD PUSH2 0xB2F SWAP1 PUSH2 0x284A JUMP JUMPDEST PUSH1 0x40 MLOAD DUP1 SWAP2 SUB SWAP1 REVERT JUMPDEST PUSH1 0x0 PUSH2 0xB42 PUSH2 0x1011 JUMP JUMPDEST SWAP1 POP PUSH1 0x40 MLOAD DUP1 PUSH1 0xA0 ADD PUSH1 0x40 MSTORE DUP1 DUP3 DUP2 MSTORE PUSH1 0x20 ADD DUP5 DUP2 MSTORE PUSH1 0x20 ADD PUSH1 0x0 PUSH20 0xFFFFFFFFFFFFFFFFFFFFFFFFFFFFFFFFFFFFFFFF AND DUP2 MSTORE PUSH1 0x20 ADD PUSH1 0x0 ISZERO ISZERO DUP2 MSTORE PUSH1 0x20 ADD PUSH1 0x0 ISZERO ISZERO DUP2 MSTORE POP PUSH1 0x0 DUP1 DUP7 PUSH20 0xFFFFFFFFFFFFFFFFFFFFFFFFFFFFFFFFFFFFFFFF AND PUSH20 0xFFFFFFFFFFFFFFFFFFFFFFFFFFFFFFFFFFFFFFFF AND DUP2 MSTORE PUSH1 0x20 ADD SWAP1 DUP2 MSTORE PUSH1 0x20 ADD PUSH1 0x0 KECCAK256 PUSH1 0x0 DUP3 ADD MLOAD DUP2 PUSH1 0x0 ADD SSTORE PUSH1 0x20 DUP3 ADD MLOAD DUP2 PUSH1 0x1 ADD SWAP1 DUP2 PUSH2 0xBE5 SWAP2 SWAP1 PUSH2 0x23C5 JUMP JUMPDEST POP PUSH1 0x40 DUP3 ADD MLOAD DUP2 PUSH1 0x2 ADD PUSH1 0x0 PUSH2 0x100 EXP DUP2 SLOAD DUP2 PUSH20 0xFFFFFFFFFFFFFFFFFFFFFFFFFFFFFFFFFFFFFFFF MUL NOT AND SWAP1 DUP4 PUSH20 0xFFFFFFFFFFFFFFFFFFFFFFFFFFFFFFFFFFFFFFFF AND MUL OR SWAP1 SSTORE POP PUSH1 0x60 DUP3 ADD MLOAD DUP2 PUSH1 0x2 ADD PUSH1 0x14 PUSH2 0x100 EXP DUP2 SLOAD DUP2 PUSH1 0xFF MUL NOT AND SWAP1 DUP4 ISZERO ISZERO MUL OR SWAP1 SSTORE POP PUSH1 0x80 DUP3 ADD MLOAD DUP2 PUSH1 0x2 ADD PUSH1 0x15 PUSH2 0x100 EXP DUP2 SLOAD DUP2 PUSH1 0xFF MUL NOT AND SWAP1 DUP4 ISZERO ISZERO MUL OR SWAP1 SSTORE POP SWAP1 POP POP POP POP POP POP JUMP JUMPDEST PUSH1 0x60 PUSH1 0x0 DUP1 PUSH1 0x0 PUSH32 0x0 PUSH20 0xFFFFFFFFFFFFFFFFFFFFFFFFFFFFFFFFFFFFFFFF AND PUSH4 0x187E5818 PUSH1 0xE0 SHL PUSH32 0xE146C2986893C43AF5FF396310220BE92058FB9F4CE76B929B80EF0D5307100A PUSH1 0x0 SHL ADDRESS DUP9 PUSH1 0x40 MLOAD PUSH1 0x24 ADD PUSH2 0xCF4 SWAP4 SWAP3 SWAP2 SWAP1 PUSH2 0x2879 JUMP JUMPDEST PUSH1 0x40 MLOAD PUSH1 0x20 DUP2 DUP4 SUB SUB DUP2 MSTORE SWAP1 PUSH1 0x40 MSTORE SWAP1 PUSH28 0xFFFFFFFFFFFFFFFFFFFFFFFFFFFFFFFFFFFFFFFFFFFFFFFFFFFFFFFF NOT AND PUSH1 0x20 DUP3 ADD DUP1 MLOAD PUSH28 0xFFFFFFFFFFFFFFFFFFFFFFFFFFFFFFFFFFFFFFFFFFFFFFFFFFFFFFFF DUP4 DUP2 DUP4 AND OR DUP4 MSTORE POP POP POP POP PUSH1 0x40 MLOAD PUSH2 0xD5E SWAP2 SWAP1 PUSH2 0x28EC JUMP JUMPDEST PUSH1 0x0 PUSH1 0x40 MLOAD DUP1 DUP4 SUB DUP2 DUP6 GAS STATICCALL SWAP2 POP POP RETURNDATASIZE DUP1 PUSH1 0x0 DUP2 EQ PUSH2 0xD99 JUMPI PUSH1 0x40 MLOAD SWAP2 POP PUSH1 0x1F NOT PUSH1 0x3F RETURNDATASIZE ADD AND DUP3 ADD PUSH1 0x40 MSTORE RETURNDATASIZE DUP3 MSTORE RETURNDATASIZE PUSH1 0x0 PUSH1 0x20 DUP5 ADD RETURNDATACOPY PUSH2 0xD9E JUMP JUMPDEST PUSH1 0x60 SWAP2 POP JUMPDEST POP SWAP2 POP SWAP2 POP DUP2 ISZERO PUSH2 0xDC0 JUMPI DUP1 DUP1 PUSH1 0x20 ADD SWAP1 MLOAD DUP2 ADD SWAP1 PUSH2 0xDBD SWAP2 SWAP1 PUSH2 0x2973 JUMP JUMPDEST SWAP4 POP JUMPDEST DUP4 DUP3 SWAP4 POP SWAP4 POP POP POP SWAP2 POP SWAP2 JUMP JUMPDEST PUSH1 0x0 DUP1 DUP3 PUSH1 0x40 MLOAD PUSH1 0x20 ADD PUSH2 0xDE1 SWAP2 SWAP1 PUSH2 0x2A1E JUMP JUMPDEST PUSH1 0x40 MLOAD PUSH1 0x20 DUP2 DUP4 SUB SUB DUP2 MSTORE SWAP1 PUSH1 0x40 MSTORE SWAP1 POP DUP1 PUSH1 0x40 MLOAD PUSH1 0x20 ADD PUSH2 0xE03 SWAP2 SWAP1 PUSH2 0x2A44 JUMP JUMPDEST PUSH1 0x40 MLOAD PUSH1 0x20 DUP2 DUP4 SUB SUB DUP2 MSTORE SWAP1 PUSH1 0x40 MSTORE DUP1 MLOAD SWAP1 PUSH1 0x20 ADD KECCAK256 SWAP2 POP POP SWAP2 SWAP1 POP JUMP JUMPDEST PUSH1 0x60 PUSH2 0xE2C DUP3 PUSH2 0x124E JUMP JUMPDEST SWAP1 POP SWAP2 SWAP1 POP JUMP JUMPDEST PUSH1 0x60 PUSH1 0x0 PUSH2 0xE40 DUP9 PUSH2 0x12CC JUMP JUMPDEST SWAP1 POP PUSH1 0x0 PUSH2 0xE4D DUP9 PUSH2 0x12CC JUMP JUMPDEST SWAP1 POP PUSH1 0x0 PUSH2 0xE5A DUP9 PUSH2 0x12CC JUMP JUMPDEST SWAP1 POP PUSH1 0x0 PUSH2 0xE7D DUP9 PUSH20 0xFFFFFFFFFFFFFFFFFFFFFFFFFFFFFFFFFFFFFFFF AND PUSH2 0x12E6 JUMP JUMPDEST SWAP1 POP PUSH1 0x0 PUSH2 0xE8A DUP9 PUSH2 0x12CC JUMP JUMPDEST SWAP1 POP PUSH2 0xE9A DUP6 DUP6 DUP6 DUP6 DUP6 DUP13 PUSH2 0x1317 JUMP JUMPDEST SWAP6 POP POP POP POP POP POP SWAP7 SWAP6 POP POP POP POP POP POP JUMP JUMPDEST PUSH1 0x0 PUSH32 0x0 PUSH20 0xFFFFFFFFFFFFFFFFFFFFFFFFFFFFFFFFFFFFFFFF AND PUSH4 0xA213CBAA PUSH1 0x1 PUSH1 0x0 PUSH1 0x40 MLOAD DUP4 PUSH4 0xFFFFFFFF AND PUSH1 0xE0 SHL DUP2 MSTORE PUSH1 0x4 ADD PUSH2 0xF0A SWAP3 SWAP2 SWAP1 PUSH2 0x2AB2 JUMP JUMPDEST PUSH1 0x60 PUSH1 0x40 MLOAD DUP1 DUP4 SUB DUP2 DUP7 GAS STATICCALL ISZERO DUP1 ISZERO PUSH2 0xF27 JUMPI RETURNDATASIZE PUSH1 0x0 DUP1 RETURNDATACOPY RETURNDATASIZE PUSH1 0x0 REVERT JUMPDEST POP POP POP POP PUSH1 0x40 MLOAD RETURNDATASIZE PUSH1 0x1F NOT PUSH1 0x1F DUP3 ADD AND DUP3 ADD DUP1 PUSH1 0x40 MSTORE POP DUP2 ADD SWAP1 PUSH2 0xF4B SWAP2 SWAP1 PUSH2 0x2AF0 JUMP JUMPDEST SWAP3 POP POP POP PUSH1 0x0 PUSH1 0x40 MLOAD DUP1 PUSH1 0xA0 ADD PUSH1 0x40 MSTORE DUP1 DUP9 DUP2 MSTORE PUSH1 0x20 ADD DUP8 DUP2 MSTORE PUSH1 0x20 ADD DUP7 DUP2 MSTORE PUSH1 0x20 ADD DUP6 DUP2 MSTORE PUSH1 0x20 ADD DUP5 ISZERO ISZERO DUP2 MSTORE POP SWAP1 POP PUSH32 0x0 PUSH20 0xFFFFFFFFFFFFFFFFFFFFFFFFFFFFFFFFFFFFFFFF AND PUSH4 0x93F874C4 DUP4 DUP4 PUSH1 0x40 MLOAD DUP4 PUSH4 0xFFFFFFFF AND PUSH1 0xE0 SHL DUP2 MSTORE PUSH1 0x4 ADD PUSH2 0xFD6 SWAP2 SWAP1 PUSH2 0x2BC8 JUMP JUMPDEST PUSH1 0x0 PUSH1 0x40 MLOAD DUP1 DUP4 SUB DUP2 DUP6 DUP9 DUP1 EXTCODESIZE ISZERO DUP1 ISZERO PUSH2 0xFEF JUMPI PUSH1 0x0 DUP1 REVERT JUMPDEST POP GAS CALL ISZERO DUP1 ISZERO PUSH2 0x1003 JUMPI RETURNDATASIZE PUSH1 0x0 DUP1 RETURNDATACOPY RETURNDATASIZE PUSH1 0x0 REVERT JUMPDEST POP POP POP POP POP POP POP POP POP POP POP POP JUMP JUMPDEST PUSH1 0x0 DUP1 PUSH32 0x0 PUSH20 0xFFFFFFFFFFFFFFFFFFFFFFFFFFFFFFFFFFFFFFFF AND PUSH4 0xA213CBAA PUSH1 0x1 PUSH1 0x0 PUSH1 0x40 MLOAD DUP4 PUSH4 0xFFFFFFFF AND PUSH1 0xE0 SHL DUP2 MSTORE PUSH1 0x4 ADD PUSH2 0x1071 SWAP3 SWAP2 SWAP1 PUSH2 0x2AB2 JUMP JUMPDEST PUSH1 0x60 PUSH1 0x40 MLOAD DUP1 DUP4 SUB DUP2 DUP7 GAS STATICCALL ISZERO DUP1 ISZERO PUSH2 0x108E JUMPI RETURNDATASIZE PUSH1 0x0 DUP1 RETURNDATACOPY RETURNDATASIZE PUSH1 0x0 REVERT JUMPDEST POP POP POP POP PUSH1 0x40 MLOAD RETURNDATASIZE PUSH1 0x1F NOT PUSH1 0x1F DUP3 ADD AND DUP3 ADD DUP1 PUSH1 0x40 MSTORE POP DUP2 ADD SWAP1 PUSH2 0x10B2 SWAP2 SWAP1 PUSH2 0x2AF0 JUMP JUMPDEST SWAP3 POP POP POP PUSH32 0x0 PUSH20 0xFFFFFFFFFFFFFFFFFFFFFFFFFFFFFFFFFFFFFFFF AND PUSH4 0xA11A572D PUSH32 0xE146C2986893C43AF5FF396310220BE92058FB9F4CE76B929B80EF0D5307100A PUSH1 0x0 SHL ADDRESS PUSH1 0x40 MLOAD DUP4 PUSH4 0xFFFFFFFF AND PUSH1 0xE0 SHL DUP2 MSTORE PUSH1 0x4 ADD PUSH2 0x1134 SWAP3 SWAP2 SWAP1 PUSH2 0x2BEA JUMP JUMPDEST PUSH1 0x0 PUSH1 0x40 MLOAD DUP1 DUP4 SUB DUP2 DUP7 GAS STATICCALL ISZERO DUP1 ISZERO PUSH2 0x1151 JUMPI RETURNDATASIZE PUSH1 0x0 DUP1 RETURNDATACOPY RETURNDATASIZE PUSH1 0x0 REVERT JUMPDEST POP POP POP POP PUSH1 0x40 MLOAD RETURNDATASIZE PUSH1 0x0 DUP3 RETURNDATACOPY RETURNDATASIZE PUSH1 0x1F NOT PUSH1 0x1F DUP3 ADD AND DUP3 ADD DUP1 PUSH1 0x40 MSTORE POP DUP2 ADD SWAP1 PUSH2 0x117A SWAP2 SWAP1 PUSH2 0x2CF4 JUMP JUMPDEST MLOAD SWAP2 POP PUSH1 0x0 PUSH1 0x40 MLOAD DUP1 PUSH1 0x40 ADD PUSH1 0x40 MSTORE DUP1 PUSH32 0xE146C2986893C43AF5FF396310220BE92058FB9F4CE76B929B80EF0D5307100A PUSH1 0x0 SHL DUP2 MSTORE PUSH1 0x20 ADD PUSH1 0x1 PUSH1 0xFF AND DUP2 MSTORE POP SWAP1 POP PUSH32 0x0 PUSH20 0xFFFFFFFFFFFFFFFFFFFFFFFFFFFFFFFFFFFFFFFF AND PUSH4 0x5C706C9B DUP4 DUP4 PUSH1 0x40 MLOAD DUP4 PUSH4 0xFFFFFFFF AND PUSH1 0xE0 SHL DUP2 MSTORE PUSH1 0x4 ADD PUSH2 0x1217 SWAP2 SWAP1 PUSH2 0x2D7B JUMP JUMPDEST PUSH1 0x0 PUSH1 0x40 MLOAD DUP1 DUP4 SUB DUP2 DUP6 DUP9 DUP1 EXTCODESIZE ISZERO DUP1 ISZERO PUSH2 0x1230 JUMPI PUSH1 0x0 DUP1 REVERT JUMPDEST POP GAS CALL ISZERO DUP1 ISZERO PUSH2 0x1244 JUMPI RETURNDATASIZE PUSH1 0x0 DUP1 RETURNDATACOPY RETURNDATASIZE PUSH1 0x0 REVERT JUMPDEST POP POP POP POP POP POP POP SWAP1 JUMP JUMPDEST PUSH1 0x60 DUP1 PUSH1 0x1 DUP4 MLOAD EQ DUP1 ISZERO PUSH2 0x1286 JUMPI POP PUSH1 0x80 DUP4 PUSH1 0x0 DUP2 MLOAD DUP2 LT PUSH2 0x1273 JUMPI PUSH2 0x1272 PUSH2 0x2514 JUMP JUMPDEST JUMPDEST PUSH1 0x20 ADD ADD MLOAD PUSH1 0xF8 SHR PUSH1 0xF8 SHL PUSH1 0xF8 SHR PUSH1 0xFF AND LT JUMPDEST ISZERO PUSH2 0x1293 JUMPI DUP3 SWAP1 POP PUSH2 0x12C3 JUMP JUMPDEST PUSH2 0x129F DUP4 MLOAD PUSH1 0x80 PUSH2 0x14B1 JUMP JUMPDEST DUP4 PUSH1 0x40 MLOAD PUSH1 0x20 ADD PUSH2 0x12B1 SWAP3 SWAP2 SWAP1 PUSH2 0x2D96 JUMP JUMPDEST PUSH1 0x40 MLOAD PUSH1 0x20 DUP2 DUP4 SUB SUB DUP2 MSTORE SWAP1 PUSH1 0x40 MSTORE SWAP1 POP JUMPDEST DUP1 SWAP2 POP POP SWAP2 SWAP1 POP JUMP JUMPDEST PUSH1 0x60 PUSH2 0x12DF PUSH2 0x12DA DUP4 PUSH2 0x16FD JUMP JUMPDEST PUSH2 0x124E JUMP JUMPDEST SWAP1 POP SWAP2 SWAP1 POP JUMP JUMPDEST PUSH1 0x60 PUSH2 0x1310 DUP3 PUSH1 0x40 MLOAD PUSH1 0x20 ADD PUSH2 0x12FC SWAP2 SWAP1 PUSH2 0x2E02 JUMP JUMPDEST PUSH1 0x40 MLOAD PUSH1 0x20 DUP2 DUP4 SUB SUB DUP2 MSTORE SWAP1 PUSH1 0x40 MSTORE PUSH2 0x124E JUMP JUMPDEST SWAP1 POP SWAP2 SWAP1 POP JUMP JUMPDEST PUSH1 0x60 PUSH1 0x0 PUSH2 0x1325 PUSH1 0x0 PUSH2 0x12CC JUMP JUMPDEST SWAP1 POP PUSH1 0x0 PUSH1 0x9 PUSH8 0xFFFFFFFFFFFFFFFF DUP2 GT ISZERO PUSH2 0x1344 JUMPI PUSH2 0x1343 PUSH2 0x1B2C JUMP JUMPDEST JUMPDEST PUSH1 0x40 MLOAD SWAP1 DUP1 DUP3 MSTORE DUP1 PUSH1 0x20 MUL PUSH1 0x20 ADD DUP3 ADD PUSH1 0x40 MSTORE DUP1 ISZERO PUSH2 0x1377 JUMPI DUP2 PUSH1 0x20 ADD JUMPDEST PUSH1 0x60 DUP2 MSTORE PUSH1 0x20 ADD SWAP1 PUSH1 0x1 SWAP1 SUB SWAP1 DUP2 PUSH2 0x1362 JUMPI SWAP1 POP JUMPDEST POP SWAP1 POP DUP9 DUP2 PUSH1 0x0 DUP2 MLOAD DUP2 LT PUSH2 0x138F JUMPI PUSH2 0x138E PUSH2 0x2514 JUMP JUMPDEST JUMPDEST PUSH1 0x20 MUL PUSH1 0x20 ADD ADD DUP2 SWAP1 MSTORE POP DUP8 DUP2 PUSH1 0x1 DUP2 MLOAD DUP2 LT PUSH2 0x13AF JUMPI PUSH2 0x13AE PUSH2 0x2514 JUMP JUMPDEST JUMPDEST PUSH1 0x20 MUL PUSH1 0x20 ADD ADD DUP2 SWAP1 MSTORE POP DUP7 DUP2 PUSH1 0x2 DUP2 MLOAD DUP2 LT PUSH2 0x13CF JUMPI PUSH2 0x13CE PUSH2 0x2514 JUMP JUMPDEST JUMPDEST PUSH1 0x20 MUL PUSH1 0x20 ADD ADD DUP2 SWAP1 MSTORE POP DUP6 DUP2 PUSH1 0x3 DUP2 MLOAD DUP2 LT PUSH2 0x13EF JUMPI PUSH2 0x13EE PUSH2 0x2514 JUMP JUMPDEST JUMPDEST PUSH1 0x20 MUL PUSH1 0x20 ADD ADD DUP2 SWAP1 MSTORE POP DUP5 DUP2 PUSH1 0x4 DUP2 MLOAD DUP2 LT PUSH2 0x140F JUMPI PUSH2 0x140E PUSH2 0x2514 JUMP JUMPDEST JUMPDEST PUSH1 0x20 MUL PUSH1 0x20 ADD ADD DUP2 SWAP1 MSTORE POP DUP4 DUP2 PUSH1 0x5 DUP2 MLOAD DUP2 LT PUSH2 0x142F JUMPI PUSH2 0x142E PUSH2 0x2514 JUMP JUMPDEST JUMPDEST PUSH1 0x20 MUL PUSH1 0x20 ADD ADD DUP2 SWAP1 MSTORE POP DUP2 DUP2 PUSH1 0x6 DUP2 MLOAD DUP2 LT PUSH2 0x144F JUMPI PUSH2 0x144E PUSH2 0x2514 JUMP JUMPDEST JUMPDEST PUSH1 0x20 MUL PUSH1 0x20 ADD ADD DUP2 SWAP1 MSTORE POP DUP2 DUP2 PUSH1 0x7 DUP2 MLOAD DUP2 LT PUSH2 0x146F JUMPI PUSH2 0x146E PUSH2 0x2514 JUMP JUMPDEST JUMPDEST PUSH1 0x20 MUL PUSH1 0x20 ADD ADD DUP2 SWAP1 MSTORE POP DUP2 DUP2 PUSH1 0x8 DUP2 MLOAD DUP2 LT PUSH2 0x148F JUMPI PUSH2 0x148E PUSH2 0x2514 JUMP JUMPDEST JUMPDEST PUSH1 0x20 MUL PUSH1 0x20 ADD ADD DUP2 SWAP1 MSTORE POP PUSH2 0x14A3 DUP2 PUSH2 0x1874 JUMP JUMPDEST SWAP3 POP POP POP SWAP7 SWAP6 POP POP POP POP POP POP JUMP JUMPDEST PUSH1 0x60 DUP1 PUSH1 0x38 DUP5 LT ISZERO PUSH2 0x1564 JUMPI PUSH1 0x1 PUSH8 0xFFFFFFFFFFFFFFFF DUP2 GT ISZERO PUSH2 0x14D8 JUMPI PUSH2 0x14D7 PUSH2 0x1B2C JUMP JUMPDEST JUMPDEST PUSH1 0x40 MLOAD SWAP1 DUP1 DUP3 MSTORE DUP1 PUSH1 0x1F ADD PUSH1 0x1F NOT AND PUSH1 0x20 ADD DUP3 ADD PUSH1 0x40 MSTORE DUP1 ISZERO PUSH2 0x150A JUMPI DUP2 PUSH1 0x20 ADD PUSH1 0x1 DUP3 MUL DUP1 CALLDATASIZE DUP4 CALLDATACOPY DUP1 DUP3 ADD SWAP2 POP POP SWAP1 POP JUMPDEST POP SWAP1 POP DUP3 DUP5 PUSH2 0x1519 SWAP2 SWAP1 PUSH2 0x2E1D JUMP JUMPDEST PUSH1 0xF8 SHL DUP2 PUSH1 0x0 DUP2 MLOAD DUP2 LT PUSH2 0x1530 JUMPI PUSH2 0x152F PUSH2 0x2514 JUMP JUMPDEST JUMPDEST PUSH1 0x20 ADD ADD SWAP1 PUSH31 0xFFFFFFFFFFFFFFFFFFFFFFFFFFFFFFFFFFFFFFFFFFFFFFFFFFFFFFFFFFFFFF NOT AND SWAP1 DUP2 PUSH1 0x0 BYTE SWAP1 MSTORE8 POP PUSH2 0x16F3 JUMP JUMPDEST PUSH1 0x0 DUP1 PUSH1 0x1 SWAP1 POP JUMPDEST PUSH1 0x0 DUP2 DUP8 PUSH2 0x157A SWAP2 SWAP1 PUSH2 0x2E81 JUMP JUMPDEST EQ PUSH2 0x15A2 JUMPI DUP2 DUP1 PUSH2 0x158A SWAP1 PUSH2 0x27B6 JUMP JUMPDEST SWAP3 POP POP PUSH2 0x100 DUP2 PUSH2 0x159B SWAP2 SWAP1 PUSH2 0x2572 JUMP JUMPDEST SWAP1 POP PUSH2 0x156C JUMP JUMPDEST PUSH1 0x1 DUP3 PUSH2 0x15AF SWAP2 SWAP1 PUSH2 0x25B4 JUMP JUMPDEST PUSH8 0xFFFFFFFFFFFFFFFF DUP2 GT ISZERO PUSH2 0x15C8 JUMPI PUSH2 0x15C7 PUSH2 0x1B2C JUMP JUMPDEST JUMPDEST PUSH1 0x40 MLOAD SWAP1 DUP1 DUP3 MSTORE DUP1 PUSH1 0x1F ADD PUSH1 0x1F NOT AND PUSH1 0x20 ADD DUP3 ADD PUSH1 0x40 MSTORE DUP1 ISZERO PUSH2 0x15FA JUMPI DUP2 PUSH1 0x20 ADD PUSH1 0x1 DUP3 MUL DUP1 CALLDATASIZE DUP4 CALLDATACOPY DUP1 DUP3 ADD SWAP2 POP POP SWAP1 POP JUMPDEST POP SWAP3 POP PUSH1 0x37 DUP6 DUP4 PUSH2 0x160B SWAP2 SWAP1 PUSH2 0x2E1D JUMP JUMPDEST PUSH2 0x1615 SWAP2 SWAP1 PUSH2 0x2E1D JUMP JUMPDEST PUSH1 0xF8 SHL DUP4 PUSH1 0x0 DUP2 MLOAD DUP2 LT PUSH2 0x162C JUMPI PUSH2 0x162B PUSH2 0x2514 JUMP JUMPDEST JUMPDEST PUSH1 0x20 ADD ADD SWAP1 PUSH31 0xFFFFFFFFFFFFFFFFFFFFFFFFFFFFFFFFFFFFFFFFFFFFFFFFFFFFFFFFFFFFFF NOT AND SWAP1 DUP2 PUSH1 0x0 BYTE SWAP1 MSTORE8 POP PUSH1 0x1 SWAP1 POP JUMPDEST DUP2 DUP2 GT PUSH2 0x16F0 JUMPI PUSH2 0x100 DUP2 DUP4 PUSH2 0x1676 SWAP2 SWAP1 PUSH2 0x2EB2 JUMP JUMPDEST PUSH2 0x100 PUSH2 0x1683 SWAP2 SWAP1 PUSH2 0x3019 JUMP JUMPDEST DUP8 PUSH2 0x168E SWAP2 SWAP1 PUSH2 0x2E81 JUMP JUMPDEST PUSH2 0x1698 SWAP2 SWAP1 PUSH2 0x3064 JUMP JUMPDEST PUSH1 0xF8 SHL DUP4 DUP3 DUP2 MLOAD DUP2 LT PUSH2 0x16AE JUMPI PUSH2 0x16AD PUSH2 0x2514 JUMP JUMPDEST JUMPDEST PUSH1 0x20 ADD ADD SWAP1 PUSH31 0xFFFFFFFFFFFFFFFFFFFFFFFFFFFFFFFFFFFFFFFFFFFFFFFFFFFFFFFFFFFFFF NOT AND SWAP1 DUP2 PUSH1 0x0 BYTE SWAP1 MSTORE8 POP DUP1 DUP1 PUSH2 0x16E8 SWAP1 PUSH2 0x27B6 JUMP JUMPDEST SWAP2 POP POP PUSH2 0x1660 JUMP JUMPDEST POP POP JUMPDEST DUP1 SWAP2 POP POP SWAP3 SWAP2 POP POP JUMP JUMPDEST PUSH1 0x60 PUSH1 0x0 DUP3 PUSH1 0x40 MLOAD PUSH1 0x20 ADD PUSH2 0x1712 SWAP2 SWAP1 PUSH2 0x30B6 JUMP JUMPDEST PUSH1 0x40 MLOAD PUSH1 0x20 DUP2 DUP4 SUB SUB DUP2 MSTORE SWAP1 PUSH1 0x40 MSTORE SWAP1 POP PUSH1 0x0 JUMPDEST PUSH1 0x20 DUP2 LT ISZERO PUSH2 0x1786 JUMPI PUSH1 0x0 PUSH1 0xF8 SHL DUP3 DUP3 DUP2 MLOAD DUP2 LT PUSH2 0x1747 JUMPI PUSH2 0x1746 PUSH2 0x2514 JUMP JUMPDEST JUMPDEST PUSH1 0x20 ADD ADD MLOAD PUSH1 0xF8 SHR PUSH1 0xF8 SHL PUSH31 0xFFFFFFFFFFFFFFFFFFFFFFFFFFFFFFFFFFFFFFFFFFFFFFFFFFFFFFFFFFFFFF NOT AND SUB PUSH2 0x1786 JUMPI DUP1 DUP1 PUSH1 0x1 ADD SWAP2 POP POP PUSH2 0x1726 JUMP JUMPDEST PUSH1 0x0 DUP2 PUSH1 0x20 PUSH2 0x1795 SWAP2 SWAP1 PUSH2 0x2EB2 JUMP JUMPDEST PUSH8 0xFFFFFFFFFFFFFFFF DUP2 GT ISZERO PUSH2 0x17AE JUMPI PUSH2 0x17AD PUSH2 0x1B2C JUMP JUMPDEST JUMPDEST PUSH1 0x40 MLOAD SWAP1 DUP1 DUP3 MSTORE DUP1 PUSH1 0x1F ADD PUSH1 0x1F NOT AND PUSH1 0x20 ADD DUP3 ADD PUSH1 0x40 MSTORE DUP1 ISZERO PUSH2 0x17E0 JUMPI DUP2 PUSH1 0x20 ADD PUSH1 0x1 DUP3 MUL DUP1 CALLDATASIZE DUP4 CALLDATACOPY DUP1 DUP3 ADD SWAP2 POP POP SWAP1 POP JUMPDEST POP SWAP1 POP PUSH1 0x0 JUMPDEST DUP2 MLOAD DUP2 LT ISZERO PUSH2 0x1868 JUMPI DUP4 DUP4 DUP1 PUSH2 0x17FB SWAP1 PUSH2 0x27B6 JUMP JUMPDEST SWAP5 POP DUP2 MLOAD DUP2 LT PUSH2 0x180E JUMPI PUSH2 0x180D PUSH2 0x2514 JUMP JUMPDEST JUMPDEST PUSH1 0x20 ADD ADD MLOAD PUSH1 0xF8 SHR PUSH1 0xF8 SHL DUP3 DUP3 DUP2 MLOAD DUP2 LT PUSH2 0x182C JUMPI PUSH2 0x182B PUSH2 0x2514 JUMP JUMPDEST JUMPDEST PUSH1 0x20 ADD ADD SWAP1 PUSH31 0xFFFFFFFFFFFFFFFFFFFFFFFFFFFFFFFFFFFFFFFFFFFFFFFFFFFFFFFFFFFFFF NOT AND SWAP1 DUP2 PUSH1 0x0 BYTE SWAP1 MSTORE8 POP DUP1 DUP1 PUSH1 0x1 ADD SWAP2 POP POP PUSH2 0x17E6 JUMP JUMPDEST POP DUP1 SWAP4 POP POP POP POP SWAP2 SWAP1 POP JUMP JUMPDEST PUSH1 0x60 PUSH1 0x0 PUSH2 0x1881 DUP4 PUSH2 0x18B8 JUMP JUMPDEST SWAP1 POP PUSH2 0x188F DUP2 MLOAD PUSH1 0xC0 PUSH2 0x14B1 JUMP JUMPDEST DUP2 PUSH1 0x40 MLOAD PUSH1 0x20 ADD PUSH2 0x18A1 SWAP3 SWAP2 SWAP1 PUSH2 0x2D96 JUMP JUMPDEST PUSH1 0x40 MLOAD PUSH1 0x20 DUP2 DUP4 SUB SUB DUP2 MSTORE SWAP1 PUSH1 0x40 MSTORE SWAP2 POP POP SWAP2 SWAP1 POP JUMP JUMPDEST PUSH1 0x60 PUSH1 0x0 DUP3 MLOAD SUB PUSH2 0x1918 JUMPI PUSH1 0x0 PUSH8 0xFFFFFFFFFFFFFFFF DUP2 GT ISZERO PUSH2 0x18DE JUMPI PUSH2 0x18DD PUSH2 0x1B2C JUMP JUMPDEST JUMPDEST PUSH1 0x40 MLOAD SWAP1 DUP1 DUP3 MSTORE DUP1 PUSH1 0x1F ADD PUSH1 0x1F NOT AND PUSH1 0x20 ADD DUP3 ADD PUSH1 0x40 MSTORE DUP1 ISZERO PUSH2 0x1910 JUMPI DUP2 PUSH1 0x20 ADD PUSH1 0x1 DUP3 MUL DUP1 CALLDATASIZE DUP4 CALLDATACOPY DUP1 DUP3 ADD SWAP2 POP POP SWAP1 POP JUMPDEST POP SWAP1 POP PUSH2 0x1A39 JUMP JUMPDEST PUSH1 0x0 DUP1 PUSH1 0x0 SWAP1 POP JUMPDEST DUP4 MLOAD DUP2 LT ISZERO PUSH2 0x195F JUMPI DUP4 DUP2 DUP2 MLOAD DUP2 LT PUSH2 0x193C JUMPI PUSH2 0x193B PUSH2 0x2514 JUMP JUMPDEST JUMPDEST PUSH1 0x20 MUL PUSH1 0x20 ADD ADD MLOAD MLOAD DUP3 PUSH2 0x1950 SWAP2 SWAP1 PUSH2 0x25B4 JUMP JUMPDEST SWAP2 POP DUP1 DUP1 PUSH1 0x1 ADD SWAP2 POP POP PUSH2 0x1920 JUMP JUMPDEST PUSH1 0x0 DUP3 PUSH8 0xFFFFFFFFFFFFFFFF DUP2 GT ISZERO PUSH2 0x197B JUMPI PUSH2 0x197A PUSH2 0x1B2C JUMP JUMPDEST JUMPDEST PUSH1 0x40 MLOAD SWAP1 DUP1 DUP3 MSTORE DUP1 PUSH1 0x1F ADD PUSH1 0x1F NOT AND PUSH1 0x20 ADD DUP3 ADD PUSH1 0x40 MSTORE DUP1 ISZERO PUSH2 0x19AD JUMPI DUP2 PUSH1 0x20 ADD PUSH1 0x1 DUP3 MUL DUP1 CALLDATASIZE DUP4 CALLDATACOPY DUP1 DUP3 ADD SWAP2 POP POP SWAP1 POP JUMPDEST POP SWAP1 POP PUSH1 0x0 PUSH1 0x20 DUP3 ADD SWAP1 POP PUSH1 0x0 SWAP3 POP JUMPDEST DUP6 MLOAD DUP4 LT ISZERO PUSH2 0x1A31 JUMPI PUSH1 0x0 DUP7 DUP5 DUP2 MLOAD DUP2 LT PUSH2 0x19DB JUMPI PUSH2 0x19DA PUSH2 0x2514 JUMP JUMPDEST JUMPDEST PUSH1 0x20 MUL PUSH1 0x20 ADD ADD MLOAD SWAP1 POP PUSH1 0x0 PUSH1 0x20 DUP3 ADD SWAP1 POP PUSH2 0x19F9 DUP4 DUP3 DUP5 MLOAD PUSH2 0x1A3E JUMP JUMPDEST DUP8 DUP6 DUP2 MLOAD DUP2 LT PUSH2 0x1A0C JUMPI PUSH2 0x1A0B PUSH2 0x2514 JUMP JUMPDEST JUMPDEST PUSH1 0x20 MUL PUSH1 0x20 ADD ADD MLOAD MLOAD DUP4 PUSH2 0x1A20 SWAP2 SWAP1 PUSH2 0x25B4 JUMP JUMPDEST SWAP3 POP POP POP DUP3 DUP1 PUSH1 0x1 ADD SWAP4 POP POP PUSH2 0x19BD JUMP JUMPDEST DUP2 SWAP5 POP POP POP POP POP JUMPDEST SWAP2 SWAP1 POP JUMP JUMPDEST PUSH1 0x0 DUP4 SWAP1 POP PUSH1 0x0 DUP4 SWAP1 POP PUSH1 0x0 DUP4 SWAP1 POP JUMPDEST PUSH1 0x20 DUP2 LT PUSH2 0x1A8C JUMPI DUP2 MLOAD DUP4 MSTORE PUSH1 0x20 DUP4 PUSH2 0x1A67 SWAP2 SWAP1 PUSH2 0x25B4 JUMP JUMPDEST SWAP3 POP PUSH1 0x20 DUP3 PUSH2 0x1A76 SWAP2 SWAP1 PUSH2 0x25B4 JUMP JUMPDEST SWAP2 POP PUSH1 0x20 DUP2 PUSH2 0x1A85 SWAP2 SWAP1 PUSH2 0x2EB2 JUMP JUMPDEST SWAP1 POP PUSH2 0x1A4E JUMP JUMPDEST PUSH1 0x0 PUSH1 0x1 DUP3 PUSH1 0x20 SUB PUSH2 0x100 EXP SUB SWAP1 POP DUP1 NOT DUP4 MLOAD AND DUP2 DUP6 MLOAD AND DUP2 DUP2 OR DUP7 MSTORE POP POP POP POP POP POP POP POP POP JUMP JUMPDEST PUSH1 0x40 MLOAD DUP1 PUSH1 0xA0 ADD PUSH1 0x40 MSTORE DUP1 PUSH1 0x0 DUP2 MSTORE PUSH1 0x20 ADD PUSH1 0x60 DUP2 MSTORE PUSH1 0x20 ADD PUSH1 0x0 PUSH20 0xFFFFFFFFFFFFFFFFFFFFFFFFFFFFFFFFFFFFFFFF AND DUP2 MSTORE PUSH1 0x20 ADD PUSH1 0x0 ISZERO ISZERO DUP2 MSTORE PUSH1 0x20 ADD PUSH1 0x0 ISZERO ISZERO DUP2 MSTORE POP SWAP1 JUMP JUMPDEST PUSH1 0x0 PUSH1 0x40 MLOAD SWAP1 POP SWAP1 JUMP JUMPDEST PUSH1 0x0 DUP1 REVERT JUMPDEST PUSH1 0x0 DUP1 REVERT JUMPDEST PUSH1 0x0 DUP1 REVERT JUMPDEST PUSH1 0x0 DUP1 REVERT JUMPDEST PUSH1 0x0 PUSH1 0x1F NOT PUSH1 0x1F DUP4 ADD AND SWAP1 POP SWAP2 SWAP1 POP JUMP JUMPDEST PUSH32 0x4E487B7100000000000000000000000000000000000000000000000000000000 PUSH1 0x0 MSTORE PUSH1 0x41 PUSH1 0x4 MSTORE PUSH1 0x24 PUSH1 0x0 REVERT JUMPDEST PUSH2 0x1B64 DUP3 PUSH2 0x1B1B JUMP JUMPDEST DUP2 ADD DUP2 DUP2 LT PUSH8 0xFFFFFFFFFFFFFFFF DUP3 GT OR ISZERO PUSH2 0x1B83 JUMPI PUSH2 0x1B82 PUSH2 0x1B2C JUMP JUMPDEST JUMPDEST DUP1 PUSH1 0x40 MSTORE POP POP POP JUMP JUMPDEST PUSH1 0x0 PUSH2 0x1B96 PUSH2 0x1AFD JUMP JUMPDEST SWAP1 POP PUSH2 0x1BA2 DUP3 DUP3 PUSH2 0x1B5B JUMP JUMPDEST SWAP2 SWAP1 POP JUMP JUMPDEST PUSH1 0x0 PUSH8 0xFFFFFFFFFFFFFFFF DUP3 GT ISZERO PUSH2 0x1BC2 JUMPI PUSH2 0x1BC1 PUSH2 0x1B2C JUMP JUMPDEST JUMPDEST PUSH2 0x1BCB DUP3 PUSH2 0x1B1B JUMP JUMPDEST SWAP1 POP PUSH1 0x20 DUP2 ADD SWAP1 POP SWAP2 SWAP1 POP JUMP JUMPDEST DUP3 DUP2 DUP4 CALLDATACOPY PUSH1 0x0 DUP4 DUP4 ADD MSTORE POP POP POP JUMP JUMPDEST PUSH1 0x0 PUSH2 0x1BFA PUSH2 0x1BF5 DUP5 PUSH2 0x1BA7 JUMP JUMPDEST PUSH2 0x1B8C JUMP JUMPDEST SWAP1 POP DUP3 DUP2 MSTORE PUSH1 0x20 DUP2 ADD DUP5 DUP5 DUP5 ADD GT ISZERO PUSH2 0x1C16 JUMPI PUSH2 0x1C15 PUSH2 0x1B16 JUMP JUMPDEST JUMPDEST PUSH2 0x1C21 DUP5 DUP3 DUP6 PUSH2 0x1BD8 JUMP JUMPDEST POP SWAP4 SWAP3 POP POP POP JUMP JUMPDEST PUSH1 0x0 DUP3 PUSH1 0x1F DUP4 ADD SLT PUSH2 0x1C3E JUMPI PUSH2 0x1C3D PUSH2 0x1B11 JUMP JUMPDEST JUMPDEST DUP2 CALLDATALOAD PUSH2 0x1C4E DUP5 DUP3 PUSH1 0x20 DUP7 ADD PUSH2 0x1BE7 JUMP JUMPDEST SWAP2 POP POP SWAP3 SWAP2 POP POP JUMP JUMPDEST PUSH1 0x0 PUSH1 0x20 DUP3 DUP5 SUB SLT ISZERO PUSH2 0x1C6D JUMPI PUSH2 0x1C6C PUSH2 0x1B07 JUMP JUMPDEST JUMPDEST PUSH1 0x0 DUP3 ADD CALLDATALOAD PUSH8 0xFFFFFFFFFFFFFFFF DUP2 GT ISZERO PUSH2 0x1C8B JUMPI PUSH2 0x1C8A PUSH2 0x1B0C JUMP JUMPDEST JUMPDEST PUSH2 0x1C97 DUP5 DUP3 DUP6 ADD PUSH2 0x1C29 JUMP JUMPDEST SWAP2 POP POP SWAP3 SWAP2 POP POP JUMP JUMPDEST PUSH1 0x0 PUSH8 0xFFFFFFFFFFFFFFFF DUP3 GT ISZERO PUSH2 0x1CBB JUMPI PUSH2 0x1CBA PUSH2 0x1B2C JUMP JUMPDEST JUMPDEST PUSH1 0x20 DUP3 MUL SWAP1 POP PUSH1 0x20 DUP2 ADD SWAP1 POP SWAP2 SWAP1 POP JUMP JUMPDEST PUSH1 0x0 DUP1 REVERT JUMPDEST PUSH1 0x0 DUP1 REVERT JUMPDEST PUSH1 0x0 DUP1 REVERT JUMPDEST PUSH1 0x0 DUP2 SWAP1 POP SWAP2 SWAP1 POP JUMP JUMPDEST PUSH2 0x1CEE DUP2 PUSH2 0x1CDB JUMP JUMPDEST DUP2 EQ PUSH2 0x1CF9 JUMPI PUSH1 0x0 DUP1 REVERT JUMPDEST POP JUMP JUMPDEST PUSH1 0x0 DUP2 CALLDATALOAD SWAP1 POP PUSH2 0x1D0B DUP2 PUSH2 0x1CE5 JUMP JUMPDEST SWAP3 SWAP2 POP POP JUMP JUMPDEST PUSH1 0x0 PUSH20 0xFFFFFFFFFFFFFFFFFFFFFFFFFFFFFFFFFFFFFFFF DUP3 AND SWAP1 POP SWAP2 SWAP1 POP JUMP JUMPDEST PUSH1 0x0 PUSH2 0x1D3C DUP3 PUSH2 0x1D11 JUMP JUMPDEST SWAP1 POP SWAP2 SWAP1 POP JUMP JUMPDEST PUSH2 0x1D4C DUP2 PUSH2 0x1D31 JUMP JUMPDEST DUP2 EQ PUSH2 0x1D57 JUMPI PUSH1 0x0 DUP1 REVERT JUMPDEST POP JUMP JUMPDEST PUSH1 0x0 DUP2 CALLDATALOAD SWAP1 POP PUSH2 0x1D69 DUP2 PUSH2 0x1D43 JUMP JUMPDEST SWAP3 SWAP2 POP POP JUMP JUMPDEST PUSH1 0x0 PUSH8 0xFFFFFFFFFFFFFFFF DUP3 GT ISZERO PUSH2 0x1D8A JUMPI PUSH2 0x1D89 PUSH2 0x1B2C JUMP JUMPDEST JUMPDEST PUSH2 0x1D93 DUP3 PUSH2 0x1B1B JUMP JUMPDEST SWAP1 POP PUSH1 0x20 DUP2 ADD SWAP1 POP SWAP2 SWAP1 POP JUMP JUMPDEST PUSH1 0x0 PUSH2 0x1DB3 PUSH2 0x1DAE DUP5 PUSH2 0x1D6F JUMP JUMPDEST PUSH2 0x1B8C JUMP JUMPDEST SWAP1 POP DUP3 DUP2 MSTORE PUSH1 0x20 DUP2 ADD DUP5 DUP5 DUP5 ADD GT ISZERO PUSH2 0x1DCF JUMPI PUSH2 0x1DCE PUSH2 0x1B16 JUMP JUMPDEST JUMPDEST PUSH2 0x1DDA DUP5 DUP3 DUP6 PUSH2 0x1BD8 JUMP JUMPDEST POP SWAP4 SWAP3 POP POP POP JUMP JUMPDEST PUSH1 0x0 DUP3 PUSH1 0x1F DUP4 ADD SLT PUSH2 0x1DF7 JUMPI PUSH2 0x1DF6 PUSH2 0x1B11 JUMP JUMPDEST JUMPDEST DUP2 CALLDATALOAD PUSH2 0x1E07 DUP5 DUP3 PUSH1 0x20 DUP7 ADD PUSH2 0x1DA0 JUMP JUMPDEST SWAP2 POP POP SWAP3 SWAP2 POP POP JUMP JUMPDEST PUSH1 0x0 PUSH1 0xE0 DUP3 DUP5 SUB SLT ISZERO PUSH2 0x1E26 JUMPI PUSH2 0x1E25 PUSH2 0x1CD1 JUMP JUMPDEST JUMPDEST PUSH2 0x1E30 PUSH1 0xE0 PUSH2 0x1B8C JUMP JUMPDEST SWAP1 POP PUSH1 0x0 PUSH2 0x1E40 DUP5 DUP3 DUP6 ADD PUSH2 0x1CFC JUMP JUMPDEST PUSH1 0x0 DUP4 ADD MSTORE POP PUSH1 0x20 PUSH2 0x1E54 DUP5 DUP3 DUP6 ADD PUSH2 0x1D5A JUMP JUMPDEST PUSH1 0x20 DUP4 ADD MSTORE POP PUSH1 0x40 DUP3 ADD CALLDATALOAD PUSH8 0xFFFFFFFFFFFFFFFF DUP2 GT ISZERO PUSH2 0x1E78 JUMPI PUSH2 0x1E77 PUSH2 0x1CD6 JUMP JUMPDEST JUMPDEST PUSH2 0x1E84 DUP5 DUP3 DUP6 ADD PUSH2 0x1C29 JUMP JUMPDEST PUSH1 0x40 DUP4 ADD MSTORE POP PUSH1 0x60 PUSH2 0x1E98 DUP5 DUP3 DUP6 ADD PUSH2 0x1CFC JUMP JUMPDEST PUSH1 0x60 DUP4 ADD MSTORE POP PUSH1 0x80 PUSH2 0x1EAC DUP5 DUP3 DUP6 ADD PUSH2 0x1CFC JUMP JUMPDEST PUSH1 0x80 DUP4 ADD MSTORE POP PUSH1 0xA0 PUSH2 0x1EC0 DUP5 DUP3 DUP6 ADD PUSH2 0x1CFC JUMP JUMPDEST PUSH1 0xA0 DUP4 ADD MSTORE POP PUSH1 0xC0 DUP3 ADD CALLDATALOAD PUSH8 0xFFFFFFFFFFFFFFFF DUP2 GT ISZERO PUSH2 0x1EE4 JUMPI PUSH2 0x1EE3 PUSH2 0x1CD6 JUMP JUMPDEST JUMPDEST PUSH2 0x1EF0 DUP5 DUP3 DUP6 ADD PUSH2 0x1DE2 JUMP JUMPDEST PUSH1 0xC0 DUP4 ADD MSTORE POP SWAP3 SWAP2 POP POP JUMP JUMPDEST PUSH1 0x0 PUSH2 0x1F0F PUSH2 0x1F0A DUP5 PUSH2 0x1CA0 JUMP JUMPDEST PUSH2 0x1B8C JUMP JUMPDEST SWAP1 POP DUP1 DUP4 DUP3 MSTORE PUSH1 0x20 DUP3 ADD SWAP1 POP PUSH1 0x20 DUP5 MUL DUP4 ADD DUP6 DUP2 GT ISZERO PUSH2 0x1F32 JUMPI PUSH2 0x1F31 PUSH2 0x1CCC JUMP JUMPDEST JUMPDEST DUP4 JUMPDEST DUP2 DUP2 LT ISZERO PUSH2 0x1F79 JUMPI DUP1 CALLDATALOAD PUSH8 0xFFFFFFFFFFFFFFFF DUP2 GT ISZERO PUSH2 0x1F57 JUMPI PUSH2 0x1F56 PUSH2 0x1B11 JUMP JUMPDEST JUMPDEST DUP1 DUP7 ADD PUSH2 0x1F64 DUP10 DUP3 PUSH2 0x1E10 JUMP JUMPDEST DUP6 MSTORE PUSH1 0x20 DUP6 ADD SWAP5 POP POP POP PUSH1 0x20 DUP2 ADD SWAP1 POP PUSH2 0x1F34 JUMP JUMPDEST POP POP POP SWAP4 SWAP3 POP POP POP JUMP JUMPDEST PUSH1 0x0 DUP3 PUSH1 0x1F DUP4 ADD SLT PUSH2 0x1F98 JUMPI PUSH2 0x1F97 PUSH2 0x1B11 JUMP JUMPDEST JUMPDEST DUP2 CALLDATALOAD PUSH2 0x1FA8 DUP5 DUP3 PUSH1 0x20 DUP7 ADD PUSH2 0x1EFC JUMP JUMPDEST SWAP2 POP POP SWAP3 SWAP2 POP POP JUMP JUMPDEST PUSH1 0x0 DUP1 PUSH1 0x0 PUSH1 0x60 DUP5 DUP7 SUB SLT ISZERO PUSH2 0x1FCA JUMPI PUSH2 0x1FC9 PUSH2 0x1B07 JUMP JUMPDEST JUMPDEST PUSH1 0x0 DUP5 ADD CALLDATALOAD PUSH8 0xFFFFFFFFFFFFFFFF DUP2 GT ISZERO PUSH2 0x1FE8 JUMPI PUSH2 0x1FE7 PUSH2 0x1B0C JUMP JUMPDEST JUMPDEST PUSH2 0x1FF4 DUP7 DUP3 DUP8 ADD PUSH2 0x1F83 JUMP JUMPDEST SWAP4 POP POP PUSH1 0x20 PUSH2 0x2005 DUP7 DUP3 DUP8 ADD PUSH2 0x1CFC JUMP JUMPDEST SWAP3 POP POP PUSH1 0x40 DUP5 ADD CALLDATALOAD PUSH8 0xFFFFFFFFFFFFFFFF DUP2 GT ISZERO PUSH2 0x2026 JUMPI PUSH2 0x2025 PUSH2 0x1B0C JUMP JUMPDEST JUMPDEST PUSH2 0x2032 DUP7 DUP3 DUP8 ADD PUSH2 0x1C29 JUMP JUMPDEST SWAP2 POP POP SWAP3 POP SWAP3 POP SWAP3 JUMP JUMPDEST PUSH1 0x0 PUSH1 0x20 DUP3 DUP5 SUB SLT ISZERO PUSH2 0x2052 JUMPI PUSH2 0x2051 PUSH2 0x1B07 JUMP JUMPDEST JUMPDEST PUSH1 0x0 PUSH2 0x2060 DUP5 DUP3 DUP6 ADD PUSH2 0x1D5A JUMP JUMPDEST SWAP2 POP POP SWAP3 SWAP2 POP POP JUMP JUMPDEST PUSH2 0x2072 DUP2 PUSH2 0x1CDB JUMP JUMPDEST DUP3 MSTORE POP POP JUMP JUMPDEST PUSH1 0x0 DUP2 MLOAD SWAP1 POP SWAP2 SWAP1 POP JUMP JUMPDEST PUSH1 0x0 DUP3 DUP3 MSTORE PUSH1 0x20 DUP3 ADD SWAP1 POP SWAP3 SWAP2 POP POP JUMP JUMPDEST PUSH1 0x0 JUMPDEST DUP4 DUP2 LT ISZERO PUSH2 0x20B2 JUMPI DUP1 DUP3 ADD MLOAD DUP2 DUP5 ADD MSTORE PUSH1 0x20 DUP2 ADD SWAP1 POP PUSH2 0x2097 JUMP JUMPDEST PUSH1 0x0 DUP5 DUP5 ADD MSTORE POP POP POP POP JUMP JUMPDEST PUSH1 0x0 PUSH2 0x20C9 DUP3 PUSH2 0x2078 JUMP JUMPDEST PUSH2 0x20D3 DUP2 DUP6 PUSH2 0x2083 JUMP JUMPDEST SWAP4 POP PUSH2 0x20E3 DUP2 DUP6 PUSH1 0x20 DUP7 ADD PUSH2 0x2094 JUMP JUMPDEST PUSH2 0x20EC DUP2 PUSH2 0x1B1B JUMP JUMPDEST DUP5 ADD SWAP2 POP POP SWAP3 SWAP2 POP POP JUMP JUMPDEST PUSH2 0x2100 DUP2 PUSH2 0x1D31 JUMP JUMPDEST DUP3 MSTORE POP POP JUMP JUMPDEST PUSH1 0x0 DUP2 ISZERO ISZERO SWAP1 POP SWAP2 SWAP1 POP JUMP JUMPDEST PUSH2 0x211B DUP2 PUSH2 0x2106 JUMP JUMPDEST DUP3 MSTORE POP POP JUMP JUMPDEST PUSH1 0x0 PUSH1 0xA0 DUP4 ADD PUSH1 0x0 DUP4 ADD MLOAD PUSH2 0x2139 PUSH1 0x0 DUP7 ADD DUP3 PUSH2 0x2069 JUMP JUMPDEST POP PUSH1 0x20 DUP4 ADD MLOAD DUP5 DUP3 SUB PUSH1 0x20 DUP7 ADD MSTORE PUSH2 0x2151 DUP3 DUP3 PUSH2 0x20BE JUMP JUMPDEST SWAP2 POP POP PUSH1 0x40 DUP4 ADD MLOAD PUSH2 0x2166 PUSH1 0x40 DUP7 ADD DUP3 PUSH2 0x20F7 JUMP JUMPDEST POP PUSH1 0x60 DUP4 ADD MLOAD PUSH2 0x2179 PUSH1 0x60 DUP7 ADD DUP3 PUSH2 0x2112 JUMP JUMPDEST POP PUSH1 0x80 DUP4 ADD MLOAD PUSH2 0x218C PUSH1 0x80 DUP7 ADD DUP3 PUSH2 0x2112 JUMP JUMPDEST POP DUP1 SWAP2 POP POP SWAP3 SWAP2 POP POP JUMP JUMPDEST PUSH1 0x0 PUSH1 0x20 DUP3 ADD SWAP1 POP DUP2 DUP2 SUB PUSH1 0x0 DUP4 ADD MSTORE PUSH2 0x21B1 DUP2 DUP5 PUSH2 0x2121 JUMP JUMPDEST SWAP1 POP SWAP3 SWAP2 POP POP JUMP JUMPDEST PUSH32 0x4E487B7100000000000000000000000000000000000000000000000000000000 PUSH1 0x0 MSTORE PUSH1 0x22 PUSH1 0x4 MSTORE PUSH1 0x24 PUSH1 0x0 REVERT JUMPDEST PUSH1 0x0 PUSH1 0x2 DUP3 DIV SWAP1 POP PUSH1 0x1 DUP3 AND DUP1 PUSH2 0x2200 JUMPI PUSH1 0x7F DUP3 AND SWAP2 POP JUMPDEST PUSH1 0x20 DUP3 LT DUP2 SUB PUSH2 0x2213 JUMPI PUSH2 0x2212 PUSH2 0x21B9 JUMP JUMPDEST JUMPDEST POP SWAP2 SWAP1 POP JUMP JUMPDEST PUSH1 0x0 DUP2 SWAP1 POP DUP2 PUSH1 0x0 MSTORE PUSH1 0x20 PUSH1 0x0 KECCAK256 SWAP1 POP SWAP2 SWAP1 POP JUMP JUMPDEST PUSH1 0x0 PUSH1 0x20 PUSH1 0x1F DUP4 ADD DIV SWAP1 POP SWAP2 SWAP1 POP JUMP JUMPDEST PUSH1 0x0 DUP3 DUP3 SHL SWAP1 POP SWAP3 SWAP2 POP POP JUMP JUMPDEST PUSH1 0x0 PUSH1 0x8 DUP4 MUL PUSH2 0x227B PUSH32 0xFFFFFFFFFFFFFFFFFFFFFFFFFFFFFFFFFFFFFFFFFFFFFFFFFFFFFFFFFFFFFFFF DUP3 PUSH2 0x223E JUMP JUMPDEST PUSH2 0x2285 DUP7 DUP4 PUSH2 0x223E JUMP JUMPDEST SWAP6 POP DUP1 NOT DUP5 AND SWAP4 POP DUP1 DUP7 AND DUP5 OR SWAP3 POP POP POP SWAP4 SWAP3 POP POP POP JUMP JUMPDEST PUSH1 0x0 DUP2 SWAP1 POP SWAP2 SWAP1 POP JUMP JUMPDEST PUSH1 0x0 PUSH2 0x22C2 PUSH2 0x22BD PUSH2 0x22B8 DUP5 PUSH2 0x1CDB JUMP JUMPDEST PUSH2 0x229D JUMP JUMPDEST PUSH2 0x1CDB JUMP JUMPDEST SWAP1 POP SWAP2 SWAP1 POP JUMP JUMPDEST PUSH1 0x0 DUP2 SWAP1 POP SWAP2 SWAP1 POP JUMP JUMPDEST PUSH2 0x22DC DUP4 PUSH2 0x22A7 JUMP JUMPDEST PUSH2 0x22F0 PUSH2 0x22E8 DUP3 PUSH2 0x22C9 JUMP JUMPDEST DUP5 DUP5 SLOAD PUSH2 0x224B JUMP JUMPDEST DUP3 SSTORE POP POP POP POP JUMP JUMPDEST PUSH1 0x0 SWAP1 JUMP JUMPDEST PUSH2 0x2305 PUSH2 0x22F8 JUMP JUMPDEST PUSH2 0x2310 DUP2 DUP5 DUP5 PUSH2 0x22D3 JUMP JUMPDEST POP POP POP JUMP JUMPDEST JUMPDEST DUP2 DUP2 LT ISZERO PUSH2 0x2334 JUMPI PUSH2 0x2329 PUSH1 0x0 DUP3 PUSH2 0x22FD JUMP JUMPDEST PUSH1 0x1 DUP2 ADD SWAP1 POP PUSH2 0x2316 JUMP JUMPDEST POP POP JUMP JUMPDEST PUSH1 0x1F DUP3 GT ISZERO PUSH2 0x2379 JUMPI PUSH2 0x234A DUP2 PUSH2 0x2219 JUMP JUMPDEST PUSH2 0x2353 DUP5 PUSH2 0x222E JUMP JUMPDEST DUP2 ADD PUSH1 0x20 DUP6 LT ISZERO PUSH2 0x2362 JUMPI DUP2 SWAP1 POP JUMPDEST PUSH2 0x2376 PUSH2 0x236E DUP6 PUSH2 0x222E JUMP JUMPDEST DUP4 ADD DUP3 PUSH2 0x2315 JUMP JUMPDEST POP POP JUMPDEST POP POP POP JUMP JUMPDEST PUSH1 0x0 DUP3 DUP3 SHR SWAP1 POP SWAP3 SWAP2 POP POP JUMP JUMPDEST PUSH1 0x0 PUSH2 0x239C PUSH1 0x0 NOT DUP5 PUSH1 0x8 MUL PUSH2 0x237E JUMP JUMPDEST NOT DUP1 DUP4 AND SWAP2 POP POP SWAP3 SWAP2 POP POP JUMP JUMPDEST PUSH1 0x0 PUSH2 0x23B5 DUP4 DUP4 PUSH2 0x238B JUMP JUMPDEST SWAP2 POP DUP3 PUSH1 0x2 MUL DUP3 OR SWAP1 POP SWAP3 SWAP2 POP POP JUMP JUMPDEST PUSH2 0x23CE DUP3 PUSH2 0x2078 JUMP JUMPDEST PUSH8 0xFFFFFFFFFFFFFFFF DUP2 GT ISZERO PUSH2 0x23E7 JUMPI PUSH2 0x23E6 PUSH2 0x1B2C JUMP JUMPDEST JUMPDEST PUSH2 0x23F1 DUP3 SLOAD PUSH2 0x21E8 JUMP JUMPDEST PUSH2 0x23FC DUP3 DUP3 DUP6 PUSH2 0x2338 JUMP JUMPDEST PUSH1 0x0 PUSH1 0x20 SWAP1 POP PUSH1 0x1F DUP4 GT PUSH1 0x1 DUP2 EQ PUSH2 0x242F JUMPI PUSH1 0x0 DUP5 ISZERO PUSH2 0x241D JUMPI DUP3 DUP8 ADD MLOAD SWAP1 POP JUMPDEST PUSH2 0x2427 DUP6 DUP3 PUSH2 0x23A9 JUMP JUMPDEST DUP7 SSTORE POP PUSH2 0x248F JUMP JUMPDEST PUSH1 0x1F NOT DUP5 AND PUSH2 0x243D DUP7 PUSH2 0x2219 JUMP JUMPDEST PUSH1 0x0 JUMPDEST DUP3 DUP2 LT ISZERO PUSH2 0x2465 JUMPI DUP5 DUP10 ADD MLOAD DUP3 SSTORE PUSH1 0x1 DUP3 ADD SWAP2 POP PUSH1 0x20 DUP6 ADD SWAP5 POP PUSH1 0x20 DUP2 ADD SWAP1 POP PUSH2 0x2440 JUMP JUMPDEST DUP7 DUP4 LT ISZERO PUSH2 0x2482 JUMPI DUP5 DUP10 ADD MLOAD PUSH2 0x247E PUSH1 0x1F DUP10 AND DUP3 PUSH2 0x238B JUMP JUMPDEST DUP4 SSTORE POP JUMPDEST PUSH1 0x1 PUSH1 0x2 DUP9 MUL ADD DUP9 SSTORE POP POP POP JUMPDEST POP POP POP POP POP POP JUMP JUMPDEST PUSH1 0x0 DUP3 DUP3 MSTORE PUSH1 0x20 DUP3 ADD SWAP1 POP SWAP3 SWAP2 POP POP JUMP JUMPDEST PUSH32 0x756E617574686F72697A65640000000000000000000000000000000000000000 PUSH1 0x0 DUP3 ADD MSTORE POP JUMP JUMPDEST PUSH1 0x0 PUSH2 0x24DE PUSH1 0xC DUP4 PUSH2 0x2497 JUMP JUMPDEST SWAP2 POP PUSH2 0x24E9 DUP3 PUSH2 0x24A8 JUMP JUMPDEST PUSH1 0x20 DUP3 ADD SWAP1 POP SWAP2 SWAP1 POP JUMP JUMPDEST PUSH1 0x0 PUSH1 0x20 DUP3 ADD SWAP1 POP DUP2 DUP2 SUB PUSH1 0x0 DUP4 ADD MSTORE PUSH2 0x250D DUP2 PUSH2 0x24D1 JUMP JUMPDEST SWAP1 POP SWAP2 SWAP1 POP JUMP JUMPDEST PUSH32 0x4E487B7100000000000000000000000000000000000000000000000000000000 PUSH1 0x0 MSTORE PUSH1 0x32 PUSH1 0x4 MSTORE PUSH1 0x24 PUSH1 0x0 REVERT JUMPDEST PUSH32 0x4E487B7100000000000000000000000000000000000000000000000000000000 PUSH1 0x0 MSTORE PUSH1 0x11 PUSH1 0x4 MSTORE PUSH1 0x24 PUSH1 0x0 REVERT JUMPDEST PUSH1 0x0 PUSH2 0x257D DUP3 PUSH2 0x1CDB JUMP JUMPDEST SWAP2 POP PUSH2 0x2588 DUP4 PUSH2 0x1CDB JUMP JUMPDEST SWAP3 POP DUP3 DUP3 MUL PUSH2 0x2596 DUP2 PUSH2 0x1CDB JUMP JUMPDEST SWAP2 POP DUP3 DUP3 DIV DUP5 EQ DUP4 ISZERO OR PUSH2 0x25AD JUMPI PUSH2 0x25AC PUSH2 0x2543 JUMP JUMPDEST JUMPDEST POP SWAP3 SWAP2 POP POP JUMP JUMPDEST PUSH1 0x0 PUSH2 0x25BF DUP3 PUSH2 0x1CDB JUMP JUMPDEST SWAP2 POP PUSH2 0x25CA DUP4 PUSH2 0x1CDB JUMP JUMPDEST SWAP3 POP DUP3 DUP3 ADD SWAP1 POP DUP1 DUP3 GT ISZERO PUSH2 0x25E2 JUMPI PUSH2 0x25E1 PUSH2 0x2543 JUMP JUMPDEST JUMPDEST SWAP3 SWAP2 POP POP JUMP JUMPDEST PUSH32 0x696E73756666696369656E742067617300000000000000000000000000000000 PUSH1 0x0 DUP3 ADD MSTORE POP JUMP JUMPDEST PUSH1 0x0 PUSH2 0x261E PUSH1 0x10 DUP4 PUSH2 0x2497 JUMP JUMPDEST SWAP2 POP PUSH2 0x2629 DUP3 PUSH2 0x25E8 JUMP JUMPDEST PUSH1 0x20 DUP3 ADD SWAP1 POP SWAP2 SWAP1 POP JUMP JUMPDEST PUSH1 0x0 PUSH1 0x20 DUP3 ADD SWAP1 POP DUP2 DUP2 SUB PUSH1 0x0 DUP4 ADD MSTORE PUSH2 0x264D DUP2 PUSH2 0x2611 JUMP JUMPDEST SWAP1 POP SWAP2 SWAP1 POP JUMP JUMPDEST PUSH1 0x0 DUP2 SWAP1 POP PUSH1 0x20 DUP3 ADD SWAP1 POP SWAP2 SWAP1 POP JUMP JUMPDEST PUSH1 0x0 PUSH32 0xFFFFFFFFFFFFFFFFFFFFFFFFFFFFFFFFFFFFFFFF000000000000000000000000 DUP3 AND SWAP1 POP SWAP2 SWAP1 POP JUMP JUMPDEST PUSH1 0x0 PUSH2 0x269C DUP3 MLOAD PUSH2 0x2664 JUMP JUMPDEST DUP1 SWAP2 POP POP SWAP2 SWAP1 POP JUMP JUMPDEST PUSH1 0x0 PUSH2 0x26B0 DUP3 PUSH2 0x2078 JUMP JUMPDEST DUP3 PUSH2 0x26BA DUP5 PUSH2 0x2654 JUMP JUMPDEST SWAP1 POP PUSH2 0x26C5 DUP2 PUSH2 0x2690 JUMP JUMPDEST SWAP3 POP PUSH1 0x14 DUP3 LT ISZERO PUSH2 0x2705 JUMPI PUSH2 0x2700 PUSH32 0xFFFFFFFFFFFFFFFFFFFFFFFFFFFFFFFFFFFFFFFF000000000000000000000000 DUP4 PUSH1 0x14 SUB PUSH1 0x8 MUL PUSH2 0x223E JUMP JUMPDEST DUP4 AND SWAP3 POP JUMPDEST POP POP SWAP2 SWAP1 POP JUMP JUMPDEST PUSH2 0x2715 DUP2 PUSH2 0x1CDB JUMP JUMPDEST DUP3 MSTORE POP POP JUMP JUMPDEST PUSH1 0x0 DUP2 MLOAD SWAP1 POP SWAP2 SWAP1 POP JUMP JUMPDEST PUSH1 0x0 PUSH2 0x2731 DUP3 PUSH2 0x271B JUMP JUMPDEST PUSH2 0x273B DUP2 DUP6 PUSH2 0x2497 JUMP JUMPDEST SWAP4 POP PUSH2 0x274B DUP2 DUP6 PUSH1 0x20 DUP7 ADD PUSH2 0x2094 JUMP JUMPDEST PUSH2 0x2754 DUP2 PUSH2 0x1B1B JUMP JUMPDEST DUP5 ADD SWAP2 POP POP SWAP3 SWAP2 POP POP JUMP JUMPDEST PUSH1 0x0 DUP2 SWAP1 POP SWAP2 SWAP1 POP JUMP JUMPDEST PUSH2 0x2772 DUP2 PUSH2 0x275F JUMP JUMPDEST DUP3 MSTORE POP POP JUMP JUMPDEST PUSH1 0x0 PUSH1 0x60 DUP3 ADD SWAP1 POP PUSH2 0x278D PUSH1 0x0 DUP4 ADD DUP7 PUSH2 0x270C JUMP JUMPDEST DUP2 DUP2 SUB PUSH1 0x20 DUP4 ADD MSTORE PUSH2 0x279F DUP2 DUP6 PUSH2 0x2726 JUMP JUMPDEST SWAP1 POP PUSH2 0x27AE PUSH1 0x40 DUP4 ADD DUP5 PUSH2 0x2769 JUMP JUMPDEST SWAP5 SWAP4 POP POP POP POP JUMP JUMPDEST PUSH1 0x0 PUSH2 0x27C1 DUP3 PUSH2 0x1CDB JUMP JUMPDEST SWAP2 POP PUSH32 0xFFFFFFFFFFFFFFFFFFFFFFFFFFFFFFFFFFFFFFFFFFFFFFFFFFFFFFFFFFFFFFFF DUP3 SUB PUSH2 0x27F3 JUMPI PUSH2 0x27F2 PUSH2 0x2543 JUMP JUMPDEST JUMPDEST PUSH1 0x1 DUP3 ADD SWAP1 POP SWAP2 SWAP1 POP JUMP JUMPDEST PUSH32 0x63616E6E6F74206F76657272696465206163636F756E7420696E207573650000 PUSH1 0x0 DUP3 ADD MSTORE POP JUMP JUMPDEST PUSH1 0x0 PUSH2 0x2834 PUSH1 0x1E DUP4 PUSH2 0x2497 JUMP JUMPDEST SWAP2 POP PUSH2 0x283F DUP3 PUSH2 0x27FE JUMP JUMPDEST PUSH1 0x20 DUP3 ADD SWAP1 POP SWAP2 SWAP1 POP JUMP JUMPDEST PUSH1 0x0 PUSH1 0x20 DUP3 ADD SWAP1 POP DUP2 DUP2 SUB PUSH1 0x0 DUP4 ADD MSTORE PUSH2 0x2863 DUP2 PUSH2 0x2827 JUMP JUMPDEST SWAP1 POP SWAP2 SWAP1 POP JUMP JUMPDEST PUSH2 0x2873 DUP2 PUSH2 0x1D31 JUMP JUMPDEST DUP3 MSTORE POP POP JUMP JUMPDEST PUSH1 0x0 PUSH1 0x60 DUP3 ADD SWAP1 POP PUSH2 0x288E PUSH1 0x0 DUP4 ADD DUP7 PUSH2 0x2769 JUMP JUMPDEST PUSH2 0x289B PUSH1 0x20 DUP4 ADD DUP6 PUSH2 0x286A JUMP JUMPDEST PUSH2 0x28A8 PUSH1 0x40 DUP4 ADD DUP5 PUSH2 0x270C JUMP JUMPDEST SWAP5 SWAP4 POP POP POP POP JUMP JUMPDEST PUSH1 0x0 DUP2 SWAP1 POP SWAP3 SWAP2 POP POP JUMP JUMPDEST PUSH1 0x0 PUSH2 0x28C6 DUP3 PUSH2 0x2078 JUMP JUMPDEST PUSH2 0x28D0 DUP2 DUP6 PUSH2 0x28B0 JUMP JUMPDEST SWAP4 POP PUSH2 0x28E0 DUP2 DUP6 PUSH1 0x20 DUP7 ADD PUSH2 0x2094 JUMP JUMPDEST DUP1 DUP5 ADD SWAP2 POP POP SWAP3 SWAP2 POP POP JUMP JUMPDEST PUSH1 0x0 PUSH2 0x28F8 DUP3 DUP5 PUSH2 0x28BB JUMP JUMPDEST SWAP2 POP DUP2 SWAP1 POP SWAP3 SWAP2 POP POP JUMP JUMPDEST PUSH1 0x0 PUSH2 0x2916 PUSH2 0x2911 DUP5 PUSH2 0x1D6F JUMP JUMPDEST PUSH2 0x1B8C JUMP JUMPDEST SWAP1 POP DUP3 DUP2 MSTORE PUSH1 0x20 DUP2 ADD DUP5 DUP5 DUP5 ADD GT ISZERO PUSH2 0x2932 JUMPI PUSH2 0x2931 PUSH2 0x1B16 JUMP JUMPDEST JUMPDEST PUSH2 0x293D DUP5 DUP3 DUP6 PUSH2 0x2094 JUMP JUMPDEST POP SWAP4 SWAP3 POP POP POP JUMP JUMPDEST PUSH1 0x0 DUP3 PUSH1 0x1F DUP4 ADD SLT PUSH2 0x295A JUMPI PUSH2 0x2959 PUSH2 0x1B11 JUMP JUMPDEST JUMPDEST DUP2 MLOAD PUSH2 0x296A DUP5 DUP3 PUSH1 0x20 DUP7 ADD PUSH2 0x2903 JUMP JUMPDEST SWAP2 POP POP SWAP3 SWAP2 POP POP JUMP JUMPDEST PUSH1 0x0 PUSH1 0x20 DUP3 DUP5 SUB SLT ISZERO PUSH2 0x2989 JUMPI PUSH2 0x2988 PUSH2 0x1B07 JUMP JUMPDEST JUMPDEST PUSH1 0x0 DUP3 ADD MLOAD PUSH8 0xFFFFFFFFFFFFFFFF DUP2 GT ISZERO PUSH2 0x29A7 JUMPI PUSH2 0x29A6 PUSH2 0x1B0C JUMP JUMPDEST JUMPDEST PUSH2 0x29B3 DUP5 DUP3 DUP6 ADD PUSH2 0x2945 JUMP JUMPDEST SWAP2 POP POP SWAP3 SWAP2 POP POP JUMP JUMPDEST PUSH32 0x6569703135353A00000000000000000000000000000000000000000000000000 DUP2 MSTORE POP JUMP JUMPDEST PUSH1 0x0 DUP2 SWAP1 POP SWAP3 SWAP2 POP POP JUMP JUMPDEST PUSH1 0x0 PUSH2 0x29F8 DUP3 PUSH2 0x271B JUMP JUMPDEST PUSH2 0x2A02 DUP2 DUP6 PUSH2 0x29E2 JUMP JUMPDEST SWAP4 POP PUSH2 0x2A12 DUP2 DUP6 PUSH1 0x20 DUP7 ADD PUSH2 0x2094 JUMP JUMPDEST DUP1 DUP5 ADD SWAP2 POP POP SWAP3 SWAP2 POP POP JUMP JUMPDEST PUSH1 0x0 PUSH2 0x2A29 DUP3 PUSH2 0x29BC JUMP JUMPDEST PUSH1 0x7 DUP3 ADD SWAP2 POP PUSH2 0x2A39 DUP3 DUP5 PUSH2 0x29ED JUMP JUMPDEST SWAP2 POP DUP2 SWAP1 POP SWAP3 SWAP2 POP POP JUMP JUMPDEST PUSH1 0x0 PUSH2 0x2A50 DUP3 DUP5 PUSH2 0x29ED JUMP JUMPDEST SWAP2 POP DUP2 SWAP1 POP SWAP3 SWAP2 POP POP JUMP JUMPDEST PUSH1 0x0 PUSH1 0xFF DUP3 AND SWAP1 POP SWAP2 SWAP1 POP JUMP JUMPDEST PUSH2 0x2A71 DUP2 PUSH2 0x2A5B JUMP JUMPDEST DUP3 MSTORE POP POP JUMP JUMPDEST PUSH1 0x0 DUP2 SWAP1 POP SWAP2 SWAP1 POP JUMP JUMPDEST PUSH1 0x0 PUSH2 0x2A9C PUSH2 0x2A97 PUSH2 0x2A92 DUP5 PUSH2 0x2A77 JUMP JUMPDEST PUSH2 0x229D JUMP JUMPDEST PUSH2 0x1CDB JUMP JUMPDEST SWAP1 POP SWAP2 SWAP1 POP JUMP JUMPDEST PUSH2 0x2AAC DUP2 PUSH2 0x2A81 JUMP JUMPDEST DUP3 MSTORE POP POP JUMP JUMPDEST PUSH1 0x0 PUSH1 0x40 DUP3 ADD SWAP1 POP PUSH2 0x2AC7 PUSH1 0x0 DUP4 ADD DUP6 PUSH2 0x2A68 JUMP JUMPDEST PUSH2 0x2AD4 PUSH1 0x20 DUP4 ADD DUP5 PUSH2 0x2AA3 JUMP JUMPDEST SWAP4 SWAP3 POP POP POP JUMP JUMPDEST PUSH1 0x0 DUP2 MLOAD SWAP1 POP PUSH2 0x2AEA DUP2 PUSH2 0x1CE5 JUMP JUMPDEST SWAP3 SWAP2 POP POP JUMP JUMPDEST PUSH1 0x0 DUP1 PUSH1 0x0 PUSH1 0x60 DUP5 DUP7 SUB SLT ISZERO PUSH2 0x2B09 JUMPI PUSH2 0x2B08 PUSH2 0x1B07 JUMP JUMPDEST JUMPDEST PUSH1 0x0 PUSH2 0x2B17 DUP7 DUP3 DUP8 ADD PUSH2 0x2ADB JUMP JUMPDEST SWAP4 POP POP PUSH1 0x20 PUSH2 0x2B28 DUP7 DUP3 DUP8 ADD PUSH2 0x2ADB JUMP JUMPDEST SWAP3 POP POP PUSH1 0x40 PUSH2 0x2B39 DUP7 DUP3 DUP8 ADD PUSH2 0x2ADB JUMP JUMPDEST SWAP2 POP POP SWAP3 POP SWAP3 POP SWAP3 JUMP JUMPDEST PUSH2 0x2B4C DUP2 PUSH2 0x275F JUMP JUMPDEST DUP3 MSTORE POP POP JUMP JUMPDEST PUSH1 0x0 PUSH1 0xA0 DUP4 ADD PUSH1 0x0 DUP4 ADD MLOAD PUSH2 0x2B6A PUSH1 0x0 DUP7 ADD DUP3 PUSH2 0x2B43 JUMP JUMPDEST POP PUSH1 0x20 DUP4 ADD MLOAD PUSH2 0x2B7D PUSH1 0x20 DUP7 ADD DUP3 PUSH2 0x2069 JUMP JUMPDEST POP PUSH1 0x40 DUP4 ADD MLOAD PUSH2 0x2B90 PUSH1 0x40 DUP7 ADD DUP3 PUSH2 0x2B43 JUMP JUMPDEST POP PUSH1 0x60 DUP4 ADD MLOAD DUP5 DUP3 SUB PUSH1 0x60 DUP7 ADD MSTORE PUSH2 0x2BA8 DUP3 DUP3 PUSH2 0x20BE JUMP JUMPDEST SWAP2 POP POP PUSH1 0x80 DUP4 ADD MLOAD PUSH2 0x2BBD PUSH1 0x80 DUP7 ADD DUP3 PUSH2 0x2112 JUMP JUMPDEST POP DUP1 SWAP2 POP POP SWAP3 SWAP2 POP POP JUMP JUMPDEST PUSH1 0x0 PUSH1 0x20 DUP3 ADD SWAP1 POP DUP2 DUP2 SUB PUSH1 0x0 DUP4 ADD MSTORE PUSH2 0x2BE2 DUP2 DUP5 PUSH2 0x2B52 JUMP JUMPDEST SWAP1 POP SWAP3 SWAP2 POP POP JUMP JUMPDEST PUSH1 0x0 PUSH1 0x40 DUP3 ADD SWAP1 POP PUSH2 0x2BFF PUSH1 0x0 DUP4 ADD DUP6 PUSH2 0x2769 JUMP JUMPDEST PUSH2 0x2C0C PUSH1 0x20 DUP4 ADD DUP5 PUSH2 0x286A JUMP JUMPDEST SWAP4 SWAP3 POP POP POP JUMP JUMPDEST PUSH1 0x0 PUSH8 0xFFFFFFFFFFFFFFFF DUP3 GT ISZERO PUSH2 0x2C2E JUMPI PUSH2 0x2C2D PUSH2 0x1B2C JUMP JUMPDEST JUMPDEST PUSH1 0x20 DUP3 MUL SWAP1 POP PUSH1 0x20 DUP2 ADD SWAP1 POP SWAP2 SWAP1 POP JUMP JUMPDEST PUSH1 0x0 PUSH2 0x2C52 PUSH2 0x2C4D DUP5 PUSH2 0x2C13 JUMP JUMPDEST PUSH2 0x1B8C JUMP JUMPDEST SWAP1 POP DUP1 DUP4 DUP3 MSTORE PUSH1 0x20 DUP3 ADD SWAP1 POP PUSH1 0x20 DUP5 MUL DUP4 ADD DUP6 DUP2 GT ISZERO PUSH2 0x2C75 JUMPI PUSH2 0x2C74 PUSH2 0x1CCC JUMP JUMPDEST JUMPDEST DUP4 JUMPDEST DUP2 DUP2 LT ISZERO PUSH2 0x2CBC JUMPI DUP1 MLOAD PUSH8 0xFFFFFFFFFFFFFFFF DUP2 GT ISZERO PUSH2 0x2C9A JUMPI PUSH2 0x2C99 PUSH2 0x1B11 JUMP JUMPDEST JUMPDEST DUP1 DUP7 ADD PUSH2 0x2CA7 DUP10 DUP3 PUSH2 0x2945 JUMP JUMPDEST DUP6 MSTORE PUSH1 0x20 DUP6 ADD SWAP5 POP POP POP PUSH1 0x20 DUP2 ADD SWAP1 POP PUSH2 0x2C77 JUMP JUMPDEST POP POP POP SWAP4 SWAP3 POP POP POP JUMP JUMPDEST PUSH1 0x0 DUP3 PUSH1 0x1F DUP4 ADD SLT PUSH2 0x2CDB JUMPI PUSH2 0x2CDA PUSH2 0x1B11 JUMP JUMPDEST JUMPDEST DUP2 MLOAD PUSH2 0x2CEB DUP5 DUP3 PUSH1 0x20 DUP7 ADD PUSH2 0x2C3F JUMP JUMPDEST SWAP2 POP POP SWAP3 SWAP2 POP POP JUMP JUMPDEST PUSH1 0x0 PUSH1 0x20 DUP3 DUP5 SUB SLT ISZERO PUSH2 0x2D0A JUMPI PUSH2 0x2D09 PUSH2 0x1B07 JUMP JUMPDEST JUMPDEST PUSH1 0x0 DUP3 ADD MLOAD PUSH8 0xFFFFFFFFFFFFFFFF DUP2 GT ISZERO PUSH2 0x2D28 JUMPI PUSH2 0x2D27 PUSH2 0x1B0C JUMP JUMPDEST JUMPDEST PUSH2 0x2D34 DUP5 DUP3 DUP6 ADD PUSH2 0x2CC6 JUMP JUMPDEST SWAP2 POP POP SWAP3 SWAP2 POP POP JUMP JUMPDEST PUSH2 0x2D46 DUP2 PUSH2 0x2A5B JUMP JUMPDEST DUP3 MSTORE POP POP JUMP JUMPDEST PUSH1 0x40 DUP3 ADD PUSH1 0x0 DUP3 ADD MLOAD PUSH2 0x2D62 PUSH1 0x0 DUP6 ADD DUP3 PUSH2 0x2B43 JUMP JUMPDEST POP PUSH1 0x20 DUP3 ADD MLOAD PUSH2 0x2D75 PUSH1 0x20 DUP6 ADD DUP3 PUSH2 0x2D3D JUMP JUMPDEST POP POP POP POP JUMP JUMPDEST PUSH1 0x0 PUSH1 0x40 DUP3 ADD SWAP1 POP PUSH2 0x2D90 PUSH1 0x0 DUP4 ADD DUP5 PUSH2 0x2D4C JUMP JUMPDEST SWAP3 SWAP2 POP POP JUMP JUMPDEST PUSH1 0x0 PUSH2 0x2DA2 DUP3 DUP6 PUSH2 0x28BB JUMP JUMPDEST SWAP2 POP PUSH2 0x2DAE DUP3 DUP5 PUSH2 0x28BB JUMP JUMPDEST SWAP2 POP DUP2 SWAP1 POP SWAP4 SWAP3 POP POP POP JUMP JUMPDEST PUSH1 0x0 DUP2 PUSH1 0x60 SHL SWAP1 POP SWAP2 SWAP1 POP JUMP JUMPDEST PUSH1 0x0 PUSH2 0x2DD2 DUP3 PUSH2 0x2DBA JUMP JUMPDEST SWAP1 POP SWAP2 SWAP1 POP JUMP JUMPDEST PUSH1 0x0 PUSH2 0x2DE4 DUP3 PUSH2 0x2DC7 JUMP JUMPDEST SWAP1 POP SWAP2 SWAP1 POP JUMP JUMPDEST PUSH2 0x2DFC PUSH2 0x2DF7 DUP3 PUSH2 0x1D31 JUMP JUMPDEST PUSH2 0x2DD9 JUMP JUMPDEST DUP3 MSTORE POP POP JUMP JUMPDEST PUSH1 0x0 PUSH2 0x2E0E DUP3 DUP5 PUSH2 0x2DEB JUMP JUMPDEST PUSH1 0x14 DUP3 ADD SWAP2 POP DUP2 SWAP1 POP SWAP3 SWAP2 POP POP JUMP JUMPDEST PUSH1 0x0 PUSH2 0x2E28 DUP3 PUSH2 0x2A5B JUMP JUMPDEST SWAP2 POP PUSH2 0x2E33 DUP4 PUSH2 0x2A5B JUMP JUMPDEST SWAP3 POP DUP3 DUP3 ADD SWAP1 POP PUSH1 0xFF DUP2 GT ISZERO PUSH2 0x2E4C JUMPI PUSH2 0x2E4B PUSH2 0x2543 JUMP JUMPDEST JUMPDEST SWAP3 SWAP2 POP POP JUMP JUMPDEST PUSH32 0x4E487B7100000000000000000000000000000000000000000000000000000000 PUSH1 0x0 MSTORE PUSH1 0x12 PUSH1 0x4 MSTORE PUSH1 0x24 PUSH1 0x0 REVERT JUMPDEST PUSH1 0x0 PUSH2 0x2E8C DUP3 PUSH2 0x1CDB JUMP JUMPDEST SWAP2 POP PUSH2 0x2E97 DUP4 PUSH2 0x1CDB JUMP JUMPDEST SWAP3 POP DUP3 PUSH2 0x2EA7 JUMPI PUSH2 0x2EA6 PUSH2 0x2E52 JUMP JUMPDEST JUMPDEST DUP3 DUP3 DIV SWAP1 POP SWAP3 SWAP2 POP POP JUMP JUMPDEST PUSH1 0x0 PUSH2 0x2EBD DUP3 PUSH2 0x1CDB JUMP JUMPDEST SWAP2 POP PUSH2 0x2EC8 DUP4 PUSH2 0x1CDB JUMP JUMPDEST SWAP3 POP DUP3 DUP3 SUB SWAP1 POP DUP2 DUP2 GT ISZERO PUSH2 0x2EE0 JUMPI PUSH2 0x2EDF PUSH2 0x2543 JUMP JUMPDEST JUMPDEST SWAP3 SWAP2 POP POP JUMP JUMPDEST PUSH1 0x0 DUP2 PUSH1 0x1 SHR SWAP1 POP SWAP2 SWAP1 POP JUMP JUMPDEST PUSH1 0x0 DUP1 DUP3 SWAP2 POP DUP4 SWAP1 POP JUMPDEST PUSH1 0x1 DUP6 GT ISZERO PUSH2 0x2F3D JUMPI DUP1 DUP7 DIV DUP2 GT ISZERO PUSH2 0x2F19 JUMPI PUSH2 0x2F18 PUSH2 0x2543 JUMP JUMPDEST JUMPDEST PUSH1 0x1 DUP6 AND ISZERO PUSH2 0x2F28 JUMPI DUP1 DUP3 MUL SWAP2 POP JUMPDEST DUP1 DUP2 MUL SWAP1 POP PUSH2 0x2F36 DUP6 PUSH2 0x2EE6 JUMP JUMPDEST SWAP5 POP PUSH2 0x2EFD JUMP JUMPDEST SWAP5 POP SWAP5 SWAP3 POP POP POP JUMP JUMPDEST PUSH1 0x0 DUP3 PUSH2 0x2F56 JUMPI PUSH1 0x1 SWAP1 POP PUSH2 0x3012 JUMP JUMPDEST DUP2 PUSH2 0x2F64 JUMPI PUSH1 0x0 SWAP1 POP PUSH2 0x3012 JUMP JUMPDEST DUP2 PUSH1 0x1 DUP2 EQ PUSH2 0x2F7A JUMPI PUSH1 0x2 DUP2 EQ PUSH2 0x2F84 JUMPI PUSH2 0x2FB3 JUMP JUMPDEST PUSH1 0x1 SWAP2 POP POP PUSH2 0x3012 JUMP JUMPDEST PUSH1 0xFF DUP5 GT ISZERO PUSH2 0x2F96 JUMPI PUSH2 0x2F95 PUSH2 0x2543 JUMP JUMPDEST JUMPDEST DUP4 PUSH1 0x2 EXP SWAP2 POP DUP5 DUP3 GT ISZERO PUSH2 0x2FAD JUMPI PUSH2 0x2FAC PUSH2 0x2543 JUMP JUMPDEST JUMPDEST POP PUSH2 0x3012 JUMP JUMPDEST POP PUSH1 0x20 DUP4 LT PUSH2 0x133 DUP4 LT AND PUSH1 0x4E DUP5 LT PUSH1 0xB DUP5 LT AND OR ISZERO PUSH2 0x2FE8 JUMPI DUP3 DUP3 EXP SWAP1 POP DUP4 DUP2 GT ISZERO PUSH2 0x2FE3 JUMPI PUSH2 0x2FE2 PUSH2 0x2543 JUMP JUMPDEST JUMPDEST PUSH2 0x3012 JUMP JUMPDEST PUSH2 0x2FF5 DUP5 DUP5 DUP5 PUSH1 0x1 PUSH2 0x2EF3 JUMP JUMPDEST SWAP3 POP SWAP1 POP DUP2 DUP5 DIV DUP2 GT ISZERO PUSH2 0x300C JUMPI PUSH2 0x300B PUSH2 0x2543 JUMP JUMPDEST JUMPDEST DUP2 DUP2 MUL SWAP1 POP JUMPDEST SWAP4 SWAP3 POP POP POP JUMP JUMPDEST PUSH1 0x0 PUSH2 0x3024 DUP3 PUSH2 0x1CDB JUMP JUMPDEST SWAP2 POP PUSH2 0x302F DUP4 PUSH2 0x1CDB JUMP JUMPDEST SWAP3 POP PUSH2 0x305C PUSH32 0xFFFFFFFFFFFFFFFFFFFFFFFFFFFFFFFFFFFFFFFFFFFFFFFFFFFFFFFFFFFFFFFF DUP5 DUP5 PUSH2 0x2F46 JUMP JUMPDEST SWAP1 POP SWAP3 SWAP2 POP POP JUMP JUMPDEST PUSH1 0x0 PUSH2 0x306F DUP3 PUSH2 0x1CDB JUMP JUMPDEST SWAP2 POP PUSH2 0x307A DUP4 PUSH2 0x1CDB JUMP JUMPDEST SWAP3 POP DUP3 PUSH2 0x308A JUMPI PUSH2 0x3089 PUSH2 0x2E52 JUMP JUMPDEST JUMPDEST DUP3 DUP3 MOD SWAP1 POP SWAP3 SWAP2 POP POP JUMP JUMPDEST PUSH1 0x0 DUP2 SWAP1 POP SWAP2 SWAP1 POP JUMP JUMPDEST PUSH2 0x30B0 PUSH2 0x30AB DUP3 PUSH2 0x1CDB JUMP JUMPDEST PUSH2 0x3095 JUMP JUMPDEST DUP3 MSTORE POP POP JUMP JUMPDEST PUSH1 0x0 PUSH2 0x30C2 DUP3 DUP5 PUSH2 0x309F JUMP JUMPDEST PUSH1 0x20 DUP3 ADD SWAP2 POP DUP2 SWAP1 POP SWAP3 SWAP2 POP POP JUMP INVALID LOG2 PUSH5 0x6970667358 0x22 SLT KECCAK256 0xEB 0xED SMOD SWAP15 0x4F 0xE3 EXTCODECOPY 0x29 0xF6 LOG1 CODESIZE BLOCKHASH 0xEF PUSH29 0x7CB03468C829404A51EADFF71BFE484A32CD64736F6C63430008180033 "
        },
        "methodIdentifiers": {
          "createAccount(bytes)": "a9ea858f",
          "createGasProvider()": "66a096b2",
          "execute((uint256,address,bytes,uint256,uint256,uint256,string)[],uint256,bytes)": "50b28ab2",
          "getAccount(address)": "fbcbc0f1",
          "setAccountData(bytes)": "3c58e054"
        }
      }
    }
  }
}